:020000040800F2
:10000000080B0020D5020008B93700083F2C000873
:10001000B5370008D319000873420008000000003B
:10002000000000000000000000000000613B00082C
:100030000B1C000800000000493800088F3E000833
:10004000EF020008EF020008EF020008EF020008CC
:10005000EF020008EF020008EF020008EF020008BC
:10006000EF020008EF020008EF020008EF020008AC
:10007000EF020008EF020008EF020008EF0200089C
:10008000EF020008EF020008EF020008EF0200088C
:10009000EF020008EF020008EF020008EF0200087C
:1000A000EF020008EF020008EF020008EF0200086C
:1000B000EF020008EF020008EF020008EF0200085C
:1000C000EF020008EF020008EF020008EF0200084C
:1000D000EF020008713F0008F93F00088140000866
:1000E000EF020008EF020008EF020008EF0200082C
:1000F000EF020008EF020008EF020008EF0200081C
:10010000EF020008D9390008EF020008EF020008EA
:10011000F93E0008353F0008EF020008EF02000832
:10012000EF020008EF020008EF020008EF020008EB
:10013000EF020008EF020008EF020008EF020008DB
:10014000EF020008EF020008EF020008EF020008CB
:10015000EF020008EF020008EF020008EF020008BB
:10016000EF020008EF020008EF020008EF020008AB
:10017000EF020008EF020008EF020008EF0200089B
:10018000EF020008EF02000800F002F800F092F819
:100190000AA090E8000C82448344AAF10107DA45E2
:1001A00001D100F087F8AFF2090EBAE80F0013F0A2
:1001B000010F18BFFB1A43F001031847CCC102001E
:1001C000ECC10200103A24BF78C878C1FAD85207AF
:1001D00024BF30C830C144BF04680C6070470000C1
:1001E0000023002400250026103A28BF78C1FBD840
:1001F000520728BF30C148BF0B6070476E2900F01E
:100200004B83702900F04B81662904F0F082652948
:1002100004F0ED82672904F0EA826129AFF30080DF
:1002200003681B0A28BF41F08001692900F0F882A9
:10023000642900F0F582752900F0F2826F2900F040
:100240004284782900F01781E92900F0DD83E42950
:1002500000F0DA83F52900F0D783EF2900F03F841E
:10026000F82900F016810368DB0928BF41F08001FE
:10027000632900F04C83732900F05183E32900F0D7
:10028000BE86F32900F0C386002070471FB504F036
:10029000A9FA00F017FF04000020002104F08CFAF6
:1002A000401C60600020002104F070FAE0601FBD77
:1002B00010B510BD00F0D8FE1146FFF7E7FF04F0BF
:1002C0008FF800F0B5FF03B4FFF7F2FF03BC03F0B3
:1002D000F1FF00000948804709480047FEE7FEE7B4
:1002E000FEE7FEE7FEE7FEE7FEE7FEE7FEE7FEE7E6
:1002F00004480549054A064B70470000913E000836
:100300008901000808050020080B002008070020CC
:1003100008070020704700001CB50C46064B7B44C4
:1003200069460090204600F0D0FA04460020694655
:1003300000F0DEFA20461CBDCF0500000FB40449D2
:1003400010B503AA029800F0EFFA10BC5DF814FB98
:10035000200000200FB41CB5084B06AA7B44694658
:100360000090059800F0B1FA04460020694600F0BC
:10037000BFFA20461CBC5DF814FB0000910500008C
:1003800070B5044685690068C10601D5302600E0D5
:100390002026C00707D070BDD4E901213046904720
:1003A000206A401C20626D1EF6D570BD70B50446F3
:1003B00085690078C00707D170BDD4E901212020EC
:1003C0009047206A401C20626D1EF6D570BD70B546
:1003D0000C460546012A05D02878800600D5EA6932
:1003E000002302E0012305E05B1C934202D2E05CA3
:1003F0000028F9D1A869E618C01AA861286A18442B
:1004000028622846FFF7BCFF04E0D5E9012114F873
:10041000010B9047B442F8D32846FFF7C7FF70BDE1
:10042000F0B40D460188090502D5214C7C4402E058
:100430001F4C7C440E34002100F1240608E002F039
:100440000F071209E75D42EA03721B097754491C42
:1004500052EA0307F3D102780023120704D5702D66
:1004600006D009B1022311342246F0BC00F07EB957
:1004700001231034F8E770B504460D462146106894
:1004800000F06BF9024629462046BDE87040002383
:10049000C6E7D21D22F00703D3E90023C0E70368B3
:1004A000126843F0200303600823C3610023B7E709
:1004B0003CBE02002DE9F05F894604464FF0000A79
:1004C000DFF874B1FB44C0F820A02046E1688847FB
:1004D000002874D0252806D0D4E901219047206A4D
:1004E000401C2062F1E700265F462046E16888470D
:1004F0002028054607DB312D05D2781910F8200C8D
:1005000008B10643F1E7B00701D526F00406C4F8A8
:100510001CA00027C4F818A02A2D09D0284603F0F3
:10052000C2FE38B304EB8708303DC8F8185019E014
:1005300059F8041B204604EB87029161E168884763
:10054000012F054618D1E069002820DA26F02006A0
:100550001DE0D8F8180000EB800005EB40003038B3
:10056000C8F818002046E1688847054603F09BFE5E
:100570000028EED1012F0AD02E2D08D12046E168A7
:1005800088477F1C0546022F46F02006C4DBA06981
:10059000002803DA404246F00106A061F00701D0CE
:1005A00026F010066C2D0BD0682D09D04C2D39D0BB
:1005B0006A2D35D0742D35D07A2D33D016E038E041
:1005C000E1682F4620468847B842054609D16C2F7E
:1005D00026D04FF48060E1680643204688470546F0
:1005E00004E06C2F1AD04FF4807006430DB3A5F1D0
:1005F0004100192802D8203546F400664A462946AB
:10060000204626604E46FFF7F9FD80B101280BD049
:10061000F61D26F0070000F1080956E74020E4E740
:100620008020D8E70020D6E706F104094DE72846E8
:1006300052E7206ABDE8F09FCCBD020010B5431C14
:1006400002E010F8011B71B18107FAD14FF00132BD
:1006500002C88C1A8C4314EAC211F9D0C01A0A06D7
:1006600003D0C01E10BDC01A10BD0A0401D0801EE8
:1006700010BD0902FCD0401E10BD4FF0000204293D
:10068000C0F0128010F0030C00F03682CCF1040CA4
:10069000BCF1020F18BF00F8012BA8BF20F8022BF5
:1006A000A1EB0C0100F028BA5FEAC17C24BF00F87E
:1006B000012B00F8012B48BF00F8012B7047000008
:1006C0004FF0013C50F8042B51F8043B9A4221D1E1
:1006D000A2EB0C03934313EACC1317D150F8042B6D
:1006E00051F8043B9A4215D1A2EB0C03934313EA51
:1006F000CC130BD150F8042B51F8043B9A4209D18A
:10070000A2EB0C03934313EACC13DBD04FF00000B1
:10071000704700BFD01A01BAB1FA81F101F0180197
:1007200022FA01F0CB40C1F12001DBB2C0B2C01A05
:100730002CFA01F3D11A914311EAC311E6D17047A3
:10074000704770477047704709684A0501D540B245
:100750007047C905FCD500B2704709684A0501D544
:10076000C0B27047C905FCD580B270472DE9F0478B
:100770000D4699469246044600F124080168880611
:1007800004D5E06921F01001216000E00120A842B9
:1007900001DD471B00E00027A1697A1902EB09007F
:1007A000081AA0612078C00602D42046FFF7E8FDB1
:1007B000002608E0D4E901211AF806009047206AD3
:1007C000401C761C20624E45F4DB2078C0060AD51A
:1007D0002046FFF7D5FD06E0D4E9012130209047FF
:1007E000206A401C2062381EA7F10107F4DC07E0F4
:1007F000D4E9012118F805009047206A401C2062C6
:10080000281EA5F10105F3DC2046FFF7CFFD207877
:10081000000602D50220BDE8F0870120FBE70000BA
:100820002DE9F0410646002410687529314616A5C9
:1008300010D0FFF789FF002802DA404213A507E035
:1008400031688A0701D512A502E0490704D511A530
:10085000012401E0FFF781FF00210A2206F12407AD
:1008600009E0B0FBF2FCB0FBF2F302FB1C003030FD
:1008700078541846491C0028F3D123462A463046AE
:10088000BDE8F041FFF772BF000000002D0000003E
:100890002B0000002000000011680268006A530568
:1008A00001D508700AE0D30501D5088006E01306DB
:1008B00003D5C217C1E9000200E0086001207047BB
:1008C00001694A1C02610878704700B58FB0CDE914
:1008D00001310021059105497944CDE90310114604
:1008E0006846FFF7E7FD0FB000BD0000E5FFFFFF22
:1008F0000A6802F8010B0A60704710B5436913B12A
:10090000AFF3008001E0FFF762FD012010BD127817
:1009100000F124010A7000224A700122EDE71168FB
:100920004FF0FF32E9E70000074B70B50D467B44FE
:10093000FFF7CBFF0446284600F06DFB10B14FF0E7
:10094000FF3070BD204670BD933A00002DE9FF5F77
:1009500015468A460446DFF8AC80F8440027D8E9FB
:1009600000103E46CDE9001010E03AF816106A4635
:1009700002A800F054FB411C07D02178890603D55A
:10098000E269391891420DD80744761C2078800618
:1009900002D5E069B84205DDAE42E6DB3AF8160062
:1009A0000028E2D1A069C01BA0612046FFF7E8FC47
:1009B000D8E90010CDE90010002017E03AF818102F
:1009C0006A4602A800F02BFBB0F1FF3F81460BD036
:1009D00000250DF1080B05E0D4E901211BF8050005
:1009E00090476D1C4D45F7D308F10100B042804699
:1009F000E4DB206A384420622046FFF7D7FCBDE8DC
:100A0000FF9F00004AB902002DE9F0418046D21D47
:100A100022F007020025D2E90002F52915A614D01C
:100A2000011E72F1000106DA0023D0EB030063EB34
:100A3000020211A608E0D8F800108B0701D50FA616
:100A400002E0490701D50EA601251146002408F150
:100A5000240704E000F075F830323A55641C50EA7F
:100A60000102F7D12B46324621464046BDE8F0410F
:100A7000FFF77CBE000000002D0000002B000000EE
:100A80002000000030B4002100F1240408E002F04E
:100A90000705D208303542EA4372DB086554491C29
:100AA00052EA0305F3D10468002310A2250707D5F5
:100AB000A40600D421B1C46901230DA2641EC4613F
:100AC00030BCFFF753BE10B5044621461068FFF74F
:100AD00044FE02462046BDE810400023D2E7D21D66
:100AE00022F00701D1E90023CCE70000000000005C
:100AF000300000004FF0000200B5134694469646C1
:100B0000203922BFA0E80C50A0E80C50B1F1200120
:100B1000BFF4F7AF090728BFA0E80C5048BF0CC0CE
:100B20005DF804EB890028BF40F8042B08BF70472C
:100B300048BF20F8022B11F0804F18BF00F8012B9E
:100B4000704730B5B0F10A024FEA900E71F1000320
:100B50004EEA817EB0EB0E0061EB91014FEA101E70
:100B60004EEA017E10EB0E0041EB11114FEA102E00
:100B70004EEA016E10EB0E0041EB11214FEA104ED0
:100B80004EEA014E10EB0E0041EB1141401841F1CD
:100B900000014FEAD00040EA41704FEAD10110EB6A
:100BA00080054FEA810444EA907444EB01046D1916
:100BB00044EB0404521BA3414FF0000348BF0A3228
:100BC00000D530BD401C41F1000130BD70472DE91A
:100BD000FF4F0C461E464FF0FF378BB0D2E90001A5
:100BE000DDF860800A908A46C1F30A5505B93D4692
:100BF000002108464FF00000BAF1000F00F4400059
:100C000005DA00EB80004FF4400101EA50004FEAA2
:100C10009059B9F1010F00DDB9460A9850EA4A002F
:100C20000ED044F61050A5F2FF3545432F14B8F10D
:100C3000000F1ED07542291E1EDDC9F100021CE006
:100C4000B8F1010F4FF0000001D0302103E0F24372
:100C500005E02154401CB042FBDB3046002200215D
:100C600021540B99C1F80880C1E900200FB0BDE8FC
:100C7000F08FBD1B6D1CDEE74A4600DA694206A80C
:100C800000F064FA06AB93E8070003AB83E80700C3
:100C900050460A9900F0D5FA8DE80700A0F50050FB
:100CA0001F3800900398002D0ADD42F21F014A46CA
:100CB0000844002303A90390684600F03EFD09E0C4
:100CC000A0F500504A461F38002303A90390684648
:100CD00000F048FD8DE807000004000C03D04FF041
:100CE000FF30410800E01046B8F1000F03D00022A9
:100CF000009215461EE0751E05D4FFF722FF303224
:100D000062556D1EF9D5B3460122084302D0002278
:100D10007F1C04E02078302801D100227F1E002AA9
:100D2000099784D01DE0112D07DAFFF70AFF303252
:100D300062556D1C50EA0102F5D1084302D00098BB
:100D4000C8B10EE00021681E05E0235C625C6354BC
:100D50002254401E491C8142F7DBAB46A81B401EB3
:100D60000990002004F80B000B98099AC0F808803D
:100D7000C0E9002B7AE711264FF0000857E72DE96C
:100D8000F04F88460446D21D22F0070191B0D1E908
:100D90000001CDE90A0103F06EFA02460B98C00F7C
:100DA00001D02D2007E02068810701D52B2002E02B
:100DB000202101EAC000032A099001D0072A05DB9F
:100DC00003464146204600F081F90BE12078800679
:100DD00001D5E06900E00620B8F1650F814606D034
:100DE000B8F1660F18D0B8F1670F70D131E000206C
:100DF000B9F1110F009001DB112301E009F10103AA
:100E00000AAA01A90CA8FFF7E2FEDDE90C70002692
:100E100009F10105834647E001204B4600904FF061
:100E200000470AAA01A90CA8FFF7D1FEDDE90DB021
:100E30000C995D46002610B909F101000D18B9EBB7
:100E4000050003D4C0F1FF3609F10105A5EB090047
:100E50002BE0B9F1010F01DA4FF001090020B9F1DF
:100E6000110F0090484601DD112300E003460AAA55
:100E700001A90CA8FFF7ABFEDDE90C704D4600267A
:100E80008346207800070AD4AB4500DA5D4601A806
:100E9000012D04DD411911F8011C302907D04F45FF
:100EA00002DA17F1040F04DA012082460FE06D1E0A
:100EB000EEE7002F02DCED1B3E4403E0781CA84265
:100EC00000DD7D1CB81B00F1010A4FF000472078BF
:100ED000000703D4AA4501DB4FF0FF3A0021B7F128
:100EE000004F0DF143088DF8431024D002202B232E
:100EF000002F01DA7F422D230A21021EA0F10100FA
:100F000000DC5FB197FBF1FC97FBF1F201FB1C7C6D
:100F100017460CF1300C08F801CDEEE7A8F10100FE
:100F200003702188090501D5452100E06521A0F164
:100F3000010800F8011C09980FA9A1EB0807FF1D83
:100F400000B10120411901EBEA70A1693844081A87
:100F5000401EA0612078C00602D42046FFF710FA98
:100F6000099828B1D4E901219047206A401C2062E9
:100F70002078C00622D52046FFF702FA1EE0002E98
:100F800004DBB34502DD01A8805D00E03020D4E938
:100F900001219047206A401C2062761CAAF10100C2
:100FA0005FEA000A0AD100F08DF8C0680168405C71
:100FB000D4E901219047206A401C2062281EA5F137
:100FC0000105DCDC07E0D4E9012118F8010B9047AA
:100FD000206A401C2062381EA7F10107F3DC20467E
:100FE000FFF7E4F9032011B041E610B5436913B1EE
:100FF000AFF3008001E0FFF7A9FC012010BD1288CB
:1010000000F1240182840022C2840122EDE71168EC
:101010004FF0FF32E9E7007B00F08000704770B5C9
:1010200016460C46054600F045F8036893F80101A2
:10103000012806D0FF2C0FD8185D68B101202C7054
:1010400070BDD3F807013246214603F2071303446B
:101050002846BDE8704018474FF0FF3070BD0000D3
:1010600000487047A80400207546FFF7F9FFAE4618
:1010700005006946534620F00700854618B020B5A4
:10108000FFF736F9BDE820404FF000064FF00007AB
:101090004FF000084FF0000B21F00701AC46ACE820
:1010A000C009ACE8C009ACE8C009ACE8C0098D468D
:1010B0007047000010B500F005F8001D10BD00BF1E
:1010C000F936000000487047C80400202DE9F041BF
:1010D0001F46044603260168072A01F4006004DB6A
:1010E00008B116A505E016A503E008B115A500E0B6
:1010F00015A521F010002060A069C01EA0610FB1ED
:10110000401EA0612046FFF73BF94FB1D4E9012111
:1011100038469047206A401C2062C01C206206E0CE
:10112000206AFAE7D4E9012115F8010B9047761EF1
:10113000F8D22046FFF73AF9BDE8F0814E414E0063
:101140006E616E00494E4600696E66002DE9F047FB
:10115000814616468AB0354878440DC88DE80D00A2
:1011600032487844801C03AC0DC884E80D0041F679
:101170009B300844372190FBF1F290FBF1F5A5F18B
:10118000800501FB12041B3C02D56442012000E0F3
:101190000020DFF898A080460027FA44AAF1BE0A92
:1011A0000EE0E0070AD03246684607EB470101230C
:1011B0000AEB810100F0D6FA8DE8070064107F1C6D
:1011C000002CEED1194F7F44AE3F19E0E80715D04F
:1011D00007EB04100DF1180A90E80E008AE80E00E3
:1011E000C068F04201D1981908903246012306A93F
:1011F00003A800F0B7FA03AB83E807006D10641C86
:10120000002DE3D14FF0010332466946B8F1000FDB
:1012100003A802D000F091FA01E000F0A3FAC9E9B6
:101220000001C9F808200AB0BDE8F087D0B102007B
:1012300010B50446AFF300802046BDE81040FFF72C
:1012400042B85FEA400C08BF91F0000F4FEA8C23D0
:101250004FEAC12243EA51514FEA1C5018BF00F532
:10126000F0404FEA300018BF41F000415FEA6C5C8B
:1012700000F02980BCF1FF3F08BF40F0804070477C
:10128000130C06BF12044FF0100C4FF0000C130E9D
:1012900004BF12020CF1080C130F04BF12010CF171
:1012A000040C930F04BF92000CF1020CD30F04BF87
:1012B00052000CF1010C11464FF00002A0F11F008A
:1012C000A0EB0C00704711F0004F08BF704731F0E1
:1012D00000413FF4D5AF0B0C06BF09044FF0100CD2
:1012E0004FF0000C0B0E04BF09020CF1080C0B0FA1
:1012F00004BF09010CF1040C8B0F04BF89000CF131
:10130000020CCB0F04BF49000CF1010CCCF12003FF
:10131000A0EB0C0022FA03F302FA0CF241EA0301FB
:1013200000F10100704720F07F4C80EA030023F0B9
:101330007F47ACEB070303F57C5300F0004003F15B
:10134000FF032DE980494FEA154B09B44FEA1443D6
:1013500025EA0B4E24EA03480FF2042606EB132776
:1013600049083E785FEA320203FB0667C7F50007CB
:1013700007FB06F64FEA54374FEAD64606F1020657
:1013800007FB066CCCF1005C4FEA1C472CEA074CCB
:1013900007FB06F40CFB06F504EB15464FEA961620
:1013A00034BF00204FF000404FEAD13706FB07FC66
:1013B0004FEA1C4C0CFB0BF7D21B03FB0CF761EB49
:1013C00007010CFB0EF7B0EB074072EB17420CFB6A
:1013D00008F734BFA2EB0742B2EB074261EB1741BB
:1013E0004FEA0C444FEA910706FB07FC4FEA1C4CFE
:1013F0000CFB0BF7B0EBC74072EB573203FB0CF75B
:1014000034BFA2EBC742B2EBC74261EB57310CFBD2
:101410000EF7B0EBC70072EB57720CFB08F734BF46
:10142000A2EBC702B2EBC70261EB5771039F4FEA11
:10143000816141EA921104EBCC044FEAD1374FEAC3
:10144000826206FB07FC42EA90124FEA80604FEA94
:101450001C4C0CFB0BF7D21B03FB0CF761EB0701D9
:101460000CFB0EF7B0EB074072EB17420CFB08F7D2
:1014700034BFA2EB0742B2EB074261EB17414FEAE0
:101480008C554FEA910704EB9C2406FB07FC4FEABE
:101490001C4C0CFB0BF7B0EBC74072EB573203FB55
:1014A0000CF734BFA2EBC742B2EBC74261EB573136
:1014B0000CFB0EF7B0EBC70072EB57720CFB08F792
:1014C00034BFA2EBC702B2EBC70261EB577115EB59
:1014D0004C254FEA816141EA92114FEA82624FEA5C
:1014E000D13742EA901206FB07FC44F100044FEAB0
:1014F00080604FEA1C4C0CFB0BF7D21B03FB0CF774
:1015000061EB07010CFB0EF7B0EB074072EB1742E3
:101510000CFB08F734BFA2EB0742B2EB074261EBCA
:10152000174115EB1C154FEA813141EA92414FEA10
:10153000823242EA90424FEA80304FEA0C7644F120
:10154000000448EA03434EEA0B484FF0000EB2EBAA
:10155000080C71EB030724BF624639464EEB0E0EB2
:101560004FF0000B0018524149414BEB0B0BB2EB13
:10157000080C71EB03077BF1000B24BF6246394670
:101580004EEB0E0E4FF0000B0018524149414BEB51
:101590000B0BB2EB080C71EB03077BF1000B24BFC4
:1015A000624639464EEB0E0E51EA020718BF46F06E
:1015B000010616EB0E7655F1000254F1000103D539
:1015C000BDE88901BDE80088BDE88901BDE80048A3
:1015D000B619524141EB0101A3F10103704780802C
:1015E0007F7E7D7C7B7A797877767675747372717D
:1015F00071706F6E6E6D6C6C6B6A6A696868676635
:1016000066656464636362616160605F5F5E5E5DC6
:101610005D5C5C5B5B5A5A5959585857575656553A
:1016200055555454535352525251515050504F4F9C
:101630004F4E4E4D4D4D4C4C4C4B4B4B4A4A4A49EC
:10164000494948484847474747464646454545442F
:101650004444444343434342424242414141002BBC
:101660009C4630D477002BD01CB54FEA370703B423
:101670004FF010004FF01001BAF1000F06D0BCF18E
:10168000000FDCBF40F0080040F008014FF0000000
:101690000FBCBDE810400BF1010BBBF1010F08BFFF
:1016A0005FEA170722BF12F1010211F101014FF0A9
:1016B000004143F1000300F0004043EA000070479E
:1016C000F9D35708D0E746EA064613F1400F4FEA30
:1016D00016461FDD13F1200FDFBF16430A46002117
:1016E00020335B42BED0C3F1200746EA064602FA29
:1016F00007F74FEA164646EA0706C3F1200722FA23
:1017000003F201FA07F721FA03F14FF0000342EA6E
:101710000702A7E746EA020646EA06464FEA1646E9
:1017200046EA0106BCBF46EA0646360C4FF0000307
:101730004FF000024FF0000194E72DE9804C9A46EB
:10174000934670B491E8380007C831EA400C48BFAE
:1017500034EA430C03D5FFF7E6FDFFF780FFF0BC4A
:10176000BDE8008C2DE9804C9A46934670B491E810
:10177000380007C810F0804F08BF13F0804F03D126
:1017800000F005F8FFF76BFFF0BCBDE8008C20F01F
:101790007F4780EA030023F07F4C07EB0C03A3F59F
:1017A0007C5300F00040A3F1FE0392F0000F00F024
:1017B000B38095F0000F00F077802DE901494FEAE2
:1017C00011404FEA144621EA004800FB06FC24EAD7
:1017D000064708FB06F607FB08F800FB07F718EBBF
:1017E00006484CEB164C4FEA124B18EB07484FEAF1
:1017F00015464CEB174022EA0B4E0BFB06FC25EA84
:1018000006470EFB06F607FB0EFE0BFB07F71EEB6B
:10181000064E4CEB164C4FF000061EEB074E4CEB01
:10182000174B18EB0B0840F1000018EB0E0B58EBB0
:10183000000840F100008F1A4FF000013CBFC9437F
:10184000661B14BFB5EB040C00213CBFC943F61B5B
:101850004FEA17444EEA8E0E27EA04454FEA1C472A
:1018600004FB07622CEA074C05FB07F70CFB05F6A7
:1018700004FB0CFC16EB074642EB174216EB0C463A
:1018800042EB1C421BEB060658EB0202414146EAC2
:101890009E0601D5BDE80189B619524141EB01010F
:1018A000A3F10103BDE801894FEA14454FEA11474E
:1018B00024EA054621EA074C05FB07F406FB07F777
:1018C0000CFB06F105FB0CFC11EB074144EB174444
:1018D0004FEA124711EB0C4144EB1C4422EA074C3F
:1018E00005FB07F206FB07F70CFB06F605FB0CFCF5
:1018F00016EB074642EB174216EB0C4642EB1C4533
:101900006A1854F1000148BF7047B619524141EBC3
:101910000101A3F10103704795F0000F37D04FEAA2
:1019200011424FEA144721EA024624EA074C02FB1F
:1019300007F106FB07F70CFB06F402FB0CFC14EBAB
:10194000074441EB17414FEA154714EB0C4441EBB8
:101950001C4125EA074C02FB07F506FB07F70CFBC9
:1019600006F602FB0CFC16EB074645EB174516EB9B
:101970000C4645EB1C42121951F1000148BF70475B
:10198000B619524141EB0101A3F1010370474FEA3F
:1019900014454FEA114724EA054621EA074C05FBA6
:1019A00007F106FB07F70CFB06F24FF0000605FBFC
:1019B0000CFC12EB074241EB174112EB0C4251EBCE
:1019C0001C4148BF7047921841EB0101A3F101038C
:1019D000704700BFFEE7000070B5044605E01648FA
:1019E000056805F0450000B100E0F8E700BF0420FD
:1019F00001F0E6FF20B1042001F0DCFF032070BD00
:101A0000012001F0DDFF20B1012001F0D3FF012012
:101A1000F5E7094824380068A04201D01020EEE71D
:101A200040F2FF5001F0C6FF03482038006808214B
:101A30000840C0B2E3E70000342C014008B54EF680
:101A40007D7001F0FFF83BA31F221021182000F049
:101A50007BFA4FF4784000903A484088401F83B2A8
:101A600038480088401F82B20521084601F064FA18
:101A70004FF6E070009033484088143883B2314804
:101A80000088143882B21421084601F055FA1F204C
:101A900000902C484088323883B22A480088323877
:101AA00082B23221084601F047FA4FF61F0000903B
:101AB00024484088503883B222480088503882B287
:101AC0006421502001F038FA4FF47A7002F012FCD1
:101AD0004FF6FF7001F0B6F800F076FA4FF4FA70A6
:101AE00002F008FC002001F0ADF84FF4FA7002F0AB
:101AF00001FC4FF4784001F0A5F84FF4FA7002F0C1
:101B0000F9FB4FF6E07001F09DF84FF4FA7002F027
:101B1000F1FB4FF4FC6001F095F84FF4FA7002F01D
:101B2000E9FB1F2001F08EF84FF4FA7002F0E2FB9F
:101B300008BD0000313A20D1D5C9ABCCEEB3E4B238
:101B4000E2CAD400440000202DE9F04180460D4651
:101B500016461F46002419E004EB04100D4911F845
:101B60001000B04210D104EB041001EB40004078AB
:101B7000B84209D104EB04100A4602EB4000811C74
:101B80002A46404600F036F8601C84B2382CE3DB6D
:101B9000BDE8F081B25F00082DE9F04180460D46B6
:101BA00016461F4600241FE004EB840000EB44109F
:101BB0000F4911F81000B04214D104EB840000EB7F
:101BC000441001EB40004078B8420BD104EB840094
:101BD00000EB44100A4602EB4000811C2A464046B6
:101BE00000F008F8601C84B2092CDDDBBDE8F08150
:101BF0008867000810B5002304E011F8014B00F8D5
:101C0000014B5B1C9342F8D310BD704710B54EF6E4
:101C10007D7001F017F826A34FF61F020421102053
:101C200000F0B2F927A34FF61F022021302000F068
:101C3000ABF95823E0224021102000F07BF824A3C8
:101C40001F224421302000F07FF98023E022682108
:101C5000102000F06FF822A31F226C21302000F02A
:101C600073F9A823E0229021102000F063F820A34C
:101C70001F229421302000F067F921A34FF478420D
:101C8000B421102000F060F923A34FF47842C4215E
:101C9000102000F059F94FF4FA6002F02BFBFFF727
:101CA000CDFE00F0BBFA00F0ABFB02F033F810BD44
:101CB00044657645426F782DB4F3D4BDB4B4D0C238
:101CC00000000000D2BABEA7C6C1B2E2CAD400006A
:101CD000313A20D1D5C9ABCCEEB3E4B2E2CAD400DC
:101CE000323A20CEC4D7D6CFD4CABEB2E2CAD400CC
:101CF000333A20CDBCC6ACCFD4CABEB2E2CAD400FF
:101D0000463A206D63756465762E74616F62616F0B
:101D10002E636F6D00000000463A2073686F7033C9
:101D200038393935373239302E74616F62616F2E30
:101D3000636F6D00F8B506460F4614461D464FF614
:101D4000FF703B46224639460090304600F0FAFFCD
:101D50004FF6FF702B46324639460090304600F071
:101D6000F1FF48F210406A1E93B291B2721C0090CB
:101D700090B2224600F0E6FF44F208202B462246AD
:101D800029460090304600F0DDFF48F21040631E07
:101D90009AB27B1C99B2631E009098B22B4600F059
:101DA000D1FF44F208202B462246394600902046B7
:101DB00000F0C8FFF8BD00002DE9F04385B00446EF
:101DC0000D4617461E460E480088001B1FFA80F875
:101DD0000B484088401B1FFA80F9002009490988F8
:101DE00030224B46CDE901270096CDE9031042464B
:101DF0002946204600F0BBFD05B0BDE8F083000099
:101E000044000020040000202DE9F04385B0044682
:101E10000D4617461E460E480088001B1FFA80F824
:101E20000B484088401B1FFA80F9002009490988A7
:101E300040224B46CDE901270096CDE903104246EA
:101E40002946204600F093FD05B0BDE8F083000070
:101E500044000020040000202DE9F04385B0044632
:101E60000D4617461E460E480088001B1FFA80F8D4
:101E70000B484088401B1FFA80F900200949098857
:101E80000C224B46CDE901270096CDE903104246CE
:101E90002946204600F06BFD05B0BDE8F083000048
:101EA00044000020040000202DE9F04385B00446E2
:101EB0000D4617461E460E480088001B1FFA80F884
:101EC0000B484088401B1FFA80F900200949098807
:101ED00010224B46CDE901270096CDE9031042467A
:101EE0002946204600F043FD05B0BDE8F083000020
:101EF00044000020040000202DE9F04385B0044692
:101F00000D4617461E460E480088001B1FFA80F833
:101F10000B484088401B1FFA80F9002009490988B6
:101F200020224B46CDE901270096CDE90310424619
:101F30002946204600F01BFD05B0BDE8F0830000F7
:101F400044000020040000202DE9FF4704460D4610
:101F500016461F460B480088001B1FFA80F80948E8
:101F60004088401B1FFA80F9002010214B46424652
:101F7000CDE90071CDE902602946204601F010FF4D
:101F8000BDE8FF87440000202DE9FF4704460D46C9
:101F900016461F460B480088001B1FFA80F80948A8
:101FA0004088401B1FFA80F9002018214B4642460A
:101FB000CDE90071CDE902602946204601F0F0FE2E
:101FC000BDE8FF874400002008B54FF6FF7000F021
:101FD00039FE4FF478408023DC2240210090142009
:101FE00000F0B0FE4FF478404023DC2280210090C6
:101FF000142000F0A7FE1F208023DC224021009047
:10200000142000F0F5FE4FF61F03512260217820C6
:1020100000F013FF4FF61F0350226021782000F0DC
:102020000CFF4FF61F034F226021782000F005FFC0
:102030004FF47A7002F05EF908BD000051B18200E1
:10204000A2F1C042126842F001038200A2F1C04234
:10205000136009E08200A2F1C0421268034B1A40EB
:102060008300A3F1C0431A6070470000FEFF0F0019
:10207000D0E901121143C268114302691143426958
:10208000114382691143C2691143026A1143426AD2
:102090001143826A1143C26A1143026B1143026801
:1020A0009200A2F1C0421160816808290BD1016839
:1020B0008900A1F1C041096841F04002016889002E
:1020C000A1F1C0410A60416B0968426B526841EA64
:1020D0000211426B926841EA0221426B928941EA05
:1020E0000241426B128A41EA0251426B127D41EA7F
:1020F0000261426B926911430268521C9200A2F184
:10210000C0421160C16AB1F5804F1BD1816B096873
:10211000826B526841EA0211826B926841EA0221A5
:10212000826B128A41EA0251826B127D41EA02619E
:10213000826B9269114302689200A2F1C042C2F818
:10214000041107E06FF0704201688900A1F1C041FD
:10215000C1F80421704700002DE9F04106460C4605
:1021600017464FF40051144800F02BFD052000F0F5
:10217000A5FC032000F022F8C4F3074000F01EF88D
:10218000C4F3072000F01AF8E0B200F017F80025B9
:1021900005E0FF2000F012F87055681C85B2BD42C2
:1021A000F7DB4FF40051044800F009FD052000F072
:1021B00085FCBDE8F08100000008024070B50446CF
:1021C00000251EE004F08000802804D101011148A0
:1021D00000F0F7FC04E04FF400610E4800F0EFFC63
:1021E00001210D4800F0EBFC6006040E04210A48B2
:1021F00000F0DCFC04430121074800F0E2FC681C0D
:10220000C5B2082DDEDB0121034800F0DAFC2046D0
:1022100070BD0000001402400004024010B54EF6EC
:102220007D7000F00FFD28A31F2210211820FFF75A
:102230008BFE4FF47A7002F05DF84EF67D7000F080
:1022400001FD25A3002204211020FFF79DFE27A3F6
:10225000002220213020FFF797FE27A300225021E3
:102260001820FFF771FE28A34FF4FC6260211820AC
:10227000FFF76AFE27A31F2270211820FFF764FED4
:1022800028A34FF4784280211820FFF75DFE29A390
:102290001F2290211020FFF757FE2CA31F22A02100
:1022A0001020FFF751FE304B4FF47842B021102040
:1022B000FFF74AFE40F6B83002F01CF84EF67D708B
:1022C00000F0C0FC10BD0000323A20CEC4D7D6CFFB
:1022D000D4CABEB2E2CAD40044657645426F782DB6
:1022E000B4F3D4BDB4B4D0C200000000D2BABEA7CB
:1022F000C6C1B2E2CAD40000C7B6C8EBCABDBFAA05
:10230000B7A2CDF800000000D6D0CEC4B2E2CAD445
:1023100000000000D7A8D7A2D2BABEA7C5FAB7A2BC
:1023200000000000C8ABB3CCBCBCCAF5D6A7B3D67E
:1023300000000000463A206D63756465762E746176
:102340006F62616F2E636F6D00000000463A20736C
:10235000686F703338393935373239302E74616FE0
:1023600062616F2E636F6D0044C302082DE9F04770
:102370000746884691461C463E78B9F1200F1ED08C
:1023800009DCB9F10C0F0DD0B9F1100F0FD0B9F174
:10239000180F20D10FE0B9F1300F14D0B9F1400F70
:1023A00019D114E006FB04F000F5002515E00F48F4
:1023B00006FB040511E00E4806FB04050DE00D4880
:1023C00006FB040509E00C4806FB040505E00B4884
:1023D00006FB040501E0BDE8F08700BF2246294660
:1023E0004046FFF7B9FE00BFF5E70000000808000F
:1023F00000120800002608000048080000920800AB
:1024000000B585B04FF6FF7000F01CFC4CA31F22F6
:1024100010211820FFF748FD4FF47A7001F06AFF91
:102420004FF6FF7000F00EFC00204FF6FF711F22E8
:102430002023CDE90132CDE9031047A0F02200218D
:102440000090182000F093FA00204FF6FF711F2231
:102450001023CDE90132CDE9031043A0F022282159
:102460000090184600F083FA00204FF6FF711F22FB
:102470001023CDE90132CDE903103FA0F02238212D
:102480000090184600F073FA41A31F224821102043
:10249000FFF7E2FC43A04FF6FF711F22C823CDE9EE
:1024A000002102900C226021102000F0C9FA0020C7
:1024B0004FF6FF711F220C23CDE90132CDE9031045
:1024C0003FA0F02278210090102000F050FA002068
:1024D0004FF6FF711F221023CDE90132CDE9031021
:1024E0003CA0F02288210090184600F040FA00201D
:1024F0004FF6FF711F221823CDE90132CDE90310F9
:1025000038A0F0229C210090102000F030FA38A36F
:102510001F22B8211020FFF7EFFC38A31F22DC2177
:102520001020FFF749FC36A31F22DC217820FFF79B
:102530006BFC40F6B83001F0DDFE05B000BD0000D8
:10254000323A2047424BD7D6BFE22D2DCFD4CABE58
:10255000B2E2CAD400000000CAAED6D6D7D6BFE2D7
:10256000B2E2CAD400000000C9E8BCC6A3BAB4F302
:10257000D4BDB5E7D7D3000046726F6D3A206D63C6
:10258000756465762E74616F62616F2E636F6D0086
:10259000446174653A20323031392F30352F30386C
:1025A00000000000BED3D6D0CFD4CABEBAAFCAFD99
:1025B0003A20323031392F30352F303800000000CA
:1025C000BABAD7D631327831322D47424BD7D6BF3F
:1025D000E2A3BA00BABAD7D63136783136D7D6BFE9
:1025E000E2A3BA003234783234D7D6BFE2A3BA00BD
:1025F0003332783332D7D6BFE2A3BA003438000082
:10260000363400002DE9FF5F82460F4698469AF85F
:1026100000900AF1010082460478B9F1810F06DBCF
:10262000402C04DBFF2C02D0B9F1FF0F0DD14FF08D
:10263000000B06E0002007F8010B0BF101001FFA68
:1026400080FBC345F6DBBDE8FF9F7F2C03DAA4F1D6
:102650004000C4B202E0A4F14100C4B2A9F181007B
:1026600000F0FF09BE2010FB094000FB08F50298AE
:102670000C2806D0102807D0182808D020280CD104
:1026800008E00A482E1809E009482E1806E005F56A
:10269000ED1603E005F5601600E0D4E700BF424602
:1026A00031463846FFF758FD00BFCCE7001409005B
:1026B00000DD11001CB50121262001F0C7F806201D
:1026C000009000208DF804008DF8060003208DF89E
:1026D000050001208DF807006946134800F0FBF95A
:1026E000012000908DF8040069460F4800F0F3F9CE
:1026F0004FF40050009001208DF8040069460B480B
:1027000000F0E9F94FF40060009001208DF804001A
:102710006946074800F0DFF90121034800F051FA4B
:1027200000F008F81CBD0000000402400008024050
:102730000014024010B586B04FF6FF7000F082FA28
:10274000002404E000200DF80400601CC4B2182C22
:10275000F8DB112200216846FFF7FEFC6B464FF4C0
:10276000784210210846FFF79FFB002404E0002078
:102770000DF80400601CC4B2182CF8DB08221421E8
:102780006846FFF7E9FC6B464FF4784220211020A1
:10279000FFF78AFB002404E000200DF80400601C11
:1027A000C4B2182CF8DB08221E216846FFF7D4FCBF
:1027B0006B464FF4784230211020FFF775FB4FF441
:1027C000FA7001F097FD06B010BD2DE9FF4FC1B0C2
:1027D00080460D461C46AB462046E31704EB537378
:1027E000DB1021464FEAE47C04EB5C7C4FEAEC0C06
:1027F000A4EBCC0CBCF1000F02D04FF0010C01E0B7
:102800004FF0000C6344224604EBD27C4FEA6C0C80
:1028100003FB0CF39FB20C2C0CD0102C0AD0182CFC
:1028200008D0202C06D0302C04D0402C02D045B04B
:10283000BDE8F08F3B46224601A94398FFF796FD7D
:1028400000262FE001A810F806904FF0000A23E0C0
:1028500009F0800028B1294640464E9A00F042FB1C
:1028600006E0509820B9294640464F9A00F03AFBBE
:102870004FEA49604FEA1069681C85B2A5EB0B006E
:10288000A04205D15D4608F101001FFA80F806E07C
:102890000AF101001FFA80FABAF1080FD8DB00BF75
:1028A000701C86B2BE42CDDB00BFC0E72DE9FF4FF2
:1028B000A1B080460D461C46AB462046E21704EB0D
:1028C0005272D2102146E31704EB5373DB10A4EBD2
:1028D000C3030BB1012300E000231A44624397B203
:1028E0000C2C08D0102C06D0182C04D0202C02D090
:1028F00025B0BDE8F08F3B46224601A92398FFF79B
:1029000081FE00262FE001A810F806904FF0000A83
:1029100023E009F0800028B1294640462E9A00F0B5
:10292000E1FA06E0309820B9294640462F9A00F097
:10293000D9FA4FEA49604FEA1069681C85B2A5EBE5
:102940000B00A04205D15D4608F101001FFA80F896
:1029500006E00AF1010000F0FF0ABAF1080FD8DB27
:1029600000BF701CC6B2BE42CDDB00BFC0E72DE980
:10297000F04F85B007460D4691469A46DDE90F4B6C
:102980000E9EB84604950020039052E0039888BB41
:102990003078802802DD012003904AE004EBD471F6
:1029A00008EB0902A2EB6101B94202DA281985B2EB
:1029B000474604985044001BA84200DA3CE03078B7
:1029C0000D2804D1281985B24746761C0AE0DDE9B6
:1029D000111023463246CDE900B10290294638460F
:1029E000FFF7F3FE761C204604EBD07107EB610184
:1029F0008FB21EE0FFE70020039008EB0900001BE8
:102A0000B84202DA281985B2474604985044001BA0
:102A1000A84200DA10E0DDE9110123463246CDE993
:102A200000B0029129463846FFF740FFB61C38191E
:102A300087B230780028A9D100BF05B0BDE8F08F7B
:102A40002DE9F04F85B080468B4614461E46DDE9E1
:102A50000E9A109F00253846FDF7F0FD85B22046FE
:102A600004EBD071491069438DB2B5420DDD0120F0
:102A7000CDE9029ACDE9007404900F48438802889A
:102A800059464046FFF773FF13E0701B00EBD0710F
:102A9000C1F34F0501200849CDE9029ACDE9007440
:102AA00004904B880A8805EB080188B25946FFF765
:102AB0005EFF05B0BDE8F08F44000020002107E074
:102AC000002201E0531CDAB2642AFBDB4B1CD9B2B2
:102AD0008142F5DB7047F0B50A460021002300244F
:102AE00000BF3DE0012505FA01F3156805EA03047E
:102AF0009C4234D105684F000326BE40B5430560B3
:102B000015794E00B5400668354305601579012DED
:102B100002D01579022D16D185684F000326BE40DC
:102B2000B543856055794E00B5408668354385606C
:102B3000456801268E40B5434560456896798E40CC
:102B4000B6B235434560C5684F000326BE40B54365
:102B5000C560D5794E00B540C6683543C560491C8F
:102B60001029BFD3F0BDF0B5002300244D07ED0EB2
:102B700002FA05F3CE1000F1200555F826504E0755
:102B8000F70E0F26BE40B543CF1000F1200646F8E1
:102B90002750CE1000F1200555F8265045EA0304D1
:102BA000CE1000F1200545F82640F0BD0246002079
:102BB00013690B400BB1012000E0002070474183F6
:102BC0007047018370472DE9F04705460C46904653
:102BD0009A4695F80090681C05460778B9F1810F70
:102BE00006DB402F04DBFF2F02D0B9F1FF0F0AD123
:102BF000002604E0002004F8010B701CC6B2464514
:102C0000F8DBBDE8F087BAF10C0F06D0BAF1100F6F
:102C100004D0BAF1180F0FD107E00DE03B464A4649
:102C200041462046FEF790FF06E03B464A464146B5
:102C30002046FEF7B1FF00BF00BF00BFE1E700BFC5
:102C4000FEE7000070B5044600250D484388028861
:102C50000021084600F0AAFC094800880849498874
:102C600000FB01F60021084600F080FC00F06EFD3C
:102C700000BF02E0034804806D1CB542FAD370BD6A
:102C8000440000208000006C30B505467DB900206E
:102C90002B498871F02008804FF4A07048802C20C8
:102CA00008812A2048812B208881002444E0012DBE
:102CB0000FD1002022498871F02008804FF4A070C5
:102CC00048802C2008812A2048812B2088810324D9
:102CD00032E0022D0FD10120194988714FF4A07004
:102CE0000880F02048802C2008812A2048812B2051
:102CF0008881052420E0032D0FD10120104988711F
:102D00004FF4A0700880F02048802C2008812A20F1
:102D100048812B20888106240EE000200849887114
:102D2000F02008804FF4A07048802C2008812A20D1
:102D300048812B2088810024204600F0B7FB30BD5D
:102D4000440000202DE9FF4F84B081468A460020D0
:102D5000029083460698A0EB09050798A0EB0A06A7
:102D6000CDF80490CDF800A0002D01DD012705E08D
:102D70000DB9002702E04FF0FF376D42002E02DD53
:102D80004FF0010806E016B94FF0000802E04FF0DE
:102D9000FF387642B54201DD2C4600E03446002083
:102DA00003901EE0009A91B2019A90B2119A00F03D
:102DB00099F8029828440290B3440298A04205DD95
:102DC0000298001B0290019838440190A34504DD4D
:102DD000ABEB040B0098404400900398401C80B279
:102DE0000390611C03988842DCDD08B0BDE8F08FD9
:102DF0002DE9F84105460E4617469846079C33468E
:102E00003A46314628460094FFF79CFF43462A463F
:102E1000314628460094FFF795FF43463A4641461F
:102E200028460094FFF78EFF43463A46314638461F
:102E30000094FFF787FFBDE8F8812DE9F0470646CB
:102E40000F4690469A46002445460320A0EB4809C9
:102E500044E07A1B91B2321990B2524600F042F827
:102E60003A1B91B2721990B2524600F03BF83A19EF
:102E700091B2721990B2524600F034F87A1991B2B8
:102E8000321990B2524600F02DF87A1991B2321BE5
:102E900090B2524600F026F83A1991B2721B90B2E5
:102EA000524600F01FF87A1B91B2321B90B2524684
:102EB00000F018F83A1B91B2721B90B2524600F023
:102EC00011F8641CB9F1000F03DAA000801D8144E1
:102ED00004E0601B80000A3081446D1EAC42B8DD06
:102EE000BDE8F08710B503460C461148808849F2CA
:102EF000413188421BD10E49488900F021FC18124B
:102F000000F018FCD8B200F015FC0949888900F0DF
:102F100017FC201200F00EFCE0B200F00BFC04489D
:102F20000089044908804FF0D840A0F8802010BDE7
:102F3000440000207E00006C2DE9F04F05460E464F
:102F400017469846DDF824A04FF0000B781B401C74
:102F50001FFA80FB344614E02146284600F006FBA9
:102F600000F0F4FB4FF0000907E04FF0D840A0F864
:102F700080A009F101001FFA80F9D945F5DB601C3A
:102F800084B24445E8DDBDE8F08F000000B59FB095
:102F900001217A2000F05AFC0121084600F066FC6D
:102FA0004FF400401D9001208DF8780000208DF82E
:102FB0007A0002208DF8790001208DF87B001DA990
:102FC000FE48FFF788FD4CF233701D9002208DF80B
:102FD000780000208DF87A0003208DF87900012018
:102FE0008DF87B001DA9F648FFF775FD4FF6807040
:102FF0001D9002208DF8780000208DF87A000320C3
:103000008DF8790001208DF87B001DA9ED48FFF7B0
:1030100062FD4FF480501D9002208DF87800002052
:103020008DF87A0003208DF8790001208DF87B005F
:103030001DA9E548FFF74FFD4FF480501D90022079
:103040008DF8780000208DF87A0003208DF8790043
:1030500001208DF87B001DA9DC48FFF73CFD0C2208
:103060000021D748FFF77FFD0C220121D448FFF74C
:103070007AFD0C220421D248FFF775FD0C220521B0
:10308000CF48FFF770FD0C220821CD48FFF76BFDFC
:103090000C220921CA48FFF766FD0C220A21C84804
:1030A000FFF761FD0C220E21C548FFF75CFD0C22E5
:1030B0000F21C348FFF757FD0C220721C148FFF736
:1030C00052FD0C220821BF48FFF74DFD0C220921BB
:1030D000BC48FFF748FD0C220A21BA48FFF743FD20
:1030E0000C220B21B748FFF73EFD0C221146B548D4
:1030F000FFF739FD0C220D21B248FFF734FD0C22F9
:103100000E21B048FFF72FFD0C220F21AD48FFF72D
:103110002AFD0C221146AC48FFF725FD0C22114672
:10312000AA48FFF720FD0F200790002008901820E4
:10313000099000200A900B900C900D9008200090B0
:103140000020019008200290002003900490059038
:10315000069006200E9000200F90109010201190E5
:103160000020129014901390159016904FF48050F8
:103170001790002018904FF48040199000201A906A
:1031800007A81B90CDF870D00EA8FEF771FF0121A3
:103190000620FEF753FF322001F0ACF8002000F0CB
:1031A00079F98B49888008468088FF280ADB084621
:1031B00080884FF6FF71884204D085488088B0F53A
:1031C000134F25D1D32000F0BBFA00F059F9804904
:1031D000888000F055F97E49888000F051F97C49DB
:1031E0008880084680884FF6FF7101EA0020784900
:1031F000888000F045F976498988084374498880B9
:103200000846808849F24131884201D01FB000BD94
:103210006F48808849F2413188427CD1CF2000F04C
:103220008FFA002000F086FAC12000F083FA3020E7
:1032300000F080FAED2000F083FA642000F07AFAC2
:10324000032000F077FA122000F074FA812000F0D9
:1032500071FAE82000F074FA852000F06BFA102073
:1032600000F068FA7A2000F065FACB2000F068FAE6
:10327000392000F05FFA2C2000F05CFA002000F00A
:1032800059FA342000F056FA022000F053FAF720E1
:1032900000F056FA202000F04DFAEA2000F050FA33
:1032A000002000F047FA002000F044FAC02000F0AF
:1032B00047FA1B2000F03EFAC12000F041FA01203D
:1032C00000F038FAC52000F03BFA302000F032FA66
:1032D000302000F02FFAC72000F032FAB72000F0BB
:1032E00029FA362000F02CFA482000F023FA3A2080
:1032F00000F026FA552000F01DFAB12000F020FA67
:10330000002000F017FA1A2000F014FAB62000F09E
:1033100017FA0A2000E0A4E000F00CFAA22000F066
:1033200009FAF22000F00CFA002000F003FA26203F
:1033300000F006FA012000F0FDF9E02000F000FAAC
:103340000F2000F0F7F92A2000F0F4F9282000F00F
:10335000F1F9082000F0EEF90E2000F0EBF908205A
:1033600000F0E8F9542000F0E5F9A92000F0E2F9B6
:10337000432000F0DFF90A2000F0DCF90F2000F014
:10338000D9F9002000F0D6F9002000F0D3F9002090
:1033900000F0D0F9002000F0CDF9E12000F0D0F9E4
:1033A000002000F0C7F9152000F0C4F9172000F044
:1033B000C1F9072000F0BEF911200BE00004024023
:1033C000000C0240001002400014024000180240AD
:1033D0004400002000F0AEF9062000F0ABF92B20ED
:1033E00000F0A8F9562000F0A5F93C2000F0A2F961
:1033F000052000F09FF9102000F09CF90F2000F04C
:1034000099F93F2000F096F93F2000F093F90F2042
:1034100000F090F92B2000F093F9002000F08AF9D9
:10342000002000F087F9012000F084F93F2000F02F
:1034300081F92A2000F084F9002000F07BF90020B7
:1034400000F078F9002000F075F9EF2000F072F933
:10345000112000F075F9782000F04CFF292000F0D1
:103460006FF90020FFF710FC0120044908604FF6B7
:10347000FF70FFF7E7FB00BFC8E60000BC824042D8
:1034800008B5034800880090BDF8000008BD0000A2
:103490008000006C10B50446204600F051F905206C
:1034A00000F044FFFFF7ECFF10BD000010B504462C
:1034B00000232D48808849F24131884252D1082C9E
:1034C0001CD2DFE804F00406090C0F12151800BF27
:1034D00014E043F0800311E043F040030EE043F0BA
:1034E000C0030BE043F0200308E043F0600305E075
:1034F00043F0A00302E043F0E00300BF00BF43F04D
:103500000801362000F02CF91749488900F018F915
:10351000002000F00FF9002000F00CF91249098892
:10352000491EC1F30F2000F005F90F490978491E23
:10353000C8B200F0FFF80C49888900F001F90020BA
:1035400000F0F8F8002000F0F5F807494988491E16
:10355000C1F30F2000F0EEF803498978491EC8B284
:1035600000F0E8F810BD00004400002000B502465D
:103570000B460D48808849F24131884213D10A49EF
:10358000488900F0DDF8101200F0D4F8D0B200F055
:10359000D1F80549888900F0D3F8181200F0CAF86C
:1035A000D8B200F0C7F800BD44000020F0B50446D2
:1035B0000D46A018401E86B2E818401E87B2134878
:1035C000808849F2413188421FD11049488900F072
:1035D000B7F8201200F0AEF8E0B200F0ABF830120D
:1035E00000F0A8F8F0B200F0A5F80849888900F0CA
:1035F000A7F8281200F09EF8E8B200F09BF8381205
:1036000000F098F8F8B200F095F8F0BD4400002002
:103610002DE9F84F80460E4617461C46B346204615
:10362000E31704EB5373DB1021464FEAE47C04EB11
:103630005C7C4FEAEC0CA4EBCC0CBCF1000F02D08C
:103640004FF0010C01E04FF0000C6344224604EB04
:10365000D27C4FEA6C0C03FB0CF3DBB20093A7F1B6
:103660002000C7B2002555E00C2C07D107EB47001E
:103670002B4901EB800010F8059013E0102C05D1C8
:10368000284800EB071010F805900BE0182C07D124
:1036900007EBC700244901EB800010F8059001E01A
:1036A000BDE8F88F4FF0000A2EE009F0800028B145
:1036B000314640460A9AFFF715FC07E00B9828B9F7
:1036C0001A48028831464046FFF70CFC4FEA496031
:1036D0004FEA1069701C86B215484088B04200DC81
:1036E000DEE7A6EB0B00A0420AD15E4608F101001E
:1036F0001FFA80F80E480088404500DCD0E706E05D
:103700000AF1010000F0FF0ABAF1080FCDDB00BF9B
:10371000681CC5B200988542A6DB00BFC0E7000068
:10372000F2470008664C00085652000804000020CA
:103730004400002001490880704700008000006CB0
:1037400001490880704700007E00006C0248008933
:103750000249088070470000440000207E00006C91
:10376000034A10804FF0D842A2F880107047000042
:103770007E00006C1CB50121202000F067F84FF49A
:10378000C060009001208DF8040000208DF8060034
:1037900003208DF8050001208DF8070069460448D4
:1037A000FFF799F94FF4C0610148FFF70AFA1CBD11
:1037B0000014024000BFFEE77047000070B5002112
:1037C00000230F22C4781CB3174C246804F4E0646F
:1037D000C4F5E064C4F30721C1F10404E3B20A4173
:1037E00044789C40E1B28478144021430C07210EB8
:1037F0000E4C05786155047804F01F050124AC4097
:1038000005786D11AD0005F1E025C5F8004109E02E
:10381000047804F01F050124AC40054D06787611AC
:1038200045F8264070BD00000CED00E000E400E02B
:1038300080E100E002490143024A11607047000044
:103840000000FA050CED00E07047000029B1064ABF
:1038500012680243044B1A6004E0034A1268824370
:10386000014B1A60704700003038024029B1064A07
:1038700012680243044B1A6004E0034A1268824350
:10388000014B1A60704700003838024029B1064ADF
:1038900012680243044B1A6004E0034A1268824330
:1038A000014B1A60704700004038024029B1064AB7
:1038B00012680243044B1A6004E0034A1268824310
:1038C000014B1A607047000044380240F0B50021F7
:1038D00000220024022500260223324F3F6807F011
:1038E0000C0121B1042905D0082937D105E02E4F5C
:1038F000076036E02D4F076033E02A4F3F1F3F68D7
:10390000C7F38056274F3F1F3F6807F03F036EB154
:10391000264FB7FBF3F7DFF88CC0ACF1040CDCF8F2
:1039200000C0CCF3881C07FB0CF40CE01E4FB7FB67
:10393000F3F7DFF870C0ACF1040CDCF800C0CCF396
:10394000881C07FB0CF4174F3F1F3F68C7F3014764
:103950007F1C7D00B4FBF5F7076002E0124F0760A3
:1039600000BF00BF0F4F3F6807F0F0010909104F7B
:103970007A5C0768D74047600A4F3F6807F4E05118
:10398000890A0B4F7A5C4768D7408760054F3F68CC
:1039900007F46041490B064F7A5C4768D740C7601F
:1039A000F0BD0000083802400024F40000127A0044
:1039B000280000200149086070470000382C0140B1
:1039C00001460020034A12680A400AB1012000E0C3
:1039D00000207047342C014010B500F017F810BDDE
:1039E0000021094B02681A601A1D11686FF30A0161
:1039F000D0E901231A43C3681A4303691A431143E8
:103A0000014A121D11607047082C014010B54FF497
:103A10008070FFF7D5FF78B34C480078012814D1A7
:103A200000204B4908600C2048604020886000203E
:103A3000C8604FF4806008610846FFF7D1FF0C2092
:103A4000FDF7CAFF4349087002E0002041490870B1
:103A50004148006840F480703F490860081D0068D4
:103A60004CF23A3188433C49091D086001203B492A
:103A700008703848007810BDFFE70220FFF7A0FF6C
:103A800078B10220FFF796FF3348001D00684CF222
:103A90003A3188433049091D086002202D490870D9
:103AA000E9E70820FFF78CFF78B10820FFF782FFD5
:103AB0002948001D00684CF23A3188432649091D07
:103AC0000860042023490870D5E72020FFF778FF1D
:103AD00078B12020FFF76EFF1F48001D00684CF2F0
:103AE0003A3188431C49091D0860062019490870AD
:103AF000C1E71020FFF764FF78B11020FFF75AFFED
:103B00001548001D00684CF23A3188431249091DDE
:103B1000086005200F490870ADE74FF40070FFF70B
:103B20004FFF80B14FF40070FFF744FF0A48001DBB
:103B300000684CF23A3188430749091D08600720A4
:103B40000449087097E7002095E700001500002061
:103B50007000002016000020382C014017000020C3
:103B6000704700000CB500200190009034480068B8
:103B700040F480303249086000BF3148006800F4EA
:103B8000003000900198401C0190009818B90198ED
:103B9000B0F5A04FF1D12A48006800F4003010B110
:103BA0000120009001E0002000900098012846D1FB
:103BB00023484030006840F080502149403108607F
:103BC0002048006840F440401E4908601C48083006
:103BD00000681B49083108600846006840F400404E
:103BE00008600846006840F4A05008601648091FA5
:103BF0000860081F006840F08070091F086000BF5F
:103C00000F48006800F000700028F9D040F20570FD
:103C10000E4908600A480830006820F0030008498F
:103C2000083108600846006840F00200086000BFE4
:103C300003480830006800F00C000828F8D10CBDDB
:103C4000003802400070004008544007003C024029
:103C50002DE9F04F93B00546884691461C46AB4689
:103C60002046E21704EB5272D2102146E31704EB10
:103C70005373DB10A4EBC3030BB1012300E000235B
:103C80001A446243D7B20C2C06D0102C04D0182C46
:103C900002D013B0BDE8F08F23463A466946484645
:103CA000FEF791FF00262FE01DF8060012904FF05E
:103CB000000A24E0129800F0800028B1414628460E
:103CC0001C9AFFF70FF907E01D9828B910480288E1
:103CD00041462846FFF706F912984006000E12905A
:103CE000681C85B2A5EB0B00A04204D15D4608F12B
:103CF00001001FFA80F80AF1010000F0FF0ABAF192
:103D0000080FD7DB701CC6B2BE42CDDB00BFC0E7D8
:103D1000040000202DE9F0414FF000084FF6FF703D
:103D2000FEF790FF18A31F2210211820FEF70CF9B0
:103D30004FF47A7000F0DEFA4FF6FF70FEF782FF64
:103D40004FF4A073F02200210846FFF72FFCFFF785
:103D5000FDFC002412E000250DE0404608F10108BA
:103D60000D490E5C404608F101080F5C07EB062088
:103D70000A4908806D1CF02DEFD3641CB4F5A07FB8
:103D8000E9D3BDE8F0810000333A20CDBCC6ACCF0A
:103D9000D4CABEB2E2CAD4006C6A00088000006CCB
:103DA0002DE9FF5F07460E4691469A46DDE90F4B27
:103DB0000E9DB8460396002002904EE0029878BB14
:103DC0002878802802DD0120029046E004EBD471BF
:103DD00008EB0902A2EB6101B94202DA301986B29E
:103DE000474603985044001BB04200DA38E0287878
:103DF0000D2804D1301986B247466D1C08E0119891
:103E0000CDE900B02A78234631463846FFF700FC5A
:103E10006D1C204604EBD07107EB61018FB21CE0F2
:103E2000FFE70020029008EB0900001BB84202DA0D
:103E3000301986B2474603985044001BB04200DA5E
:103E40000EE0119823462A463146CDE900B03846A7
:103E5000FFF7FEFEAD1C381987B228780028ADD1D7
:103E600000BFBDE8FF9F042808D14FF0E021096999
:103E700041F004014FF0E022116107E04FF0E02132
:103E8000096921F004014FF0E02211617047704789
:103E900010B51548006840F47000134908601348D5
:103EA000006840F001001149086000200F49083106
:103EB00008600E4800680E4908400C4908600D482B
:103EC000091D0860081F006820F48020091F086091
:103ED000002006490C310860FFF744FE4FF00060F7
:103EE00001498039086010BD88ED00E000380240CB
:103EF000FFFFF6FE1030002410B540F225510648B1
:103F000000F0F5F838B1044800F0AAF9C4B221462F
:103F100002A000F03FFB10BD004C0040CAD5B5BD6B
:103F2000C1CBD2BBB8F6D7D6B7FB3A2025630D0A72
:103F30000000000010B540F22551064800F0D7F807
:103F400038B1044800F08CF9C4B2214602A000F058
:103F500049FB10BD00500040CAD5B5BDC1CBD2BB96
:103F6000B8F6D7D6B7FB3A2025630D0A000000004B
:103F700010B540F225511D4800F0B9F810B31B48A8
:103F800000F06EF9C4B21A48008800F40040C8B9C5
:103F90001748008800F4804060B10A2C03D000204C
:103FA0001349088020E01248008840F4004010497E
:103FB000088019E00D2C06D10D48008840F480409F
:103FC0000B49088010E00A480088C0F30D00094939
:103FD0000C5407480088401C0549088008460088A2
:103FE000C72801DD0020088010BD0000001001403E
:103FF000240000201803002010B540F225511D4870
:1040000000F075F810B31B4800F02AF9C4B21A4842
:10401000008800F40040C8B91748008800F48040C8
:1040200060B10A2C03D000201349088020E0124818
:10403000008840F400401049088019E00D2C06D19A
:104040000D48008840F480400B49088010E00A4881
:104050000088C0F30D0009490C5407480088401C33
:104060000549088008460088C72801DD002008802F
:1040700010BD00000044004026000020E0030020A6
:1040800010B540F22551064800F031F838B1044827
:1040900000F0E6F8C4B2214602A000F053FA10BDC9
:1040A00000480040CAD5B5BDC1CBD2BBB8F6D7D603
:1040B000B7FB3A2025630D0A0000000021B1828978
:1040C00042F40052828104E082894DF6FF731A4067
:1040D0008281704702460020B1F5007F00D100BF09
:1040E00013880B400BB1012000E00020704770B531
:1040F0000246002400230025002040F66A16B14243
:1041000000D100BFC1F3421501F01F03012606FADA
:1041100003F3012D02D19689334006E0022D02D12E
:10412000168A334001E0968A33400C12012606FAC3
:1041300004F41688344013B10CB1012000E00020D3
:1041400070BDF0B50346002400260025002040F68F
:104150006A17B94200D100BF1846C1F3421401F0FA
:104160001F06012707FA06F5012C01D10C3004E0E7
:10417000022C01D1103000E014301AB107682F432F
:10418000076002E00768AF430760F0BD2DE9FF4715
:1041900005460E460024A14600BFA046B08900B1E6
:1041A00000BF2C8A24F44054F08804432C82AC894C
:1041B00041F20C608443B088318908437189084317
:1041C0000443AC81AC8A24F44074B0890443AC82CB
:1041D0006846FFF77BFB2048854202D01F48854296
:1041E00002D1DDF80C9001E0DDF80890A88900F418
:1041F000004040B109EBC90000EB091031684900EB
:10420000B0FBF1F707E009EBC90000EB09103168DA
:104210008900B0FBF1F76420B7FBF0F0040120093E
:10422000642101FB1078A88900F4004040B13220DD
:1042300000EBC800B0FBF1F000F00700044308E019
:10424000322000EB08106421B0FBF1F000F00F0009
:1042500004432C81BDE8FF87001001400014014099
:1042600001468888C0F308007047C1F308028280C5
:10427000704700BFFEE703B401984100009850EA80
:10428000C12018BF04204A0D18BF40F0010040F2C1
:10429000FF72B2EB515F08BF40F00200012808BF77
:1042A000052002B0704730380A2801D2012070473B
:1042B0000020704700BF704710B504466FF004003F
:1042C000FFF7D1FDE11704EB5171C1F3C701074AB4
:1042D00011701046007800EB4001C1EBC0104FF6A2
:1042E000FF7101EAC0000249088010BD1C000020D7
:1042F0001E00002070B504464FF4077094FBF0F0E8
:10430000C6B24FF4077094FBF0F100FB114085B288
:1043100005E04FF4077000F02FF8701EC6B2002EB3
:10432000F7D115B1284600F027F870BD0146114AB3
:1043300012784A434FF0E0235A6100229A611A46EC
:10434000126942F001021A6100BF4FF0E0221069C9
:1043500000F001021AB100F48032002AF5D04FF0CB
:10436000E022126922F001024FF0E0231A610022DC
:104370009A6170471C0000200146114A12884A4386
:104380004FF0E0235A6100229A611A46126942F006
:1043900001021A6100BF4FF0E022106900F0010233
:1043A0001AB100F48032002AF5D04FF0E0221269F1
:1043B00022F001024FF0E0231A6100229A61704757
:1043C0001E00002000BF054A128802F04002002AA9
:1043D000F9D0C2B2014B9A80704700000010014032
:1043E0004FF4A060FFF726FAA820FFF765FF4FF40F
:1043F000E13000F075F94FF4E13000F01BF9FEF701
:10440000C5FDFFF7B7F94FF4784029490880FEF75A
:1044100051F92848828828A12A48FBF79BFF45E0EC
:10442000FDF7F4FB2848008800F40040D0B126488E
:10443000007826490870264926A0FBF77FFF27A1B0
:104440002348FCF73DF930B926A0FBF777FFC821D8
:104450001F48FCF712F9C8211D48FCF70EF900208F
:10446000194908802148008800F40040D0B11F4855
:104470000078164908701E4916A000F03BF817A1F5
:104480001B48FCF71DF930B916A000F033F8C8211D
:104490001748FCF7F2F8C8211548FCF7EEF80020A1
:1044A000124908804FF47A70FFF724FFB8E7000044
:1044B00002000020440000204C43442049443A2597
:1044C0003034580038000020240000200000002074
:1044D0001803002025730D0A000000004C45445FBE
:1044E0004F4646004F46460D0A00000026000020B9
:1044F000E00300200FB430B58FB013A8019002A8DC
:10450000019A1299FBF708FF0020019002A8FCF71E
:1045100095F8054600240CE000BF80210848FFF70D
:10452000D9FD0028F9D002A8015D0548FFF79DFEDE
:10453000641CAC42F0DB0FB030BC5DF814FB000033
:10454000004400400FB430B58FB013A8019002A80A
:10455000019A1299FBF7E0FE0020019002A8FCF7F7
:104560006DF8054600240CE000BF80210848FFF7E5
:10457000B1FD0028F9D002A8015D0548FFF775FEDE
:10458000641CAC42F0DB0FB030BC5DF814FB0000E3
:10459000004800400FB430B58FB013A8019002A8B6
:1045A000019A1299FBF7B8FE0020019002A8FCF7CF
:1045B00045F8054600240CE000BF80210848FFF7BD
:1045C00089FD0028F9D002A8015D0548FFF74DFEDE
:1045D000641CAC42F0DB0FB030BC5DF814FB000093
:1045E000004C00400FB430B58FB013A8019002A862
:1045F000019A1299FBF790FE0020019002A8FCF7A7
:104600001DF8054600240CE000BF80210848FFF794
:1046100061FD0028F9D002A8015D0548FFF725FEDD
:10462000641CAC42F0DB0FB030BC5DF814FB000042
:104630000050004010B588B0044601214804FFF73F
:1046400025F901210846FFF701F907220221224836
:10465000FEF789FA072203211F48FEF784FA0C208F
:10466000069002208DF81C0003208DF81D0000200C
:104670008DF81E0001208DF81F0006A91648FEF7D0
:104680002AFA26208DF8040003208DF805008DF805
:10469000060001208DF8070001A8FFF78FF80294AB
:1046A0000020ADF80C00ADF80E00ADF81000ADF82C
:1046B00014000C20ADF8120002A90848FFF766FDAF
:1046C000012240F225510548FFF73BFD0121034837
:1046D000FFF7F4FC08B010BD0000024000440040A9
:1046E00010B588B0044601210846FFF7AFF8012154
:1046F0001020FFF7DBF8072209212248FEF733FAE2
:1047000007220A211F48FEF72EFA4FF4C0600690D8
:1047100002208DF81C008DF81D0000208DF81E0071
:1047200001208DF81F0006A91648FEF7D4F902945F
:104730000020ADF80C00ADF80E00ADF81000ADF89B
:1047400014000C20ADF8120002A90F48FFF71EFD5F
:1047500001210D48FFF7B2FC012240F225510A4821
:10476000FFF7EFFC25208DF8040003208DF80500ED
:104770008DF8060001208DF8070001A8FFF71EF84C
:1047800008B010BD000002400010014010B5002923
:104790000AD00878002807D005487844FBF790FF36
:1047A000002801D0002010BD0248784410BD000050
:1047B0000E7C0200067C020010B500290AD00878A1
:1047C000002807D005487844FBF77AFF002801D07D
:1047D000002010BD0248784410BD0000FE7B02009E
:1047E000F67B02004FF04070E1EE100A7047FCF7D4
:1047F000C6BA000000000000000000000000000039
:1048000000003F40000000000000000030004000B9
:1048100030004000000009000BC03D000BC03D000F
:10482000090018C024407FE02240318000001800B9
:1048300024C01B000D803240018003801C402740B3
:104840001C800740004010006000000000000000D5
:1048500000000000000000001F80204040200000F9
:10486000402020401F8000000000090006001F803B
:10487000060009000000040004003F80040004005A
:1048800000000010006000000000000000000400B4
:1048900004000400040004000000000000400000C8
:1048A000000000000000002001C0060038004000A9
:1048B00000001F802040204020401F80000000009A
:1048C00010403FC000400000000018C021402240BE
:1048D00024401840000010802040244024401B80C9
:1048E000000002000D0011003FC0014000003C80AC
:1048F000244024402440238000001F802440244082
:104900003440038000003000200027C03800200021
:1049100000001B802440244024401B8000001C0019
:1049200022C0224022401F800000000000000840FA
:104930000000000000000000000004600000000013
:104940000000000004000A0011002080404009001F
:104950000900090009000900000000004040208013
:1049600011000A0004001800200023402400180051
:1049700000001F802040274029401F4000000040C9
:1049800007C039000F0001C0004020403FC0244054
:1049900024401B8000001F802040204020403080A9
:1049A000000020403FC0204020401F8000002040E9
:1049B0003FC024402E4030C0000020403FC0244073
:1049C0002E00300000000F00108020402240338075
:1049D000020020403FC0040004003FC020402040AF
:1049E00020403FC0204020400000006020202020C8
:1049F0003FC02000200020403FC024400B0030C0BA
:104A0000204020403FC020400040004000C03FC048
:104A10003C0003C03C003FC0000020403FC00C40B1
:104A200023003FC020001F802040204020401F80E6
:104A3000000020403FC024402400180000001F80D8
:104A40002140214020E01FA0000020403FC0244022
:104A5000260019C0004018C0244024402240318064
:104A60000000300020403FC0204030000000200007
:104A70003F80004000403F80200020003E0001C0F9
:104A8000070038002000380007C03C0007C038008D
:104A90000000204039C0060039C02040000020003E
:104AA000384007C0384020000000304021C0264078
:104AB000384020C00000000000007FE0402040207F
:104AC0000000000070000C000380004000000000A7
:104AD000402040207FE00000000000002000400057
:104AE0002000000000000010001000100010001056
:104AF0000010000000004000000000000000000066
:104B000002800540054003C0004020003FC0044033
:104B1000044003800000000003800440044006407D
:104B2000000000000380044024403FC0004000001B
:104B300003800540054003400000000004401FC002
:104B4000244024402000000002E00550055006509B
:104B5000042020403FC00440040003C00040000087
:104B6000044027C0004000000000001000100410A6
:104B700027E00000000020403FC00140070004C0C3
:104B80000440204020403FC000400040000007C0DB
:104B9000040007C0040003C00000044007C0044034
:104BA000040003C000400000038004400440038070
:104BB0000000041007F004500440038000000000CF
:104BC00003800440045007F00010044007C0024076
:104BD000040004000000000006400540054004C039
:104BE0000000000004001F8004400040000004009A
:104BF00007800040044007C000400400070004C0D4
:104C0000018006000400060001C0070001C0060084
:104C10000000044006C0010006C00440000004106B
:104C2000071004E00180060004000000044005C0F5
:104C30000640044000000000000004007BE040202B
:104C40000000000000000000FFF000000000000075
:104C500040207BE004000000000040008000400095
:104C600020002000400000000000000000000000C4
:104C70000000000000000000000000001FCC000C3D
:104C80000000000000000000080030006000080084
:104C9000300060000000022003FC1E20022003FC04
:104CA0001E200220000000000E1811043FFF108497
:104CB0000C78000000000F0010840F3800C0077847
:104CC00018840078000000780F8410C411240E9816
:104CD00000E4008400080800680070000000000084
:104CE00000000000000000000000000007E01818AD
:104CF000200440020000000040022004181807E0D1
:104D00000000000000000240024001800FF001801E
:104D10000240024000000080008000800FF8008008
:104D20000080008000000001000D000E0000000067
:104D30000000000000000000008000800080008073
:104D40000080008000800000000C000C00000000CB
:104D50000000000000000000000600180060018054
:104D6000060018002000000007F0080810041004D6
:104D7000080807F000000000080408041FFC0004F5
:104D800000040000000000000E0C10141024104459
:104D900011840E0C000000000C1810041104110402
:104DA00012880C700000000000E003200424082496
:104DB0001FFC0024000000001F981084110411043F
:104DC000108810700000000007F00888110411041A
:104DD00018880070000000001C00100010FC130078
:104DE0001C001000000000000E38114410841084D4
:104DF00011440E38000000000700088C10441044D5
:104E0000088807F00000000000000000030C030CFD
:104E1000000000000000000000000001010600008A
:104E2000000000000000000000800140022004108B
:104E300008081004000002200220022002200220A4
:104E400002200220000000001004080804100220C4
:104E500001400080000000000E001200100C106CD9
:104E600010800F00000003E00C1813E4142417C492
:104E7000082807D000000004003C03C41C40074081
:104E800000E4001C000410041FFC110411041104B0
:104E90000E880070000003E00C18100410041004C9
:104EA00010081C10000010041FFC10041004100453
:104EB000080807F0000010041FFC1104110417C4B7
:104EC00010040818000010041FFC1104110017C082
:104ED00010000800000003E00C1810041004104437
:104EE0001C780040000010041FFC1084008000802B
:104EF00010841FFC10040000100410041FFC100498
:104F000010040000000000030001100110011FFE4A
:104F100010001000000010041FFC11040380146432
:104F2000181C1004000010041FFC100400040004EE
:104F30000004000C000010041FFC1F0000FC1F00F8
:104F40001FFC1004000010041FFC0C04030000E010
:104F500010181FFC100007F00808100410041004BB
:104F6000080807F0000010041FFC10841080108057
:104F700010800F00000007F0081810241024101CE7
:104F8000080A07F2000010041FFC1104110011C0F0
:104F900011300E0C000400000E1C1104108410844B
:104FA00010441C3800001800100010041FFC1004EE
:104FB00010001800000010001FF810040004000486
:104FC00010041FF8100010001E0011E0001C0070FB
:104FD00013801C0010001FC0103C00E01F0000E008
:104FE000103C1FC000001004180C163401C001C092
:104FF0001634180C100410001C00130400FC1304D9
:105000001C00100000000804101C1064108413041D
:105010001C04101800000000000000007FFE400289
:10502000400240020000000030000C0003800060DD
:10503000001C0003000000004002400240027FFE0E
:1050400000000000000000000000200040004000C0
:1050500040002000000000010001000100010001EB
:10506000000100010001000040004000200000009D
:1050700000000000000000000098012401440144E9
:10508000014400FC000410001FFC0088010401041E
:105090000088007000000000007000880104010416
:1050A0000104008800000000007000880104010471
:1050B00011081FFC0004000000F8014401440144F1
:1050C000014400C800000000010401040FFC1104A9
:1050D000110411001800000000D60129012901293E
:1050E00001C90106000010041FFC0084010001003A
:1050F000010400FC000400000104190419FC000470
:10510000000400000000000000030001010119017B
:1051100019FE0000000010041FFC0024004001B430
:10512000010C010400000000100410041FFC000426
:10513000000400000000010401FC0104010001FC66
:105140000104010000FC010401FC008401000100D5
:10515000010400FC0004000000F801040104010443
:10516000010400F80000010101FF008501040104B1
:105170000088007000000000007000880104010435
:10518000010501FF00010104010401FC0084010488
:10519000010001800000000000CC01240124012452
:1051A00001240198000000000100010007F801043B
:1051B000010400000000010001F8000400040004E4
:1051C000010801FC0004010001800170000C0010C6
:1051D00001600180010001F0010C003001C00030CD
:1051E000010C01F0010000000104018C0074017049
:1051F000018C01040000010101810171000E001801
:1052000001600180010000000184010C01340144AF
:105210000184010C000000000000000000000100FB
:105220003EFC400240020000000000000000FFFFC2
:105230000000000000000000400240023EFC0100AF
:1052400000000000000000006000800080004000BE
:1052500040002000200000000000000000000000CE
:10526000000000000000000000000000000000003E
:10527000000000000000000000000000000000002E
:105280000000000000000000000F80380FFE380F03
:105290008038000000000000000000000000000056
:1052A000000000000100000600000C0000380000B3
:1052B0003100000600000C00003800003000000043
:1052C00000000000000061800067F807F9800061BD
:1052D000800061800061800061800067F807F980CC
:1052E00000618000000000000000000001C0E00339
:1052F000E0F00630080418081FFFFE040E080787B8
:10530000F00381E000000000000001F000060C0046
:10531000040408060C7001F9C0000E00003BE00018
:10532000EC18070808040C180003E0000000000156
:10533000E00007F003F818041C0804170807E1D080
:1053400003C0E00023B0003C08002008000010006B
:1053500000000000000100003100003200001C00CD
:10536000000000000000000000000000000000003D
:10537000000000000000000000000000000000002D
:105380000000000000007F0001FFC00780F00C005B
:10539000181000042000020000000000002000029D
:1053A0001000040C00180780F001FFC0007F00000F
:1053B00000000000000000000000000000000000ED
:1053C00000004200006600006600003C000018007B
:1053D00003FFC0001800003C0000660000660000EB
:1053E000420000000000080000080000080000085B
:1053F0000000080001FFC0000800000800000800CD
:10540000000800000800000000000001000031005A
:10541000003200001C00000000000000000000003E
:105420000000000000000000000000000000080074
:105430000008000008000008000008000008000044
:10544000080000080000080000080000000000003C
:1054500000000000000038000038000038000000A4
:10546000000000000000000000000000000000003C
:10547000000000000000000600001C000070000199
:1054800080000E0000380000C0000700001C000073
:10549000300000000000000000007F8001FFE003FA
:1054A0008070060018040008040008060018038035
:1054B0007001FFE0007F800000000000000000009D
:1054C00001000801000801000803FFF807FFF800C9
:1054D00000080000080000080000000000000000B4
:1054E0000001C03802C058040098040118040218D2
:1054F000040418061C1803F81801E0F80000000066
:10550000000000000001C0E003C0F004000804082F
:105510000804080806180803F41801E7F00001E081
:10552000000000000000000000000300000D00006B
:10553000110000610000810803010807FFF80FFF58
:10554000F80001080001080000000000000000E071
:1055500007FCD00608080610080610080610080602
:105560001838060FF00607C0000000000000000019
:1055700000003F8001FFE003843002081804100897
:10558000041008041008071810030FF00007C000EB
:10559000000000000000000003C00007000006003B
:1055A000000600F80607F806180006E000070000ED
:1055B00006000000000000000001E1E003F7F00633
:1055C0003410041808041808040C08040C08061603
:1055D0001803F3F001C1E000000000000000F80033
:1055E00003FC30030638040208040208040208041D
:1055F00004100308F001FFC0007F0000000000005D
:1056000000000000000000000000000000007038F2
:10561000007038007038000000000000000000003A
:10562000000000000000000000000000000000007A
:105630000000301A00301C000000000000000000D4
:105640000000000000000000000000000008000052
:105650001400002200004100008080010040020090
:1056600020040010080008000000000000002100D5
:105670000021000021000021000021000021000085
:105680002100002100002100002100000000000096
:105690000000000008000804001002002001004083
:1056A000008080004100002200001400000800007B
:1056B000000000000003C00004C000040000080057
:1056C00038080F380808380810000C300007E000D0
:1056D00003C000000000000000003F8000FFE00366
:1056E0008070020F1006708804C088048308047F4D
:1056F0008802C09003012000FE400000080000184E
:105700000001F8003E0801C20007020007E20000A5
:10571000FE00001FC80001F8000038000008040067
:105720000807FFF807FFF804080804080804080839
:1057300004080806180803F41801E7F00001E00067
:105740000000000000003F8001FFE00380700200C5
:1057500018040008040008040008040010060020D3
:105760000780C000000004000807FFF807FFF804E6
:105770000008040008040008040018020010038058
:105780007001FFE0007F8000000004000807FFF8C0
:1057900007FFF804080804080804080804080804B7
:1057A0003E08040008060018010060000000040024
:1057B0000807FFF807FFF8040808040800040800B9
:1057C000040800043E0006000006000001800000FE
:1057D0000000000000003F8001FFE0038070060031
:1057E000180400080402080402080203F00783F00A
:1057F00000020000020004000807FFF807FFF80499
:10580000080800080000080000080000080004085C
:105810000807FFF807FFF804000800000000000078
:1058200004000804000804000807FFF807FFF80454
:105830000008040008040008000000000000000048
:105840000000000600000700000104000104000140
:1058500004000307FFFE07FFFC040000040000042F
:10586000000004000807FFF807FFF8040C08001800
:1058700000003E0004C7800503C80600F804003895
:1058800004001800000804000807FFF807FFF804E8
:1058900000080000080000080000080000080000E0
:1058A0000800001800006000000004000807FFF86E
:1058B00007800807FC00007FC00003F80007C00055
:1058C000780007800807FFF807FFF80400080400C5
:1058D0000807FFF807000803C00000E000003800D8
:1058E000001E000007000001C00400F007FFF804DC
:1058F0000000000000007F8001FFE00380700600D0
:105900001804000804000806001803003001FFE036
:10591000007F8000000004000807FFF807FFF8047C
:105920000408040400040400040400040400060C39
:105930000003F80001F000000000000000007F807C
:1059400001FFE00380700600880400880400C80698
:10595000003C03003E01FFE6007F840000000400DD
:105960000807FFF807FFF8040808040800040C0003
:10597000040F00040BC00610F003F03801E008002B
:10598000000800000001E0F803F0300630100418B1
:1059900008041808040C08040C080206180207F092
:1059A0000781E00000000180000600000400000400
:1059B000000004000807FFF807FFF80400080400CF
:1059C0000004000006000001800004000007FFE062
:1059D00007FFF0040018000008000008000008009D
:1059E000000800000804001007FFE00400000400A5
:1059F0000006000007E00007FE00041FE00001F8B9
:105A00000000380001E0043E0007C000060000046A
:105A1000000004000007E00007FFC0041FF80007B3
:105A2000C007F80007FF80043FF80007C004F80033
:105A3000070000040000000000040008060018072A
:105A4000C07805F1C8003E00001F800463E80780AD
:105A5000F80600180400080000000400000600001A
:105A600007800007E008047C08001FF80007F80022
:105A7000180804E008070000060000040000000009
:105A8000000100080600380400F80403E8040F08C9
:105A9000047C0805F00807C008070018040060002F
:105AA00000000000000000000000000000000000F6
:105AB000003FFFFE20000220000220000220000222
:105AC00020000200000000000000000008000007A5
:105AD000000000C0000038000006000001C0000007
