:020000040800F2
:10000000401B0020D5020008553000083F220008A0
:1000100051300008C7190008074D00080000000013
:10002000000000000000000000000000B1350008E2
:10003000311A000800000000E530000869370008A8
:10004000EF020008EF020008EF020008EF020008CC
:10005000EF020008EF020008EF020008EF020008BC
:10006000EF020008EF020008EF020008EF020008AC
:10007000EF020008EF020008EF020008EF0200089C
:10008000EF020008EF020008EF020008EF0200088C
:10009000EF020008EF020008EF020008EF0200087C
:1000A000EF020008EF020008EF020008EF0200086C
:1000B000EF020008EF020008EF020008EF0200085C
:1000C000EF020008EF020008EF020008EF0200084C
:1000D000EF020008054A00088D4A0008154B000889
:1000E000EF020008EF020008EF020008EF0200082C
:1000F000EF020008EF020008EF020008EF0200081C
:10010000EF02000895320008EF020008EF02000835
:100110008D490008C9490008EF020008EF020008F5
:10012000EF020008EF020008EF020008EF020008EB
:10013000EF020008EF020008EF020008EF020008DB
:10014000EF020008EF020008EF020008EF020008CB
:10015000EF020008EF020008EF020008EF020008BB
:10016000EF020008EF020008EF020008EF020008AB
:10017000EF020008EF020008EF020008EF0200089B
:10018000EF020008EF02000800F002F800F092F819
:100190000AA090E8000C82448344AAF10107DA45E2
:1001A00001D100F087F8AFF2090EBAE80F0013F0A2
:1001B000010F18BFFB1A43F001031847B0D8020023
:1001C000D0D80200103A24BF78C878C1FAD85207B4
:1001D00024BF30C830C144BF04680C6070470000C1
:1001E0000023002400250026103A28BF78C1FBD840
:1001F000520728BF30C148BF0B6070476E2900F01E
:100200004183702900F00F81662905F04386652936
:1002100005F04086672905F03D866129AFF300802F
:1002200003681B0A28BF41F08001692900F0EE82B3
:10023000642900F0EB82752900F0E8826F2900F054
:100240003884782900F0DB80E92900F0D383E429A1
:1002500000F0D083F52900F0CD83EF2900F035843C
:10026000F82900F0DA800368DB0928BF41F080013B
:10027000632900F04283732900F04783E32900F0EB
:10028000B986F32900F0BE86002070471FB505F03F
:10029000FCFD00F011FF04000020002105F0E6FA4B
:1002A000401C60600020002105F0CAFAE0601FBD1C
:1002B00010B510BD00F0D2FE1146FFF7E7FF05F0C4
:1002C0000BF800F0AFFF03B4FFF7F2FF03BC04F03C
:1002D0006DFF00000948804709480047FEE7FEE738
:1002E000FEE7FEE7FEE7FEE7FEE7FEE7FEE7FEE7E6
:1002F00004480549054A064B704700006D37000861
:100300008901000840150020401B002040170020F4
:1003100040170020704700001CB50C46064B7B447C
:1003200069460090204600F0C6FA0446002069465F
:1003300000F0D4FA20461CBDBB0500000FB40449F0
:1003400010B503AA029800F0E5FA10BC5DF814FBA2
:100350006400002070B50C460546012A05D02878B7
:10036000800600D5EA69002302E0012305E05B1C5A
:10037000934202D2E05C0028F9D1A869E618C01ABD
:10038000A861286A18442862284600F0ACF904E005
:10039000D5E9012114F8010B9047B442F8D328465F
:1003A00000F0B7F970BD0000F0B40D4601880905F2
:1003B00002D5214C7C4402E01F4C7C440E340021C9
:1003C00000F1240608E002F00F071209E75D42EA97
:1003D00003721B097754491C52EA0307F3D10278D0
:1003E0000023120704D5702D06D009B10223113461
:1003F0002246F0BC00F0B0B901231034F8E770B524
:1004000004460D462146106800F09DF90246294633
:100410002046BDE870400023C6E7D21D22F0070346
:10042000D3E90023C0E70368126843F020030360A8
:100430000823C3610023B7E760D502002DE9F05F10
:10044000894604464FF0000ADFF874B1FB44C0F857
:1004500020A02046E1688847002874D0252806D0CF
:10046000D4E901219047206A401C2062F1E7002670
:100470005F462046E16888472028054607DB312D86
:1004800005D2781910F8200C08B10643F1E7B0073F
:1004900001D526F00406C4F81CA00027C4F818A053
:1004A0002A2D09D0284604F07AFE38B304EB8708D9
:1004B000303DC8F8185019E059F8041B204604EBE9
:1004C00087029161E1688847012F054618D1E069EC
:1004D000002820DA26F020061DE0D8F8180000EBEE
:1004E000800005EB40003038C8F818002046E1686D
:1004F0008847054604F053FE0028EED1012F0AD0AC
:100500002E2D08D12046E16888477F1C0546022F22
:1005100046F02006C4DBA069002803DA404246F01A
:100520000106A061F00701D026F010066C2D0BD05B
:10053000682D09D04C2D39D06A2D35D0742D35D089
:100540007A2D33D016E038E0E1682F462046884700
:10055000B842054609D16C2F26D04FF48060E1687F
:10056000064320468847054604E06C2F1AD04FF416
:10057000807006430DB3A5F14100192802D820353B
:1005800046F400664A462946204626604E46FFF756
:1005900035FE80B101280BD0F61D26F0070000F1D2
:1005A000080956E74020E4E78020D8E70020D6E796
:1005B00006F104094DE7284652E7206ABDE8F09F9E
:1005C000F0D4020010B5431C02E010F8011B71B119
:1005D0008107FAD14FF0013202C88C1A8C4314EA19
:1005E000C211F9D0C01A0A0603D0C01E10BDC01A2D
:1005F00010BD0A0401D0801E10BD0902FCD0401EAF
:1006000010BD4FF000020429C0F0128010F0030C5E
:1006100000F06882CCF1040CBCF1020F18BF00F8A6
:10062000012BA8BF20F8022BA1EB0C0100F05ABA55
:100630005FEAC17C24BF00F8012B00F8012B48BF02
:1006400000F8012B704700004FF0013C50F8042BDC
:1006500051F8043B9A4221D1A2EB0C03934313EAD5
:10066000CC1317D150F8042B51F8043B9A4215D102
:10067000A2EB0C03934313EACC130BD150F8042BD9
:1006800051F8043B9A4209D1A2EB0C03934313EABD
:10069000CC13DBD04FF00000704700BFD01A01BA76
:1006A000B1FA81F101F0180122FA01F0CB40C1F159
:1006B0002001DBB2C0B2C01A2CFA01F3D11A914367
:1006C00011EAC311E6D17047704770477047704711
:1006D00010B500F02DFA006810BD10B5044600F00A
:1006E00027FA046010BD70B5044685690068C1062C
:1006F00001D5302600E02026C00707D070BDD4E920
:10070000012130469047206A401C20626D1EF6D5BC
:1007100070BD70B5044685690078C00707D170BD0B
:10072000D4E9012120209047206A401C20626D1EE0
:10073000F6D570BD09684A0501D540B27047C905B4
:10074000FCD500B2704709684A0501D5C0B27047B0
:10075000C905FCD580B270472DE9F0470D46994692
:100760009246044600F124080168880604D5E06931
:1007700021F01001216000E00120A84201DD471BAB
:1007800000E00027A1697A1902EB0900081AA061AC
:100790002078C00602D42046FFF7A5FF002608E017
:1007A000D4E901211AF806009047206A401C761C03
:1007B00020624E45F4DB2078C0060AD52046FFF7BC
:1007C00092FF06E0D4E9012130209047206A401CC6
:1007D0002062381EA7F10107F4DC07E0D4E901210B
:1007E00018F805009047206A401C2062281EA5F1D9
:1007F0000105F3DC2046FFF78CFF2078000602D5C8
:100800000220BDE8F0870120FBE700002DE9F04160
:100810000646002410687529314616A510D0FFF74A
:1008200089FF002802DA404213A507E031688A07F1
:1008300001D512A502E0490704D511A5012401E064
:10084000FFF781FF00210A2206F1240709E0B0FB2F
:10085000F2FCB0FBF2F302FB1C0030307854184677
:10086000491C0028F3D123462A463046BDE8F04112
:10087000FFF772BF000000002D0000002B000000F9
:100880002000000011680268006A530501D5087055
:100890000AE0D30501D5088006E0130603D5C21788
:1008A000C1E9000200E008600120704701694A1CAC
:1008B00002610878704700B58FB0CDE901310021A1
:1008C000059105497944CDE9031011466846FFF7C3
:1008D000B5FD0FB000BD0000E5FFFFFF0A6802F89C
:1008E000010B0A60704710B5436913B1AFF3008084
:1008F00001E0FFF72FFD012010BD127800F1240167
:100900000A7000224A700122EDE711684FF0FF32B1
:10091000E9E70000074B70B50D467B44FFF7CBFFBE
:100920000446284600F072FB10B14FF0FF3070BD56
:10093000204670BD9F4900002DE9FF5F15468A469D
:100940000446DFF8AC80F8440027D8E900103E46A2
:10095000CDE9001010E03AF816106A4602A800F03F
:1009600059FB411C07D02178890603D5E269391863
:1009700091420DD80744761C2078800602D5E069A4
:10098000B84205DDAE42E6DB3AF816000028E2D1B7
:10099000A069C01BA0612046FFF7A5FED8E90010A2
:1009A000CDE90010002017E03AF818106A4602A8B6
:1009B00000F030FBB0F1FF3F81460BD000250DF178
:1009C000080B05E0D4E901211BF8050090476D1CD8
:1009D0004D45F7D308F10100B0428046E4DB206AC0
:1009E000384420622046FFF794FEBDE8FF9F0000D8
:1009F0000AD002002DE9F0418046D21D22F0070204
:100A00000025D2E90002F52915A614D0011E72F1C5
:100A1000000106DA0023D0EB030063EB020211A60B
:100A200008E0D8F800108B0701D50FA602E04907AF
:100A300001D50EA601251146002408F1240704E083
:100A400000F07AF830323A55641C50EA0102F7D1CE
:100A50002B46324621464046BDE8F041FFF77CBEBA
:100A6000000000002D0000002B000000200000000E
:100A700030B4002100F1240408E002F00705D20898
:100A8000303542EA4372DB086554491C52EA0305DB
:100A9000F3D10468002310A2250707D5A40600D4CB
:100AA00021B1C46901230DA2641EC46130BCFFF7EB
:100AB00053BE10B5044621461068FFF744FE0246B7
:100AC0002046BDE810400023D2E7D21D22F00701E6
:100AD000D1E90023CCE70000000000003000000056
:100AE0004FF0000200B5134694469646203922BFC7
:100AF000A0E80C50A0E80C50B1F12001BFF4F7AF12
:100B0000090728BFA0E80C5048BF0CC05DF804EBF3
:100B1000890028BF40F8042B08BF704748BF20F861
:100B2000022B11F0804F18BF00F8012B7047000016
:100B300000487047E014002030B5B0F10A024FEAD7
:100B4000900E71F100034EEA817EB0EB0E0061EB76
:100B500091014FEA101E4EEA017E10EB0E0041EBB0
:100B600011114FEA102E4EEA016E10EB0E0041EB10
:100B700011214FEA104E4EEA014E10EB0E0041EBF0
:100B80001141401841F100014FEAD00040EA4170A4
:100B90004FEAD10110EB80054FEA810444EA9074DA
:100BA00044EB01046D1944EB0404521BA3414FF0C4
:100BB000000348BF0A3200D530BD401C41F100019E
:100BC00030BD70472DE9FF4F0C461E464FF0FF37F2
:100BD0008BB0D2E90001DDF860800A908A46C1F34B
:100BE0000A5505B93D46002108464FF00000BAF10C
:100BF000000F00F4400005DA00EB80004FF44001E4
:100C000001EA50004FEA9059B9F1010F00DDB946F1
:100C10000A9850EA4A000ED044F61050A5F2FF356B
:100C200045432F14B8F1000F1ED07542291E1EDD5A
:100C3000C9F100021CE0B8F1010F4FF0000001D033
:100C4000302103E0F24305E02154401CB042FBDBBD
:100C500030460022002121540B99C1F80880C1E9D7
:100C600000200FB0BDE8F08FBD1B6D1CDEE74A46CB
:100C700000DA694206A800F063FA06AB93E80700C1
:100C800003AB83E8070050460A9900F0D4FA8DE8D8
:100C90000700A0F500501F3800900398002D0ADDD2
:100CA00042F21F014A460844002303A90390684604
:100CB00000F03DFD09E0A0F500504A461F38002332
:100CC00003A90390684600F047FD8DE80700000483
:100CD000000C03D04FF0FF30410800E01046B8F19F
:100CE000000F03D00022009215461EE0751E05D4A9
:100CF000FFF722FF303262556D1EF9D5B34601224F
:100D0000084302D000227F1C04E02078302801D163
:100D100000227F1E002A099784D01DE0112D07DADA
:100D2000FFF70AFF303262556D1C50EA0102F5D11F
:100D3000084302D00098C8B10EE00021681E05E00B
:100D4000235C625C63542254401E491C8142F7DBE1
:100D5000AB46A81B401E0990002004F80B000B981E
:100D6000099AC0F80880C0E9002B7AE711264FF0F5
:100D7000000857E72DE9F04F88460446D21D22F0BF
:100D8000070191B0D1E90001CDE90A0104F0B2F9FF
:100D900002460B98C00F01D02D2007E02068810784
:100DA00001D52B2002E0202101EAC000032A09908E
:100DB00001D0072A05DB03464146204600F080F9B2
:100DC0000BE12078800601D5E06900E00620B8F14B
:100DD000650F814606D0B8F1660F18D0B8F1670FDD
:100DE00070D131E00020B9F1110F009001DB112327
:100DF00001E009F101030AAA01A90CA8FFF7E2FE2C
:100E0000DDE90C70002609F10105834647E0012069
:100E10004B4600904FF000470AAA01A90CA8FFF723
:100E2000D1FEDDE90DB00C995D46002610B909F13F
:100E300001000D18B9EB050003D4C0F1FF3609F12C
:100E40000105A5EB09002BE0B9F1010F01DA4FF024
:100E500001090020B9F1110F0090484601DD11236E
:100E600000E003460AAA01A90CA8FFF7ABFEDDE9E2
:100E70000C704D4600268346207800070AD4AB4507
:100E800000DA5D4601A8012D04DD411911F8011CAD
:100E9000302907D04F4502DA17F1040F04DA012098
:100EA00082460FE06D1EEEE7002F02DCED1B3E4494
:100EB00003E0781CA84200DD7D1CB81B00F1010A8C
:100EC0004FF000472078000703D4AA4501DB4FF01C
:100ED000FF3A0021B7F1004F0DF143088DF84310A0
:100EE00024D002202B23002F01DA7F422D230A2158
:100EF000021EA0F1010000DC5FB197FBF1FC97FB43
:100F0000F1F201FB1C7C17460CF1300C08F801CD06
:100F1000EEE7A8F1010003702188090501D54521FC
:100F200000E06521A0F1010800F8011C09980FA953
:100F3000A1EB0807FF1D00B10120411901EBEA7088
:100F4000A1693844081A401EA0612078C00602D466
:100F50002046FFF7C8FB099828B1D4E90121904742
:100F6000206A401C20622078C00622D52046FFF768
:100F7000BAFB1EE0002E04DBB34502DD01A8805D54
:100F800000E03020D4E901219047206A401C206213
:100F9000761CAAF101005FEA000A0AD100F08CF881
:100FA000C0680168405CD4E901219047206A401C78
:100FB0002062281EA5F10105DCDC07E0D4E901214F
:100FC00018F8010B9047206A401C2062381EA7F1D8
:100FD0000107F3DC2046FFF79CFB032011B041E63C
:100FE00010B5436913B1AFF3008001E0FFF7A4FC33
:100FF000012010BD128800F1240182840022C284E5
:101000000122EDE711684FF0FF32E9E7007B00F0C5
:101010008000704770B516460C46054600F044F84F
:10102000036893F80101012806D0FF2C0FD8185D42
:1010300068B101202C7070BDD3F8070132462146FB
:1010400003F2071303442846BDE8704018474FF0E9
:10105000FF3070BD00487047E01400207546FFF770
:10106000F9FFAE4605006946534620F00700854665
:1010700018B020B5FFF73CF9BDE820404FF000065E
:101080004FF000074FF000084FF0000B21F0070170
:10109000AC46ACE8C009ACE8C009ACE8C009ACE8B3
:1010A000C0098D467047000010B500F005F8001D1E
:1010B00010BD00BFB9470000004870470015002070
:1010C0002DE9F0411F46044603260168072A01F472
:1010D000006004DB08B116A505E016A503E008B121
:1010E00015A500E015A521F010002060A069C01E24
:1010F000A0610FB1401EA0612046FFF7F4FA4FB186
:10110000D4E9012138469047206A401C2062C01C67
:10111000206206E0206AFAE7D4E9012115F8010B04
:101120009047761EF8D22046FFF7F3FABDE8F0812B
:101130004E414E006E616E00494E4600696E66007B
:101140002DE9F047814616468AB0354878440DC8E7
:101150008DE80D0032487844801C03AC0DC884E84B
:101160000D0041F69B300844372190FBF1F290FBD3
:10117000F1F5A5F1800501FB12041B3C02D5644288
:10118000012000E00020DFF898A080460027FA4404
:10119000AAF1BE0A0EE0E0070AD03246684607EB25
:1011A000470101230AEB810100F0D6FA8DE8070020
:1011B00064107F1C002CEED1194F7F44AE3F19E024
:1011C000E80715D007EB04100DF1180A90E80E009F
:1011D0008AE80E00C068F04201D1981908903246A2
:1011E000012306A903A800F0B7FA03AB83E80700C0
:1011F0006D10641C002DE3D14FF0010332466946A7
:10120000B8F1000F03A802D000F091FA01E000F05D
:10121000A3FAC9E90001C9F808200AB0BDE8F087BF
:1012200088C8020010B50446AFF300802046BDE830
:101230001040FFF748B85FEA400C08BF91F0000F7C
:101240004FEA8C234FEAC12243EA51514FEA1C5026
:1012500018BF00F5F0404FEA300018BF41F00041E0
:101260005FEA6C5C00F02980BCF1FF3F08BF40F0F2
:1012700080407047130C06BF12044FF0100C4FF063
:10128000000C130E04BF12020CF1080C130F04BF64
:1012900012010CF1040C930F04BF92000CF1020C2C
:1012A000D30F04BF52000CF1010C11464FF00002A5
:1012B000A0F11F00A0EB0C00704711F0004F08BF19
:1012C000704731F000413FF4D5AF0B0C06BF090465
:1012D0004FF0100C4FF0000C0B0E04BF09020CF184
:1012E000080C0B0F04BF09010CF1040C8B0F04BF99
:1012F00089000CF1020CCB0F04BF49000CF1010C6A
:10130000CCF12003A0EB0C0022FA03F302FA0CF25A
:1013100041EA030100F10100704720F07F4C80EAB0
:10132000030023F07F47ACEB070303F57C5300F089
:10133000004003F1FF032DE980494FEA154B09B442
:101340004FEA144325EA0B4E24EA03480FF2042621
:1013500006EB132749083E785FEA320203FB066773
:10136000C7F5000707FB06F64FEA54374FEAD646A3
:1013700006F1020607FB066CCCF1005C4FEA1C4745
:101380002CEA074C07FB06F40CFB06F504EB1546AC
:101390004FEA961634BF00204FF000404FEAD13795
:1013A00006FB07FC4FEA1C4C0CFB0BF7D21B03FBA4
:1013B0000CF761EB07010CFB0EF7B0EB074072EB8B
:1013C00017420CFB08F734BFA2EB0742B2EB07420F
:1013D00061EB17414FEA0C444FEA910706FB07FC0B
:1013E0004FEA1C4C0CFB0BF7B0EBC74072EB5732CB
:1013F00003FB0CF734BFA2EBC742B2EBC74261EB71
:1014000057310CFB0EF7B0EBC70072EB57720CFBB9
:1014100008F734BFA2EBC702B2EBC70261EB57710A
:10142000039F4FEA816141EA921104EBCC044FEA39
:10143000D1374FEA826206FB07FC42EA90124FEA7C
:1014400080604FEA1C4C0CFB0BF7D21B03FB0CF724
:1014500061EB07010CFB0EF7B0EB074072EB174294
:101460000CFB08F734BFA2EB0742B2EB074261EB7B
:1014700017414FEA8C554FEA910704EB9C2406FB79
:1014800007FC4FEA1C4C0CFB0BF7B0EBC74072EBB0
:10149000573203FB0CF734BFA2EBC742B2EBC74293
:1014A00061EB57310CFB0EF7B0EBC70072EB5772D4
:1014B0000CFB08F734BFA2EBC702B2EBC70261EB2B
:1014C000577115EB4C254FEA816141EA92114FEAC1
:1014D00082624FEAD13742EA901206FB07FC44F1E0
:1014E00000044FEA80604FEA1C4C0CFB0BF7D21B48
:1014F00003FB0CF761EB07010CFB0EF7B0EB0740A9
:1015000072EB17420CFB08F734BFA2EB0742B2EBB9
:10151000074261EB174115EB1C154FEA813141EA97
:1015200092414FEA823242EA90424FEA80304FEADB
:101530000C7644F1000448EA03434EEA0B484FF0AE
:10154000000EB2EB080C71EB030724BF624639466C
:101550004EEB0E0E4FF0000B0018524149414BEB81
:101560000B0BB2EB080C71EB03077BF1000B24BFF4
:10157000624639464EEB0E0E4FF0000B00185241FA
:1015800049414BEB0B0BB2EB080C71EB03077BF102
:10159000000B24BF624639464EEB0E0E51EA02079D
:1015A00018BF46F0010616EB0E7655F1000254F115
:1015B000000103D5BDE88901BDE80088BDE88901C7
:1015C000BDE80048B619524141EB0101A3F1010306
:1015D000704780807F7E7D7C7B7A797877767675A0
:1015E0007473727171706F6E6E6D6C6C6B6A6A6918
:1015F0006868676666656464636362616160605FB2
:101600005F5E5E5D5D5C5C5B5B5A5A59595858572A
:101610005756565555555454535352525251515092
:1016200050504F4F4F4E4E4D4D4D4C4C4C4B4B4BE5
:101630004A4A4A494949484848474747474646462B
:101640004545454444444443434343424242424166
:101650004141002B9C4630D477002BD01CB54FEA7B
:10166000370703B44FF010004FF01001BAF1000F2C
:1016700006D0BCF1000FDCBF40F0080040F00801CC
:101680004FF000000FBCBDE810400BF1010BBBF1A7
:10169000010F08BF5FEA170722BF12F1010211F123
:1016A00001014FF0004143F1000300F0004043EA24
:1016B00000007047F9D35708D0E746EA064613F111
:1016C000400F4FEA16461FDD13F1200FDFBF164310
:1016D0000A46002120335B42BED0C3F1200746EA10
:1016E000064602FA07F74FEA164646EA0706C3F12E
:1016F000200722FA03F201FA07F721FA03F14FF06B
:10170000000342EA0702A7E746EA020646EA06465F
:101710004FEA164646EA0106BCBF46EA0646360CC4
:101720004FF000034FF000024FF0000194E72DE965
:10173000804C9A46934670B491E8380007C831EA65
:10174000400C48BF34EA430C03D5FFF7E6FDFFF732
:1017500080FFF0BCBDE8008C2DE9804C9A46934692
:1017600070B491E8380007C810F0804F08BF13F03C
:10177000804F03D100F005F8FFF76BFFF0BCBDE828
:10178000008C20F07F4780EA030023F07F4C07EBBA
:101790000C03A3F57C5300F00040A3F1FE0392F08C
:1017A000000F00F0B38095F0000F00F077802DE976
:1017B00001494FEA11404FEA144621EA004800FB74
:1017C00006FC24EA064708FB06F607FB08F800FBC0
:1017D00007F718EB06484CEB164C4FEA124B18EB88
:1017E00007484FEA15464CEB174022EA0B4E0BFB1D
:1017F00006FC25EA06470EFB06F607FB0EFE0BFB72
:1018000007F71EEB064E4CEB164C4FF000061EEB96
:10181000074E4CEB174B18EB0B0840F1000018EB90
:101820000E0B58EB000840F100008F1A4FF000013A
:101830003CBFC943661B14BFB5EB040C00213CBF81
:10184000C943F61B4FEA17444EEA8E0E27EA0445B9
:101850004FEA1C4704FB07622CEA074C05FB07F71D
:101860000CFB05F604FB0CFC16EB074642EB17429B
:1018700016EB0C4642EB1C421BEB060658EB020231
:10188000414146EA9E0601D5BDE80189B61952419B
:1018900041EB0101A3F10103BDE801894FEA1445C1
:1018A0004FEA114724EA054621EA074C05FB07F4F5
:1018B00006FB07F70CFB06F105FB0CFC11EB0741DF
:1018C00044EB17444FEA124711EB0C4144EB1C4424
:1018D00022EA074C05FB07F206FB07F70CFB06F6AE
:1018E00005FB0CFC16EB074642EB174216EB0C46C9
:1018F00042EB1C456A1854F1000148BF7047B61905
:10190000524141EB0101A3F10103704795F0000F33
:1019100037D04FEA11424FEA144721EA024624EA3F
:10192000074C02FB07F106FB07F70CFB06F402FB72
:101930000CFC14EB074441EB17414FEA154714EB3D
:101940000C4441EB1C4125EA074C02FB07F506FB62
:1019500007F70CFB06F602FB0CFC16EB074645EB03
:10196000174516EB0C4645EB1C42121951F10001CC
:1019700048BF7047B619524141EB0101A3F1010381
:1019800070474FEA14454FEA114724EA054621EA19
:10199000074C05FB07F106FB07F70CFB06F24FF0BF
:1019A000000605FB0CFC12EB074241EB174112EB62
:1019B0000C4251EB1C4148BF7047921841EB0101AA
:1019C000A3F10103704700BFFEE7000070B50446B5
:1019D00005E01648056805F0450000B100E0F8E7AD
:1019E00000BF042001F04AFC20B1042001F040FCBB
:1019F000032070BD012001F041FC20B1012001F065
:101A000037FC0120F5E7094824380068A04201D0DE
:101A10001020EEE740F2FF5001F02AFC0348203886
:101A2000006808210840C0B2E3E70000342C014000
:101A3000704700002DE9F04385B004460D46174677
:101A40001E460E480088001B1FFA80F80B4840888D
:101A5000401B1FFA80F900200949098810224B46D3
:101A6000CDE901270096CDE90310424629462046DC
:101A700000F0F7FA05B0BDE8F08300007C0000201C
:101A80000400002051B18200A2F1C042126842F06D
:101A900001038200A2F1C042136009E08200A2F1BA
:101AA000C0421268034B1A408300A3F1C0431A607E
:101AB00070470000FEFF0F00D0E901121143C26819
:101AC0001143026911434269114382691143C2699A
:101AD0001143026A1143426A1143826A1143C26A86
:101AE0001143026B114302689200A2F1C0421160DF
:101AF000816808290BD101688900A1F1C0410968FA
:101B000041F0400201688900A1F1C0410A60416BC7
:101B10000968426B526841EA0211426B926841EADD
:101B20000221426B928941EA0241426B128A41EAE8
:101B30000251426B127D41EA0261426B926911438C
:101B40000268521C9200A2F1C0421160C16AB1F554
:101B5000804F1BD1816B0968826B526841EA021188
:101B6000826B926841EA0221826B128A41EA025139
:101B7000826B127D41EA0261826B926911430268B5
:101B80009200A2F1C042C2F8041107E06FF0704267
:101B900001688900A1F1C041C1F80421704700002B
:101BA0002DE9F04106460C4617464FF40051144803
:101BB00000F043FB052000F0BDFA032000F022F8FE
:101BC000C4F3074000F01EF8C4F3072000F01AF831
:101BD000E0B200F017F8002505E0FF2000F012F851
:101BE0007055681C85B2BD42F7DB4FF400510448C4
:101BF00000F021FB052000F09DFABDE8F081000017
:101C00000008024070B5044600251EE004F0800084
:101C1000802804D10101114800F00FFB04E04FF4CB
:101C200000610E4800F007FB01210D4800F003FBA6
:101C30006006040E04210A4800F0F4FA044301216E
:101C4000074800F0FAFA681CC5B2082DDEDB012156
:101C5000034800F0F2FA204670BD00000014024074
:101C6000000402402DE9F0470746884691461C468D
:101C70003E78B9F1200F1ED009DCB9F10C0F0DD060
:101C8000B9F1100F0FD0B9F1180F20D10FE0B9F151
:101C9000300F14D0B9F1400F19D114E006FB04F055
:101CA00000F5002515E00F4806FB040511E00E487D
:101CB00006FB04050DE00D4806FB040509E00C4891
:101CC00006FB040505E00B4806FB040501E0BDE842
:101CD000F08700BF224629464046FFF761FF00BF5C
:101CE000F5E70000000808000012080000260800C0
:101CF00000480800009208002DE9FF5F82460F4669
:101D000098469AF800900AF1010082460478B9F1E9
:101D1000810F06DB402C04DBFF2C02D0B9F1FF0F52
:101D20000DD14FF0000B06E0002007F8010B0BF17E
:101D300001001FFA80FBC345F6DBBDE8FF9F7F2C47
:101D400003DAA4F14000C4B202E0A4F14100C4B23D
:101D5000A9F1810000F0FF09BE2010FB094000FB43
:101D600008F502980C2806D0102807D0182808D0AB
:101D700020280CD108E00A482E1809E009482E183E
:101D800006E005F5ED1603E005F5601600E0D4E782
:101D900000BF424631463846FFF702FF00BFCCE79E
:101DA0000014090000DD11001CB50121262001F0FE
:101DB0009BF90620009000208DF804008DF80600A5
:101DC00003208DF8050001208DF8070069461348AF
:101DD00000F0BDF9012000908DF8040069460F481D
:101DE00000F0B5F94FF40050009001208DF8040088
:101DF00069460B4800F0ABF94FF4006000900120F9
:101E00008DF804006946074800F0A1F90121034854
:101E100000F013FA00F008F81CBD000000040240B6
:101E2000000802400014024010B586B04FF6FF7063
:101E300000F092FA002404E000200DF80400601C79
:101E4000C4B2182CF8DB112200216846FFF7A8FE67
:101E50006B464FF4784210210846FFF7EBFD002453
:101E600004E000200DF80400601CC4B2182CF8DB5C
:101E7000082214216846FFF793FE6B464FF4784220
:101E800020211020FFF7D6FD002404E000200DF8EB
:101E90000400601CC4B2182CF8DB08221E2168461E
:101EA000FFF77EFE6B464FF4784230211020FFF79B
:101EB000C1FD4FF4FA7003F099F906B010BD2DE999
:101EC000FF4FC1B080460D461C46AB462046E31787
:101ED00004EB5373DB1021464FEAE47C04EB5C7C9B
:101EE0004FEAEC0CA4EBCC0CBCF1000F02D04FF08D
:101EF000010C01E04FF0000C6344224604EBD27C5D
:101F00004FEA6C0C03FB0CF39FB20C2C0CD0102C82
:101F10000AD0182C08D0202C06D0302C04D0402C0D
:101F200002D045B0BDE8F08F3B46224601A9439858
:101F3000FFF798FE00262FE001A810F806904FF05A
:101F4000000A23E009F0800028B1294640464E9A55
:101F500000F040FB06E0509820B9294640464F9AD1
:101F600000F038FB4FEA49604FEA1069681C85B2FF
:101F7000A5EB0B00A04205D15D4608F101001FFA58
:101F800080F806E00AF101001FFA80FABAF1080FA2
:101F9000D8DB00BF701C86B2BE42CDDB00BFC0E7FD
:101FA0002DE9FF4FA1B080460D461C46AB462046AA
:101FB000E21704EB5272D2102146E31704EB53737D
:101FC000DB10A4EBC3030BB1012300E000231A4490
:101FD000624397B20C2C08D0102C06D0182C04D0D9
:101FE000202C02D025B0BDE8F08F3B46224601A947
:101FF0002398FFF781FE00262FE001A810F8069035
:102000004FF0000A23E009F0800028B1294640463D
:102010002E9A00F0DFFA06E0309820B929464046B3
:102020002F9A00F0D7FA4FEA49604FEA1069681C0E
:1020300085B2A5EB0B00A04205D15D4608F1010079
:102040001FFA80F806E00AF1010000F0FF0ABAF179
:10205000080FD8DB00BF701CC6B2BE42CDDB00BF8C
:10206000C0E72DE9F04F85B007460D4691469A46E8
:10207000DDE90F4B0E9EB84604950020039052E018
:10208000039888BB3078802802DD012003904AE065
:1020900004EBD47108EB0902A2EB6101B94202DA48
:1020A000281985B2474604985044001BA84200DA1C
:1020B0003CE030780D2804D1281985B24746761CBB
:1020C0000AE0DDE9111023463246CDE900B1029065
:1020D00029463846FFF7F3FE761C204604EBD07104
:1020E00007EB61018FB21EE0FFE70020039008EBD1
:1020F0000900001BB84202DA281985B24746049845
:102100005044001BA84200DA10E0DDE9110123462B
:102110003246CDE900B0029129463846FFF740FF2C
:10212000B61C381987B230780028A9D100BF05B095
:10213000BDE8F08F002107E0002201E0531CDAB275
:10214000642AFBDB4B1CD9B28142F5DB7047F0B54A
:102150000A4600210023002400BF3DE0012505FAC6
:1021600001F3156805EA03049C4234D105684F0069
:102170000326BE40B543056015794E00B54006689C
:10218000354305601579012D02D01579022D16D140
:1021900085684F000326BE40B543856055794E00E3
:1021A000B540866835438560456801268E40B54355
:1021B0004560456896798E40B6B235434560C5683E
:1021C0004F000326BE40B543C560D5794E00B540EB
:1021D000C6683543C560491C1029BFD3F0BDF0B5B2
:1021E000002300244D07ED0E02FA05F3CE1000F196
:1021F000200555F826504E07F70E0F26BE40B54372
:10220000CF1000F1200646F82750CE1000F120052F
:1022100055F8265045EA0304CE1000F1200545F894
:102220002640F0BD0246002013690B400BB101208F
:1022300000E000207047418370470183704700BF72
:10224000FEE700001CB50121032000F04DFF4FF414
:102250004070009000208DF8040003208DF80500E8
:1022600001208DF8070069460648FFF770FF01203E
:10227000009002208DF8070069460348FFF767FFCA
:102280001CBD0000000402400000024010B50446DE
:1022900014B10120264908702548007878B34FF41E
:1022A00000712448FFF7BEFF58B101212248FFF713
:1022B000B9FF012805D04FF480711E48FFF7B2FF27
:1022C000E8B90A2002F092FF0020194908704FF483
:1022D00000711848FFF7A6FF08B9012010BD4FF4A0
:1022E00080711448FFF79EFF08B90220F6E701212C
:1022F0001148FFF797FF012817D10420EEE7FFE709
:102300004FF400710B48FFF78DFF01280DD101211B
:102310000948FFF787FF40B94FF480710548FFF780
:1023200081FF012801D1024908700020D6E7000092
:1023300001000020000402400000024030B50146C8
:1023400001F01F04C1F34513CA0AE50205EB43156A
:102350001544A8B230BD000070B5044600250D48F4
:10236000438802880021084600F0C8FC094800881C
:102370000849498800FB01F60021084600F09EFC50
:1023800000F00EFE00BF02E0034804806D1CB54261
:10239000FAD370BD7C0000208000006C30B505468B
:1023A0007DB900202B498871F02008804FF4A0707F
:1023B00048802C2008812A2048812B2088810024F5
:1023C00044E0012D0FD1002022498871F0200880BF
:1023D0004FF4A07048802C2008812A2048812B20AF
:1023E0008881032432E0022D0FD101201949887120
:1023F0004FF4A0700880F02048802C2008812A200B
:1024000048812B208881052420E0032D0FD1012055
:10241000104988714FF4A0700880F02048802C206B
:1024200008812A2048812B20888106240EE0002084
:1024300008498871F02008804FF4A07048802C2053
:1024400008812A2048812B2088810024204600F022
:10245000D5FB30BD7C0000202DE9FF4F84B08146C4
:102460008A460020029083460698A0EB090507984B
:10247000A0EB0A06CDF80490CDF800A0002D01DDF8
:10248000012705E00DB9002702E04FF0FF376D424C
:10249000002E02DD4FF0010806E016B94FF00008EB
:1024A00002E04FF0FF387642B54201DD2C4600E0F5
:1024B0003446002003901EE0009A91B2019A90B237
:1024C000119A00F087F8029828440290B3440298C9
:1024D000A04205DD0298001B02900198384401904B
:1024E000A34504DDABEB040B009840440090039837
:1024F000401C80B20390611C03988842DCDD08B068
:10250000BDE8F08F30B504460D462946204600F060
:10251000D5FB00F045FD024800880249088030BD27
:10252000020000208000006C2DE9F04706460F46AF
:1025300090469A46002445460320A0EB480944E013
:102540007A1B91B2321990B2524600F043F83A1B0E
:1025500091B2721990B2524600F03CF83A1991B219
:10256000721990B2524600F035F87A1991B23219C8
:1025700090B2524600F02EF87A1991B2321B90B206
:10258000524600F027F83A1991B2721B90B25246A7
:1025900000F020F87A1B91B2321B90B2524600F044
:1025A00019F83A1B91B2721B90B2524600F012F821
:1025B000641CB9F1000F03DAA000801D814404E01F
:1025C000601B80000A3081446D1EAC42B8DDBDE85E
:1025D000F087000010B503460C461148808849F288
:1025E000413188421BD10E49488900F0D3FC1812B2
:1025F00000F0CAFCD8B200F0C7FC0949888900F095
:10260000C9FC201200F0C0FCE0B200F0BDFC0448A0
:102610000089044908804FF0D840A0F8802010BD00
:102620007C0000207E00006C00B59FB001217A2064
:1026300000F05AFD0121084600F066FD4FF400400D
:102640001D9001208DF8780000208DF87A0002207E
:102650008DF8790001208DF87B001DA9FE48FFF759
:1026600076FD4CF233701D9002208DF8780000202A
:102670008DF87A0003208DF8790001208DF87B0019
:102680001DA9F648FFF763FD4FF680701D900220EC
:102690008DF8780000208DF87A0003208DF87900FD
:1026A00001208DF87B001DA9ED48FFF750FD4FF488
:1026B00080501D9002208DF8780000208DF87A005F
:1026C00003208DF8790001208DF87B001DA9E548D5
:1026D000FFF73DFD4FF480501D9002208DF87800EB
:1026E00000208DF87A0003208DF8790001208DF804
:1026F0007B001DA9DC48FFF72AFD0C220021D748EA
:10270000FFF76DFD0C220121D448FFF768FD0C2274
:102710000421D248FFF763FD0C220521CF48FFF7C3
:102720005EFD0C220821CD48FFF759FD0C2209213E
:10273000CA48FFF754FD0C220A21C848FFF74FFD95
:102740000C220E21C548FFF74AFD0C220F21C34879
:10275000FFF745FD0C220721C148FFF740FD0C2281
:102760000821BF48FFF73BFD0C220921BC48FFF7B9
:1027700036FD0C220A21BA48FFF731FD0C220B214D
:10278000B748FFF72CFD0C221146B548FFF727FD8F
:102790000C220D21B248FFF722FD0C220E21B04879
:1027A000FFF71DFD0C220F21AD48FFF718FD0C228D
:1027B0001146AC48FFF713FD0C221146AA48FFF75B
:1027C0000EFD0F200790002008901820099000208F
:1027D0000A900B900C900D90082000900020019022
:1027E0000820029000200390049005900690062097
:1027F0000E9000200F901090102011900020129049
:1028000014901390159016904FF48050179000205C
:1028100018904FF48040199000201A9007A81B9040
:10282000CDF870D00EA8FFF747F901210620FFF779
:1028300029F9322002F0DAFC002000F0D3F98B49AC
:10284000888008468088FF280ADB084680884FF683
:10285000FF71884204D085488088B0F5134F25D198
:10286000D32000F097FB00F065F98049888000F0E4
:1028700061F97E49888000F05DF97C4988800846CE
:1028800080884FF6FF7101EA00207849888000F0C7
:1028900051F97649898808437449888008468088B8
:1028A00049F24131884201D01FB000BD6F48808895
:1028B00049F2413188427CD1CF2000F06BFB0020EF
:1028C00000F062FBC12000F05FFB302000F05CFBF9
:1028D000ED2000F05FFB642000F056FB032000F0C9
:1028E00053FB122000F050FB812000F04DFBE8204C
:1028F00000F050FB852000F047FB102000F044FB67
:102900007A2000F041FBCB2000F044FB392000F09E
:102910003BFB2C2000F038FB002000F035FB34207E
:1029200000F032FB022000F02FFBF72000F032FB1A
:10293000202000F029FBEA2000F02CFB002000F012
:1029400023FB002000F020FBC02000F023FB1B2015
:1029500000F01AFBC12000F01DFB012000F014FB69
:10296000C52000F017FB302000F00EFB302000F0F7
:102970000BFBC72000F00EFBB72000F005FB362054
:1029800000F008FB482000F0FFFA3A2000F002FBBC
:10299000552000F0F9FAB12000F0FCFA002000F018
:1029A000F3FA1A2000F0F0FAB62000F0F3FA0A2049
:1029B00000E0A4E000F0E8FAA22000F0E5FAF2203E
:1029C00000F0E8FA002000F0DFFA262000F0E2FA3A
:1029D000012000F0D9FAE02000F0DCFA0F2000F02E
:1029E000D3FA2A2000F0D0FA282000F0CDFA0820EF
:1029F00000F0CAFA0E2000F0C7FA082000F0C4FA6E
:102A0000542000F0C1FAA92000F0BEFA432000F0E3
:102A1000BBFA0A2000F0B8FA0F2000F0B5FA002047
:102A200000F0B2FA002000F0AFFA002000F0ACFA9B
:102A3000002000F0A9FAE12000F0ACFA002000F03C
:102A4000A3FA152000F0A0FA172000F09DFA072045
:102A500000F09AFA11200BE000040240000C024042
:102A60000010024000140240001802407C000020C8
:102A700000F08AFA062000F087FA2B2000F084FA92
:102A8000562000F081FA3C2000F07EFA052000F08C
:102A90007BFA102000F078FA0F2000F075FA3F2042
:102AA00000F072FA3F2000F06FFA0F2000F06CFA8D
:102AB0002B2000F06FFA002000F066FA002000F0F2
:102AC00063FA012000F060FA3F2000F05DFA2A204E
:102AD00000F060FA002000F057FA002000F054FAED
:102AE000002000F051FAEF2000F04EFA112000F023
:102AF00051FA782002F07AFB292000F04BFA0020EE
:102B0000FFF74CFC0120044908604FF6FF70FFF707
:102B100023FC00BFC8E60000BC82404210B502465C
:102B2000012000E050430B1EA1F10104E1B2F9D1F4
:102B300010BD000008B5034800880090BDF80000F3
:102B400008BD00008000006C2DE9F04105460E46EE
:102B500000240027A04622480088A84203DD204820
:102B60004088B04202DC0020BDE8F08131462846B2
:102B700000F0A4F81A48808849F24131884202D115
:102B80002E2000F007FAFFF7D5FF0446022002F0DE
:102B900065FCFFF7CFFF04461148808849F24131B8
:102BA00088420AD1022002F059FCFFF7C3FF804699
:102BB000E7B24FF6FF7000EA07270948808849F21C
:102BC0004131884207D1E012C002B91240EA4110F7
:102BD00040EAE820C8E72046FFF7B0FBC4E7000062
:102BE0007C00002010B50446204600F0D3F90520F3
:102BF00002F018FBFFF79EFF10BD000010B5044661
:102C000000232D48808849F24131884252D1082C56
:102C10001CD2DFE804F00406090C0F12151800BFDF
:102C200014E043F0800311E043F040030EE043F072
:102C3000C0030BE043F0200308E043F0600305E02D
:102C400043F0A00302E043F0E00300BF00BF43F005
:102C50000801362000F0AEF91749488900F09AF9CA
:102C6000002000F091F9002000F08EF91249098847
:102C7000491EC1F30F2000F087F90F490978491E5A
:102C8000C8B200F081F90C49888900F083F900206E
:102C900000F07AF9002000F077F907494988491EC9
:102CA000C1F30F2000F070F903498978491EC8B2BA
:102CB00000F06AF910BD00007C00002000B502465B
:102CC0000B460D48808849F24131884213D10A49A8
:102CD000488900F05FF9101200F056F9D0B200F008
:102CE00053F90549888900F055F9181200F04CF99C
:102CF000D8B200F049F900BD7C000020F0B50446D0
:102D00000D46A018401E86B2E818401E87B2134830
:102D1000808849F2413188421FD11049488900F02A
:102D200039F9201200F030F9E0B200F02DF930123C
:102D300000F02AF9F0B200F027F90849888900F07C
:102D400029F9281200F020F9E8B200F01DF9381234
:102D500000F01AF9F8B200F017F9F0BD7C0000207D
:102D60002DE9F84F80460E4617461C46B3462046CE
:102D7000E31704EB5373DB1021464FEAE47C04EBCA
:102D80005C7C4FEAEC0CA4EBCC0CBCF1000F02D045
:102D90004FF0010C01E04FF0000C6344224604EBBD
:102DA000D27C4FEA6C0C03FB0CF3DBB20093A7F16F
:102DB0002000C7B2002555E00C2C07D107EB4700D7
:102DC0002B4901EB800010F8059013E0102C05D181
:102DD000284800EB071010F805900BE0182C07D1DD
:102DE00007EBC700244901EB800010F8059001E0D3
:102DF000BDE8F88F4FF0000A2EE009F0800028B1FE
:102E0000314640460A9AFFF7E5FB07E00B9828B9E0
:102E10001A48028831464046FFF7DCFB4FEA49601A
:102E20004FEA1069701C86B215484088B04200DC39
:102E3000DEE7A6EB0B00A0420AD15E4608F10100D6
:102E40001FFA80F80E480088404500DCD0E706E015
:102E50000AF1010000F0FF0ABAF1080FCDDB00BF54
:102E6000681CC5B200988542A6DB00BFC0E7000021
:102E7000985E00080C630008FC680008040000204D
:102E80007C0000202DE9FF4F83B0074691461E4687
:102E9000DDE9105A0020029000243AE0301B401E69
:102EA000C1B20A20FFF73AFEB9FBF0F00A21B0FBED
:102EB000F1F201FB12080298B8B9701EA04214DDAD
:102EC000B8F1000F0FD10020AB4605EBDB714910C4
:102ED00001FB0471CDE900A088B22B4620220499A1
:102EE000FFF73EFF13E0012002900020AB4605EB08
:102EF000DB71491001FB0471CDE900A088B208F133
:102F00003001CAB22B460499FFF72AFF00BF601CAC
:102F1000C4B2B442C2DB07B0BDE8F08F2DE9FC4F6C
:102F200004460D4690469946DDE90CA70B9E04F039
:102F3000FF0B08EB04001FFA80F809EB05001FFAED
:102F400080F917E0444502DB5C46A81985B24D457F
:102F500000DB15E00020CDE900A03A783346294691
:102F60002046FFF7FDFE304606EBD07104EB610111
:102F70008CB27F1C38787E2802DC38782028E1DA91
:102F800000BFBDE8FC8F00000149088070470000C9
:102F90008000006C01490880704700007E00006CD2
:102FA0000248008902490880704700007C00002028
:102FB0007E00006C034A10804FF0D842A2F88010C7
:102FC000704700007E00006C1CB50121202000F03D
:102FD0008BF84FF4C060009001208DF804000020B1
:102FE0008DF8060003208DF8050001208DF80700FC
:102FF00069460448FFF7ABF84FF4C0610148FFF79A
:103000001CF91CBD001402400EB54FF6FF70FFF70F
:10301000A3F94FF478400B4908800BA04FF4784196
:103020001022CDE90021029008490988183988B298
:103030001346C8220021FFF771FF4FF47840014981
:1030400008800EBD02000020525354007C00002076
:1030500000BFFEE77047000070B5002100230F227B
:10306000C4781CB3174C246804F4E064C4F5E0642D
:10307000C4F30721C1F10404E3B20A4144789C403F
:10308000E1B28478144021430C07210E0E4C0578E0
:103090006155047804F01F050124AC4005786D11DA
:1030A000AD0005F1E025C5F8004109E0047804F021
:1030B0001F050124AC40054D0678761145F82640E1
:1030C00070BD00000CED00E000E400E080E100E0F5
:1030D00002490143024A1160704700000000FA05EE
:1030E0000CED00E07047000029B1064A1268024367
:1030F000044B1A6004E0034A12688243014B1A60D1
:10310000704700003038024029B1064A1268024375
:10311000044B1A6004E0034A12688243014B1A60B0
:10312000704700003838024029B1064A126802434D
:10313000044B1A6004E0034A12688243014B1A6090
:10314000704700004038024029B1064A1268024325
:10315000044B1A6004E0034A12688243014B1A6070
:10316000704700004438024029B1064A1268024301
:10317000044B1A6004E0034A12688243014B1A6050
:103180007047000024380240F0B5002100220024DE
:10319000022500260223324F3F6807F00C0121B1BF
:1031A000042905D0082937D105E02E4F076036E005
:1031B0002D4F076033E02A4F3F1F3F68C7F380560B
:1031C000274F3F1F3F6807F03F036EB1264FB7FB05
:1031D000F3F7DFF88CC0ACF1040CDCF800C0CCF3E2
:1031E000881C07FB0CF40CE01E4FB7FBF3F7DFF86D
:1031F00070C0ACF1040CDCF800C0CCF3881C07FBF9
:103200000CF4174F3F1F3F68C7F301477F1C7D0039
:10321000B4FBF5F7076002E0124F076000BF00BF84
:103220000F4F3F6807F0F0010909104F7A5C0768FB
:10323000D74047600A4F3F6807F4E051890A0B4FB7
:103240007A5C4768D7408760054F3F6807F4604164
:10325000490B064F7A5C4768D740C760F0BD000055
:10326000083802400024F40000127A006C000020AC
:103270000149086070470000382C014001460020D9
:10328000034A12680A400AB1012000E0002070479A
:10329000342C014010B500F017F810BD0021094B87
:1032A00002681A601A1D11686FF30A01D0E9012340
:1032B0001A43C3681A4303691A431143014A121D92
:1032C00011607047082C014010B54FF48070FFF773
:1032D000D5FF78B34C480078012814D100204B4921
:1032E00008600C204860402088600020C8604FF4CF
:1032F000806008610846FFF7D1FF0C20FEF766FBEF
:103300004349087002E000204149087041480068C4
:1033100040F480703F490860081D00684CF23A3163
:1033200088433C49091D086001203B490870384822
:10333000007810BDFFE70220FFF7A0FF78B1022060
:10334000FFF796FF3348001D00684CF23A3188437E
:103350003049091D086002202D490870E9E708205E
:10336000FFF78CFF78B10820FFF782FF2948001D86
:1033700000684CF23A3188432649091D0860042050
:1033800023490870D5E72020FFF778FF78B1202087
:10339000FFF76EFF1F48001D00684CF23A3188436A
:1033A0001C49091D0860062019490870C1E7102052
:1033B000FFF764FF78B11020FFF75AFF1548001D92
:1033C00000684CF23A3188431249091D0860052013
:1033D0000F490870ADE74FF40070FFF74FFF80B161
:1033E0004FF40070FFF744FF0A48001D00684CF2DC
:1033F0003A3188430749091D0860072004490870CD
:1034000097E7002095E7000015000020A8000020A5
:1034100016000020382C01401700002000B587B0AE
:1034200001210846FFF760FE01210803FFF78CFE2B
:103430003820059002208DF8180000208DF81A0021
:1034400003208DF8190001208DF81B0005A92248E2
:10345000FEF77DFE052203211F48FEF7C0FE052270
:1034600004211D48FEF7BBFE052211461A48FEF74F
:10347000B6FE01210803FFF777FE00214FF48050CC
:10348000FFF772FE0020ADF800004FF48270ADF837
:1034900002000020ADF804000220ADF80600012073
:1034A000ADF808004002ADF80A003820ADF80C0075
:1034B0000020ADF80E000720ADF81000694607485F
:1034C00000F058F80121054800F03AF8FF2000F01C
:1034D00007F807B000BD00000004024000300140C2
:1034E00010B5044600BF02210A4800F035F8002854
:1034F000F9D02146074800F03BF800BF01210548FC
:1035000000F02AF80028F9D0024800F02EF8C0B2E6
:1035100010BD00000030014010B504460748008887
:103520004FF6C771084005490880084600882043C7
:1035300008800121014800F003F810BD003001406F
:1035400021B1028842F04002028004E002884FF676
:10355000BF731A40028070470246002013890B4057
:103560000BB1012000E000207047014688897047B8
:103570008181704710B50022028802F441520B8805
:103580004C8823438C882343CC8823430C892343D2
:103590004C8923438C892343CC8923431A430280DB
:1035A000838B4FF2FF74234083830B8A038210BD09
:1035B00070472DE9F84306460F464FF000080024F7
:1035C000002578210020FEF79DFF96210020FEF7C0
:1035D00099FFB84700BF11E000240BE029462046C0
:1035E000FFF7B2FA009041466846B04708F102087A
:1035F000601C84B2F02CF1DB681C85B2B5F5A07FAD
:10360000EADBBDE8F88300000CB5002001900090D3
:103610003448006840F480303249086000BF3148C7
:10362000006800F4003000900198401C0190009860
:1036300018B90198B0F5A04FF1D12A48006800F4FC
:10364000003010B10120009001E0002000900098AF
:10365000012846D123484030006840F0805021497D
:10366000403108602048006840F440401E4908602E
:103670001C48083000681B4908310860084600688B
:1036800040F4004008600846006840F4A05008601C
:103690001648091F0860081F006840F08070091F65
:1036A000086000BF0F48006800F000700028F9D0E3
:1036B00040F205700E4908600A480830006820F0A2
:1036C00003000849083108600846006840F002001D
:1036D000086000BF03480830006800F00C000828AC
:1036E000F8D10CBD0038024000700040085440077B
:1036F000003C0240F8B5044600274FF6FF70FEF785
:103700002BFE4FF4A073F02200210846FFF7F6FAD3
:10371000FFF746FC00250DE0002608E03946684624
:10372000A047BDF8000005490880BF1C761CF02E9C
:10373000F4D36D1CB5F5A07FEED3F8BD8000006C0E
:10374000042808D14FF0E021096941F004014FF04D
:10375000E022116107E04FF0E021096921F0040146
:103760004FF0E022116170477047000010B5154816
:10377000006840F47000134908601348006840F086
:1037800001001149086000200F49083108600E4807
:1037900000680E4908400C4908600D48091D086082
:1037A000081F006820F48020091F086000200649D7
:1037B0000C310860FFF728FF4FF0006001498039A5
:1037C000086010BD88ED00E000380240FFFFF6FE03
:1037D000103000242DE9FE4F04460D4617461E46C4
:1037E000DDE90EABDDE90C894FF4784072490880C1
:1037F00072A04FF478411022CDE900210290704868
:1038000043880288A0212820FFF788FB6DA04FF491
:1038100078411022CDE9002102906948438802884E
:10382000A0217820FFF77AFB67A04FF4784110229F
:10383000CDE900210290624843880288B421282003
:10384000FFF76CFB61A04FF478411022CDE9002115
:1038500002905B4843880288B4217820FFF75EFB22
:103860005BA04FF478411022CDE90021029054482A
:1038700043880288C8212820FFF750FB55A04FF449
:1038800078411022CDE9002102904D4843880288FA
:10389000C8217820FFF742FB4FA04FF47841102257
:1038A000CDE900210290464843880288DC21282087
:1038B000FFF734FB49A04FF478411022CDE90021F5
:1038C00002903F4843880288DC217820FFF726FBDE
:1038D00043A04FF478411022CDE9002102903848EE
:1038E00043880288F0212820FFF718FB4FF4784026
:1038F000102104232246CDE90010A0214020FFF72B
:10390000C1FA4FF47840102104232A46CDE9001073
:10391000A0219020FFF7B6FA4FF47840102104233D
:103920003A46CDE90010B4214020FFF7ABFA4FF43E
:103930007840102104233246CDE90010B4219020B4
:10394000FFF7A0FA4FF47840102104234246CDE956
:103950000010C8214020FFF795FA4FF4784010215D
:1039600004234A46CDE90010C8219020FFF78AFAC7
:103970004FF47840102104235246CDE90010DC2199
:103980004020FFF77FFA4FF47840102104235A4675
:10399000CDE90010DC219020FFF774FA4FF4784055
:1039A00010210323CDE90010F0216020109AFFF7C9
:1039B00069FABDE8FE8F00000200002078313A006D
:1039C0007C00002079313A0078323A0079323A00AE
:1039D00078333A0079333A0078343A0079343A004F
:1039E0006661632069733A0000B597B000201290B9
:1039F0000B9012901F21FE4801804FF6FF70FD4989
:103A00000880FEF7A9FC0020F9490880FA48006800
:103A1000002110226423CDE900210290A022282158
:103A20000846FFF77BFA00204FF6FF714FF478420B
:103A30001023CDE90132CDE90310F0A0F022C82116
:103A400000900820FEF70DFB00204FF6FF714FF4A9
:103A500078421023CDE90132CDE90310EDA0F02228
:103A6000DC2100900820FEF7FCFA4FF47842142184
:103A7000084600F0A1FC0020EC4981F820009FEDF1
:103A8000EC0A084680ED090A5FE2E84840680A90BF
:103A900001200A998847E54890F8200000F0C0000E
:103AA00040286FD100200B90E04890F8200020F0D3
:103AB0004000DE4981F820000846818913AA129847
:103AC00022F82010D948C18A129802EB8000418068
:103AD0001298401CC0B212901298012806D00228F9
:103AE00015D0032829D0042810D141E04FF6FF72E9
:103AF0001421084600F060FCCE480088143880B2DB
:103B00004FF4784214210A9000F056FCF4E3C948BF
:103B10000088143880B24FF6FF7214210A9000F02A
:103B20004BFCC4484088143880B24FF478420146B8
:103B30000A90142000F040FCFEE3BE484088143890
:103B400080B24FF6FF7201460A90142000F034FC58
:103B5000B8484088143880B20A90B64800881438B3
:103B600080B24FF4784209900A9900F025FCE3E313
:103B7000BDF84C00BDF85010401A0A90002802DB36
:103B80000A9802E0D9E30A9840420F90BDF84E101F
:103B900013A8C088081A0A90002801DB0A9801E0DF
:103BA0000A9840420E900F9840430F900E98404361
:103BB0000E90DDE90E100844059001F0A6FECDE957
:103BC00006019DED060B01F0ADFA8DED080B9DEDA4
:103BD000080B51EC100B01F06BFE80B21190BDF898
:103BE0005400BDF85810401A0A90002801DB0A98CA
:103BF00001E00A9840420F9013A84189C089081A31
:103C00000A90002801DB0A9801E00A9840420E90D1
:103C10000F9840430F900E9840430E90DDE90E1030
:103C20000844059001F071FECDE906019DED060BFB
:103C300001F078FA8DED080B9DED080B51EC100B9F
:103C400001F036FE80B210909DED110AF8EE400AA8
:103C50009DED100AB8EE401A80EE810A8DED0A0A39
:103C60000A9802F0A1F8CDE90C019FED730B53EC1B
:103C7000102B9DED0C0B51EC100B01F059FE0ED3E7
:103C80009FED6F0B53EC102B9DED0C0B51EC100BBB
:103C900001F088FF03D3119808B11098F0BB002001
:103CA000129064484088143880B20A9061480088B5
:103CB000143880B24FF6FF7209900A9900F07CFB2D
:103CC0004FF478421421084600F076FB9FED5E0B1E
:103CD00053EC102B9DED0C0B51EC100B01F064FE1E
:103CE000CDE908019DED080B51EC100B01F0E0FD52
:103CF00080B213A90A90C989BDF8582013AB5B891B
:103D0000CDE90132CDE90310BDF85400009013A8AD
:103D1000C0880990BDF85000089000E00AE0BDF8A6
:103D20004E000790BDF84C00069007A90EC9FFF79A
:103D300051FD11E3BDF84C00BDF85410401A0A9033
:103D4000002801DB0A9801E00A9840420F90BDF874
:103D50004E1013A84089081A0A90002801DB0A981F
:103D600001E00A9840420E900F9840430F900E9841
:103D700040430E90DDE90E100844059001F0C5FDAA
:103D8000CDE906019DED060B01F0CCF98DED080B98
:103D90009DED080B51EC100B01F08AFD80B21190E3
:103DA000BDF85000BDF85810401A0A90002801DBF9
:103DB0000A9801E00A9840420F9013A8C188C08970
:103DC000081A0A90002801DB0A9801E00A9840428C
:103DD0000E900F9840430F900E9840430E90DDE9EF
:103DE0000E100844059001F090FDCDE906012FE08A
:103DF000020000200400002014D90208D0A3D7BC80
:103E0000A3BAD2C0B4CEB5E3CBC4BDC7B5C4B5E385
:103E100000000000202020202020BDF8D0D0B4A534
:103E2000C3FEC6C1D0A3D7BC000000001C00002008
:103E3000000000007C000020666666666666EE3F55
:103E4000CDCCCCCCCCCCF03F0000000000005940E1
:103E50009DED060B01F066F98DED080B9DED080B4D
:103E600051EC100B01F024FD80B210909DED110A71
:103E7000F8EE400A9DED100AB8EE401A80EE810A75
:103E80008DED0A0A0A9801F08FFFCDE90C011FEDB4
:103E9000160B53EC102B9DED0C0B51EC100B01F09D
:103EA00047FD0AD31FED1A0B53EC102B9DED0C0BA5
:103EB00051EC100B01F076FE48D200201290FE4823
:103EC0004088143880B20A90FB480088143880B2C9
:103ED0004FF6FF7209900A9900F06EFA4FF478429B
:103EE0001421084600F068FA1FED290B53EC102B43
:103EF0009DED0C0B51EC100B01F056FDCDE90801C6
:103F00009DED080B51EC100B01F0D2FC80B213A90F
:103F10000A90C989BDF8582013AB5B89CDE90132FD
:103F2000CDE90310BDF85400009013A8C088099093
:103F3000BDF850000890BDF84E000790BDF84C0049
:103F4000069007A90EC9FFF745FC05E2BDF8500031
:103F5000BDF85410401A0A90002801DB0A9801E0CD
:103F60000A9840420F9013A8C1884089081A0A9005
:103F7000002801DB0A9801E00A9840420E900F9851
:103F800040430F900E9840430E90DDE90E10084418
:103F9000059001F0BAFCCDE906019DED060B01F09C
:103FA000C1F88DED080B9DED080B51EC100B01F0E5
:103FB0007FFC80B21190BDF84C00BDF85810401A3B
:103FC0000A90002801DB0A9801E00A9840420F900D
:103FD000BDF84E1013A8C089081A0A90002801DB0A
:103FE0000A9801E00A9840420E900F9840430F90C3
:103FF0000E9840430E90DDE90E100844059001F044
:1040000084FCCDE906019DED060B01F08BF88DEDEA
:10401000080B9DED080B51EC100B01F049FC80B230
:1040200010909DED110AF8EE400A9DED100AB8EED1
:10403000401A80EE810A8DED0A0A0A9801F0B4FE5A
:10404000CDE90C011FED840B53EC102B9DED0C0BF7
:1040500051EC100B01F06CFC0AD31FED870B53ECF5
:10406000102B9DED0C0B51EC100B01F09BFD48D279
:104070000020129090484088143880B20A908E48F0
:104080000088143880B24FF6FF7209900A9900F048
:1040900093F94FF478421421084600F08DF91FED92
:1040A000960B53EC102B9DED0C0B51EC100B01F00B
:1040B0007BFCCDE908019DED080B51EC100B01F0E4
:1040C000F7FB80B213A90A90C989BDF8582013AB39
:1040D0005B89CDE90132CDE90310BDF854000090B1
:1040E00013A8C0880990BDF850000890BDF84E0094
:1040F0000790BDF84C00069007A90EC9FFF76AFBB0
:104100002AE1BDF85000BDF84C10401A00EE100A2C
:10411000F8EEC00A68480088283800EE100AB8EEA9
:10412000C00A80EE201A654880ED091ABDF85000DB
:10413000BDF84C10084400EE100AF8EEC00A5E48C4
:10414000008800EE100AB8EE400A5C4890ED091AAB
:1041500001EE600AF0EE000A80EE201A80ED0B1AE4
:1041600013A84089BDF84E10401A00EE100AF8EE70
:10417000C00A51484088283800EE100AB8EEC00A3C
:1041800080EE201A4D4880ED0A1A13A84089BDF828
:104190004E10084400EE100AF8EEC00A4648408867
:1041A00000EE100AB8EE400A444890ED0A1A01EEFB
:1041B000600AF0EE000A80EE201A80ED0C1A90EDF5
:1041C000090ABDEEC00A8DED090A0998002801DB35
:1041D000099801E00998404202280FDC374890ED29
:1041E0000A0ABDEEC00A8DED0A0A0A98002801DB12
:1041F0000A9801E00A984042022844DD002012900B
:104200002D484088143880B20A902B480088143812
:1042100080B24FF6FF7209900A9900F0CDF84FF482
:1042200078421421084600F0C7F825A04FF47841E1
:104230001022CDE9002102901F4840880A901E48B4
:104240000088099002461A2128200A9BFEF766FE84
:104250001A4890F8340008B9012100E000211748FD
:1042600080F8341090F8340030B19020194908706B
:10427000D0201949087005E0D02016490870902018
:104280001549087068E01F20144908804FF6FF7038
:10429000FEF762F812A04FF478411022CDE9002118
:1042A0000290054840880A90034800880990024619
:1042B0006E2120200A9B20E07C0000201C000020B2
:1042C0005450204E65656420726561646A7573742C
:1042D00021000000540000205500002002000020B2
:1042E000546F7563682053637265656E2041646A1C
:1042F000757374204F4B21001EE0FEF70FFE002067
:104300004FF6FF714FF478421023CDE90132CDE929
:10431000031014A0F022822100902020FDF7A1FEBE
:104320004FF47A7000F062FF00F04CFA4FF6FF7025
:10433000FEF712F817B000BD00BF0A2000F056FFCC
:104340000B98401C80B20B900B98B0F57A7F02DD81
:1043500000F06EF802E000BFFFF797BB00BF00BFA0
:10436000E8E70000B4A5C3FEC6C1D0A3D7BCCDEA20
:10437000B3C9A3AC4F4BA3A1A3A1000070B50446E1
:104380000D4616460B48068029462046FEF7BAF829
:10439000611C88B22946FEF7B5F8681C81B2204638
:1043A000FEF7B0F86A1C91B2621C90B2FEF7AAF850
:1043B00070BD000002000020F8B504460D46164608
:1043C0001A48068004F10D018AB2193988B22B46C9
:1043D00029460096FEF740F805F10D0083B2193822
:1043E00081B2224620460096FEF736F86A1C91B24A
:1043F000621C90B2FEF786F86A1C91B2621E90B2FF
:10440000FEF780F86A1E91B2621C90B2FEF77AF84D
:104410006A1E91B2621E90B2FEF774F8334606220D
:1044200029462046FEF780F8F8BD00000200002073
:1044300030B587B01822002101A800F0E5FC9DF8F6
:1044400015509DF816400A2C01D1012000E00020F3
:104450000DB9012100E000210840002853D02B486D
:1044600001990160046800EE104AB8EEC00ADFED61
:10447000280A80EE201A274880ED091A234802995D
:104480000160046800EE104AB8EEC00ADFED200AB1
:1044900080EE201A1F4880ED0A1A1C48039901601B
:1044A000046800EE104AB8EEC00A1A4880ED0B0A04
:1044B000164804990160046800EE104AB8EEC00A7C
:1044C000144880ED0C0A0DB1012D04D100201149D2
:1044D00081F8340003E001200E4981F834000D48D2
:1044E00090F8340030B190200B490870D0200B496F
:1044F000087005E0D020084908709020074908702E
:10450000012007B030BD0020FBE70000580000206C
:1045100020BCBE4C1C000020540000205500002090
:104520001CB501212620FEF7DFFD062000900020AB
:104530008DF804008DF8060003208DF80500012099
:104540008DF8070069461C48FDF701FE0120009028
:104550008DF8040069461848FDF7F9FD4FF4005046
:10456000009001208DF8040069461448FDF7EFFD26
:104570004FF40060009001208DF804006946104857
:10458000FDF7E5FD0F49A1F10A0000F0A3F80D4980
:10459000A1F10A0000F09EF8FFF74AFF08B10020E1
:1045A0001CBD4FF6FF70FDF7D7FEFFF71DFAFFF7B2
:1045B0003FFF0120F4E70000000402400008024031
:1045C000001402403200002070B506460025002489
:1045D00000201E4908601E49C1F8AC021D49086050
:1045E000304600F0ADF9062000F01CFE00201A490C
:1045F000C1F88002012000F015FE01201349086077
:1046000000F010FE00201449C1F8800200BF15E040
:104610004FF6FF7000EA440400200C4908600120B6
:1046200000F000FE01200C49C1F8800207487838EC
:10463000006808B1601C84B2681CC5B2102DE7DBAD
:104640002411012003490860204670BD8082404249
:1046500000804242B4024142008040422DE9FE43C4
:1046600080460027002406E04046FFF7ADFF2DF806
:104670001400601C84B2052CF6DB002416E0601CDC
:1046800085B20FE03DF814003DF81510884207DDB3
:104690003DF814603DF815002DF814002DF8156054
:1046A000681C85B2052DEDDB601C84B2042CE6DBB2
:1046B0000027012405E03DF81400384487B2601C4F
:1046C00084B2042CF7DB032097FBF0F086B230466F
:1046D000BDE8FE832DE9F04104460D460748007809
:1046E000FFF7BCFF064606480078FFF7B7FF07460E
:1046F00026802F800120BDE8F081000054000020BA
:10470000550000207FB504460D4602A903A8FFF717
:10471000E1FF064616B9002004B070BD694601A845
:10472000FFF7D8FF06460EB90020F5E7BDF80400F4
:10473000BDF80C10884206DCBDF80C10BDF8040072
:10474000323081420CDBBDF80C00BDF80410884209
:1047500036DCBDF80410BDF80C00323081422FDA8F
:10476000BDF80000BDF80810884206DCBDF808104E
:10477000BDF80000323081420CDBBDF80800BDF806
:10478000001088421CDCBDF80010BDF80800323073
:10479000814215DABDF80C10BDF80420881800EB32
:1047A000D071C1F34F012180BDF80810BDF8002081
:1047B000881800EBD071C1F34F0129800120ABE7CD
:1047C0000020A9E700B587B0214890ED090ADFED88
:1047D000210A20EE200ABDEEC00A1F4880ED000A23
:1047E000006801901A4890ED0A0ADFED1A0A20EEDF
:1047F000200ABDEEC00A184880ED000A0068029049
:10480000134890ED0B0ABDEEC00A134880ED000A74
:10481000006803900E4890ED0C0ABDEEC00A0E48E9
:1048200080ED000A006804900020094981F83400F6
:10483000084690F834008DF815000A208DF816000F
:104840001822002101A800F073FB07B000BD000092
:104850001C00002020BCBE4C5800002010B50446AF
:1048600035480068002843D12CB13449A1F10A0031
:10487000FFF748FF2AE03149A1F10A00FFF742FFA4
:1048800020B32E48163890ED0B0A90ED091A808956
:1048900000EE900AF8EE600A01EE200ABCEEC00AB3
:1048A00010EE100A254916398881084690ED0C0A49
:1048B00090ED0A1AC08A00EE900AF8EE600A01EE46
:1048C000200ABCEEC00A10EE100AC8821B48163837
:1048D00090F8200000F0800038BBC020174916393E
:1048E00081F82000084681898182C18AC1831CE049
:1048F0001248163890F8200000F0800050B10F48A0
:10490000163890F8200020F080000C49163981F804
:1049100020000AE00021094816388182C1834FF641
:10492000FF70064916398881C8820448163890F805
:10493000200000F0800010BD0482404232000020C0
:1049400070B50446002500BF17E004F0800018B1E0
:1049500001200B49086002E0002009490860600658
:10496000040E002007490860012000F05BFC0120D4
:104970000549C1F88002681CC5B2082DE5DB70BD91
:10498000AC824242808240420080404210B540F2F8
:104990002551064800F0F5F838B1044800F0AAF9AE
:1049A000C4B2214602A000F04FFE10BD004C0040F2
:1049B000CAD5B5BDC1CBD2BBB8F6D7D6B7FB3A2066
:1049C00025630D0A0000000010B540F2255106488D
:1049D00000F0D7F838B1044800F08CF9C4B2214691
:1049E00002A000F059FE10BD00500040CAD5B5BD70
:1049F000C1CBD2BBB8F6D7D6B7FB3A2025630D0A98
:104A00000000000010B540F225511D4800F0B9F833
:104A100010B31B4800F06EF9C4B21A48008800F4C5
:104A20000040C8B91748008800F4804060B10A2CE3
:104A300003D000201349088020E01248008840F489
:104A400000401049088019E00D2C06D10D4800885F
:104A500040F480400B49088010E00A480088C0F309
:104A60000D0009490C5407480088401C054908807E
:104A700008460088C72801DD0020088010BD00001E
:104A800000100140680000205013002010B540F2D3
:104A900025511D4800F075F810B31B4800F02AF9A5
:104AA000C4B21A48008800F40040C8B9174800880A
:104AB00000F4804060B10A2C03D000201349088024
:104AC00020E01248008840F400401049088019E0B6
:104AD0000D2C06D10D48008840F480400B49088019
:104AE00010E00A480088C0F30D0009490C5407483B
:104AF0000088401C0549088008460088C72801DD59
:104B00000020088010BD0000004400406A00002022
:104B10001814002010B540F22551064800F031F875
:104B200038B1044800F0E6F8C4B2214602A000F013
:104B300063FD10BD00480040CAD5B5BDC1CBD2BB96
:104B4000B8F6D7D6B7FB3A2025630D0A000000005F
:104B500021B1828942F40052828104E082894DF6BB
:104B6000FF731A408281704702460020B1F5007F32
:104B700000D100BF13880B400BB1012000E00020E2
:104B8000704770B50246002400230025002040F63F
:104B90006A16B14200D100BFC1F3421501F01F03F4
:104BA000012606FA03F3012D02D19689334006E06F
:104BB000022D02D1168A334001E0968A33400C124E
:104BC000012606FA04F41688344013B10CB1012012
:104BD00000E0002070BDF0B503460024002600254B
:104BE000002040F66A17B94200D100BF1846C1F351
:104BF000421401F01F06012707FA06F5012C01D126
:104C00000C3004E0022C01D1103000E014301AB155
:104C100007682F43076002E00768AF430760F0BDF5
:104C20002DE9FF4705460E460024A14600BFA046D9
:104C3000B08900B100BF2C8A24F44054F0880443AA
:104C40002C82AC8941F20C608443B08831890843DE
:104C5000718908430443AC81AC8A24F44074B08960
:104C60000443AC826846FEF78FFA2048854202D0A2
:104C70001F48854202D1DDF80C9001E0DDF8089074
:104C8000A88900F4004040B109EBC90000EB09100D
:104C900031684900B0FBF1F707E009EBC90000EB10
:104CA000091031688900B0FBF1F76420B7FBF0F020
:104CB00004012009642101FB1078A88900F4004058
:104CC00040B1322000EBC800B0FBF1F000F007006B
:104CD000044308E0322000EB08106421B0FBF1F03F
:104CE00000F00F0004432C81BDE8FF870010014055
:104CF0000014014001468888C0F308007047C1F3E2
:104D000008028280704700BFFEE7000010B500F087
:104D100093F900F003F9002005490860C720FEF769
:104D2000DFFB01200349C1F8B80200F0F7F810BD1D
:104D3000B88240420080404210B50446214610A08F
:104D4000FBF7FCFA240300F077F900F0E7F8002005
:104D50000D4908602020FEF7C3FBC4F30740FEF7AF
:104D6000BFFBC4F30720FEF7BBFBE0B2FEF7B8FBC6
:104D700001200649C1F8B80200F0D0F810BD0000CB
:104D800066653A25780D0A00B882404200804042AC
:104D90001CB501210220FEF7A7F901214020FEF7F2
:104DA000A3F94FF48040009001208DF8040000200A
:104DB0008DF8060003208DF8050001208DF807000E
:104DC00069460D48FDF7C3F98020009069460B48FD
:104DD000FDF7BDF980210948FDF72FFA01200849A8
:104DE0000860FEF71BFB0020FEF796FB00F034F88E
:104DF000044908801CBD0000000402400018024065
:104E0000B88240425C0000202DE9F04106460C4685
:104E1000174600200F4908600320FEF761FBC4F32A
:104E20000740FEF75DFBC4F30720FEF759FBE0B235
:104E3000FEF756FB002505E0FF20FEF751FB7055FD
:104E4000681C85B2BD42F7DB012002490860BDE85D
:104E5000F0810000B882404210B5002400200E49C5
:104E600008609020FEF73CFB0020FEF739FB002095
:104E7000FEF736FB0020FEF733FBFF20FEF730FB8A
:104E800044EA0024FF20FEF72BFB044301200349E2
:104E9000C1F8B802204610BDB882404200804042AE
:104EA00010B500240020074908600520FEF718FB14
:104EB000FF20FEF715FB044601200349C1F8B802A4
:104EC000204610BDB88240420080404270B5044682
:104ED0000D4600200F4908600320FEF701FBC5F3D3
:104EE0000740FEF7FDFAC5F30720FEF7F9FAE8B22E
:104EF000FEF7F6FAFF20FEF7F3FA2080FF20FEF718
:104F0000EFFA218801EB0020208001200249C1F83E
:104F1000B80270BDB88240420080404210B500BF68
:104F2000FFF7BEFF00F001000028F9D110BD00001E
:104F30002DE9F05F81460F461646DFF8A8B04FEA2C
:104F40001738C7F30B0ACAF58054A64200DC344672
:104F500044E04FEA08314FF480525846FFF754FFBF
:104F6000002508E00AEB05001BF80000FF2800D030
:104F700003E0681C85B2A542F4DB00BFA54216DA47
:104F80004046FFF7D9FE002507E019F8050005EBBC
:104F90000A010BF80100681C85B2A542F5DB4FEA57
:104FA00008314FF48052584600F056F804E022468B
:104FB0003946484600F050F8A64200D10FE008F10B
:104FC00001084FF0000AA1442744301B86B2B6F511
:104FD000805F02DD4FF4805400E03446B9E700BF43
:104FE000BDE8F09F5003002070B505460C4600F068
:104FF00023F800200E4908600220FEF771FAC4F37E
:105000000740FEF76DFAC4F30720FEF769FAE0B235
:10501000FEF766FA2878FEF763FA29880812FEF789
:105020005FFA01200349C1F8B802FFF777FF70BDAE
:10503000B88240420080404210B500200449086018
:105040000620FEF74DFA01200249C1F8B80210BD52
:10505000B8824042008040422DE9F04107460E46AA
:105060001446F0B2C0F58075AC4200DC254612E073
:105070002A463146384600F013F8AC4200D10BE026
:105080002F442E44601B84B2B4F5807F02DD4FF4C0
:10509000807500E02546EBE700BFBDE8F081000029
:1050A0002DE9F04106460C461746FFF7C5FF0020E4
:1050B0000F4908600220FEF713FAC4F30740FEF719
:1050C0000FFAC4F30720FEF70BFAE0B2FEF708FA76
:1050D000002504E0705DFEF703FA681C85B2BD424E
:1050E000F8DB012002490860FFF718FFBDE8F081F6
:1050F000B882404203B401984100009850EAC120B0
:1051000018BF04204A0D18BF40F0010040F2FF72A2
:10511000B2EB515F08BF40F00200012808BF052034
:1051200002B0704700B52DED048BB0EE409AF0EE62
:10513000609A83B051EC190B00F06AFD41EC180B3A
:1051400018EE100A18EE901A8DED008B002818BF8B
:105150000120084320F00040C0F17F6000F1E040F2
:10516000C00F14D019EE101A19EE900A8DED009BA5
:10517000002918BF0121084320F00040C0F17F60E2
:1051800000F1E040C00F04BF0120FBF7A6FAB0EE2B
:10519000480A03B0F0EE680ABDEC048B00BD30385D
:1051A0000A2801D2012070470020704700BF7047D5
:1051B00010B504466FF00400FEF7C2FAE11704EBE5
:1051C0005171C1F3C701074A11701046007800EB16
:1051D0004001C1EBC0104FF6FF7101EAC000024967
:1051E000088010BD5E0000206000002070B50446FD
:1051F0004FF4077094FBF0F0C6B24FF4077094FBC5
:10520000F0F100FB114085B205E04FF4077000F0AB
:105210002FF8701EC6B2002EF7D115B1284600F047
:1052200027F870BD0146114A12784A434FF0E02337
:105230005A6100229A611A46126942F001021A610B
:1052400000BF4FF0E022106900F001021AB100F433
:105250008032002AF5D04FF0E022126922F00102DC
:105260004FF0E0231A6100229A6170475E0000202F
:105270000146114A12884A434FF0E0235A61002246
:105280009A611A46126942F001021A6100BF4FF09A
:10529000E022106900F001021AB100F48032002A05
:1052A000F5D04FF0E022126922F001024FF0E02326
:1052B0001A6100229A6170476000002000BF054A11
:1052C000128802F04002002AF9D0C2B2014B9A8043
:1052D00070470000001001400EB54FF4A060FDF7CC
:1052E000F7FEA820FFF764FF4FF4E13000F052FA18
:1052F0004FF4E13000F0F8F9FDF796F9FDF764FEA0
:10530000FCF7A0FFFFF744FD4FF4784029490880DF
:1053100029E029A04FF4784110221346CDE900215D
:105320000290C82296211E20FDF7F8FD4FF4FA7076
:10533000FFF75CFF26A04FF4784110221346CDE919
:1053400000210290C82296211E20FDF7E7FD4FF4B0
:10535000FA70FFF74BFF2348006808B9012000E00E
:10536000002020490860FFF777FD4EF6147188424F
:10537000CFD11DA04FF4784110221346CDE9002172
:105380000290C82296211E20FDF7C8FD1AA0FAF748
:10539000D5FFFCF709FD1C49086880474FF6FF70F0
:1053A000FCF7DAFF40F2DC50FFF720FFFDF72CFEA0
:1053B00000F05CF8020000205732355131362043AE
:1053C0006865636B204661696C65642100000000BC
:1053D000506C6561736520436865636B21202020F4
:1053E00020202000A88242425732355131362052C7
:1053F0006561647921000000573235513136205201
:1054000065616479210D0A001C00002070B500243C
:105410004FF6FF70FCF7A0FF4FF4A073F0220021BD
:105420000846FDF76BFCFDF7BBFD00250EE00026EE
:1054300009E00849601C085C095D00EB0120064991
:105440000880A41C761CF02EF3D36D1CB5F5A07F4C
:10545000EDD370BD128100088000006C00BF011EFA
:10546000A0F10102D0B2FAD17047000000258EE011
:105470000020FCF70BFF04464548416800208847A0
:10548000434890F8200000F0800008B3404880892D
:105490004049098888421EDA3D48C08A3D4949880A
:1054A000884218DA3A4881893A4800881838814297
:1054B00006DD3748C08A102802DAFDF7A5FD0AE0AC
:1054C000334AD18A90894FF47842FEF757FF02E0C1
:1054D0000A20FFF78BFE012C07D14FF6FF70FCF777
:1054E0003BFFFEF781FAFDF78FFD2B48008800F4A3
:1054F000004000283BD028480078284908702849F7
:1055000028A0FAF71BFF29A12548FBF79DF848B909
:105510002848FEF7EFF828A0FAF710FFC821204826
:10552000FBF76FF826A11E48FBF78EF850B9264905
:105530002648FEF73EF826A0FAF700FFC8211848D3
:10554000FBF75FF824A11648FBF77EF840B9FFF798
:105550005DFF24A0FAF7F2FEC8211148FBF751F8CD
:10556000C8210F48FBF74DF800200B490880681C44
:10557000C5B2142095FBF0F100FB115038B91D485D
:10558000006808B9012000E000201A4908606FE7B0
:105590001C0000207C00002068000020000000208B
:1055A0005013002025730D0A00000000526561644D
:1055B00000000000CD4E0008526561640D0A000035
:1055C00057726974650000000D4D0008E94F00082E
:1055D00057726974650D0A005265616473686F776C
:1055E000706963005265616473686F777069630DF9
:1055F0000A000000A88242420FB430B58FB013A851
:10560000019002A8019A1299FAF786FE00200190F3
:1056100002A8FAF7D7FF054600240CE000BF80215E
:105620000848FFF7A1FA0028F9D002A8015D054853
:10563000FFF765FB641CAC42F0DB0FB030BC5DF8DB
:1056400014FB0000004800400FB430B58FB013A821
:10565000019002A8019A1299FAF75EFE00200190CB
:1056600002A8FAF7AFFF054600240CE000BF802136
:105670000848FFF779FA0028F9D002A8015D05482B
:10568000FFF73DFB641CAC42F0DB0FB030BC5DF8B3
:1056900014FB0000004C00400FB430B58FB013A8CD
:1056A000019002A8019A1299FAF736FE00200190A3
:1056B00002A8FAF787FF054600240CE000BF80210E
:1056C0000848FFF751FA0028F9D002A8015D054803
:1056D000FFF715FB641CAC42F0DB0FB030BC5DF88B
:1056E00014FB00000050004010B588B004460121B2
:1056F0004804FDF719FD01210846FDF7F5FC0722D6
:1057000002212248FCF76BFD072203211F48FCF70A
:1057100066FD0C20069002208DF81C0003208DF8F9
:105720001D0000208DF81E0001208DF81F0006A925
:105730001648FCF70CFD26208DF8040003208DF898
:1057400005008DF8060001208DF8070001A8FDF77F
:1057500083FC02940020ADF80C00ADF80E00ADF80B
:105760001000ADF814000C20ADF8120002A9084892
:10577000FFF756FA012240F225510548FFF72BFAB0
:1057800001210348FFF7E4F908B010BD0000024012
:105790000044004010B588B0044601210846FDF7DA
:1057A000A3FC01211020FDF7CFFC0722092122488C
:1057B000FCF715FD07220A211F48FCF710FD4FF4E6
:1057C000C060069002208DF81C008DF81D0000209E
:1057D0008DF81E0001208DF81F0006A91648FCF761
:1057E000B6FC02940020ADF80C00ADF80E00ADF848
:1057F0001000ADF814000C20ADF8120002A90F48FB
:10580000FFF70EFA01210D48FFF7A2F9012240F23D
:1058100025510A48FFF7DFF925208DF80400032001
:105820008DF805008DF8060001208DF8070001A80D
:10583000FDF712FC08B010BD00000240001001404E
:1058400010B500290AD00878002807D00548784408
:10585000FAF7FAFE002801D0002010BD0248784473
:1058600010BD00003E8202003682020010B5002901
:105870000AD00878002807D005487844FAF7E4FEF3
:10588000002801D0002010BD0248784410BD00005F
:105890002E82020026820200491058BFC1F1404109
:1058A0005B1058BFC3F140438B42EFF30080704759
:1058B0004FEA1153A3F58063D3F11E03A8BFD3F1C0
:1058C000200C08DB4FF0004242EAC12252EA50525B
:1058D00032FA03F0704709420BD4102BC4BF0020EA
:1058E000704703F5787CBCF1FF3F05D04FF0FF30E7
:1058F00070474FF00000704770B500F0FFF800BF30
:105900004992248000207047F0E7B0FA80F310FA43
:1059100003F10AD0C3F11D0303F580634FEA415040
:105920004FEA035202EBD12170474FF0000070475D
:1059300051EA030C17D41CF5801F58BFBCF5801F1B
:1059400000F10680994218BF704708BF9042704727
:1059500007D711F5801F58BF13F5801F19D499423E
:105960007047894270471CF5801F08D5BCF5801F21
:10597000F7D58B4218BF704708BF824270474FF47B
:10598000001C1CEB410F38BF1CEB430F01D28B42B4
:10599000704770B500F0B2F8922449004FF0005102
:1059A0004FF08053FFF778BFDFF848C170B51CEAAD
:1059B000111E1EBF1CEA13159EEA0C0F95EA0C0F70
:1059C00000F06F8081EA030423EA4C134EEAD47E90
:1059D00021EA4C1141F4801143F48013AE44A1FB41
:1059E000024CA0FB0365AEF17F7E361955EB0C052A
:1059F000A1FB034C4CF10003A0FB021C16EB0C06B0
:105A0000654153F10003094218BF46F0010613F443
:105A1000007F0BD14FEA03314FEA0530340341EAEE
:105A2000155140EA16506FF003020AE04FEAC32115
:105A30004FEAC520F40241EA555140EA56506FF052
:105A4000020202EB2E4201EB025585EACE710AD02A
:105A50005FEA440C18BF24F0004450F1000041F10B
:105A6000000120EAD47040F2FE7C624500D270BD95
:105A7000A84214BF4FF080444FF04044002E08BFAE
:105A80000024BEF1806FA8BFA1F1C041BDE8704005
:105A900080F282804FF0000001F1C04101F000412E
:105AA00070479EEA0C0F0CEA131518BF95EA0C0F0D
:105AB00006D04FF0000081EA030E0EF0004170BDE9
:105AC00000F01CF88900013E00F007B800F009B8AA
:105AD0004FEA430C5FEA5C5C08D081EA030100F006
