:020000040800F2
:10000000080B0020D5020008A92D0008472500088C
:10001000A52D0008CF1C0008D339000800000000FF
:10002000000000000000000000000000D5340008BF
:10003000391D00080000000009300008ED350008F7
:10004000EF020008EF020008EF020008EF020008CC
:10005000EF020008EF020008EF020008EF020008BC
:10006000EF020008EF020008EF020008EF020008AC
:10007000EF020008EF020008EF020008EF0200089C
:10008000EF020008EF020008EF020008EF0200088C
:10009000EF020008EF020008EF020008EF0200087C
:1000A000EF020008EF020008EF020008EF0200086C
:1000B000EF020008EF020008EF020008EF0200085C
:1000C000EF020008EF020008EF020008EF0200084C
:1000D000EF020008D136000859370008E137000860
:1000E000EF020008EF020008EF020008EF0200082C
:1000F000EF020008EF020008EF020008EF0200081C
:10010000EF020008B9310008EF020008EF02000812
:100110005936000895360008EF020008EF02000883
:10012000EF020008EF020008EF020008EF020008EB
:10013000EF020008EF020008EF020008EF020008DB
:10014000EF020008EF020008EF020008EF020008CB
:10015000EF020008EF020008EF020008EF020008BB
:10016000EF020008EF020008EF020008EF020008AB
:10017000EF020008EF020008EF020008EF0200089B
:10018000EF020008EF02000800F002F800F092F819
:100190000AA090E8000C82448344AAF10107DA45E2
:1001A00001D100F087F8AFF2090EBAE80F0013F0A2
:1001B000010F18BFFB1A43F001031847D83E000097
:1001C000F83E0000103A24BF78C878C1FAD8520728
:1001D00024BF30C830C144BF04680C6070470000C1
:1001E0000023002400250026103A28BF78C1FBD840
:1001F000520728BF30C148BF0B6070476E2900F01E
:100200004B83702900F04B81662903F0C086652975
:1002100003F0BD86672903F0BA86612903F0B98629
:1002200003681B0A28BF41F08001692900F0F882A9
:10023000642900F0F582752900F0F2826F2900F040
:100240004284782900F01781E92900F0DD83E42950
:1002500000F0DA83F52900F0D783EF2900F03F841E
:10026000F82900F016810368DB0928BF41F08001FE
:10027000632900F04C83732900F05183E32901F0D6
:100280003D80F32901F04280002070471FB503F044
:1002900079FE01F095F804000020002103F05CFED7
:1002A000401C60600020002103F040FEE0601FBDA4
:1002B00010B510BD01F056F81146FFF7E7FF03F047
:1002C0003FFC01F033F903B4FFF7F2FF03BC03F086
:1002D000A1FB00000948804709480047FEE7FEE708
:1002E000FEE7FEE7FEE7FEE7FEE7FEE7FEE7FEE7E6
:1002F00004480549054A064B70470000F1350008DF
:100300008901000808050020080B002008070020CC
:1003100008070020704700001CB50C46064B7B44C4
:1003200069460090204600F0D0FA04460020694655
:1003300000F0DEFA20461CBDCF0500000FB40449D2
:1003400010B503AA029800F0EFFA10BC5DF814FB98
:10035000200000200FB41CB5084B06AA7B44694658
:100360000090059800F0B1FA04460020694600F0BC
:10037000BFFA20461CBC5DF814FB0000910500008C
:1003800070B5044685690068C10601D5302600E0D5
:100390002026C00707D070BDD4E901213046904720
:1003A000206A401C20626D1EF6D570BD70B50446F3
:1003B00085690078C00707D170BDD4E901212020EC
:1003C0009047206A401C20626D1EF6D570BD70B546
:1003D0000C460546012A05D02878800600D5EA6932
:1003E000002302E0012305E05B1C934202D2E05CA3
:1003F0000028F9D1A869E618C01AA861286A18442B
:1004000028622846FFF7BCFF04E0D5E9012114F873
:10041000010B9047B442F8D32846FFF7C7FF70BDE1
:10042000F0B40D460188090502D5214C7C4402E058
:100430001F4C7C440E34002100F1240608E002F039
:100440000F071209E75D42EA03721B097754491C42
:1004500052EA0307F3D102780023120704D5702D66
:1004600006D009B1022311342246F0BC00F07EB957
:1004700001231034F8E770B504460D462146106894
:1004800000F06BF9024629462046BDE87040002383
:10049000C6E7D21D22F00703D3E90023C0E70368B3
:1004A000126843F0200303600823C3610023B7E709
:1004B000663B00002DE9F05F894604464FF0000AD4
:1004C000DFF874B1FB44C0F820A02046E1688847FB
:1004D000002874D0252806D0D4E901219047206A4D
:1004E000401C2062F1E700265F462046E16888470D
:1004F0002028054607DB312D05D2781910F8200C8D
:1005000008B10643F1E7B00701D526F00406C4F8A8
:100510001CA00027C4F818A02A2D09D0284603F0F3
:1005200072FA38B304EB8708303DC8F8185019E068
:1005300059F8041B204604EB87029161E168884763
:10054000012F054618D1E069002820DA26F02006A0
:100550001DE0D8F8180000EB800005EB40003038B3
:10056000C8F818002046E1688847054603F04BFAB2
:100570000028EED1012F0AD02E2D08D12046E168A7
:1005800088477F1C0546022F46F02006C4DBA06981
:10059000002803DA404246F00106A061F00701D0CE
:1005A00026F010066C2D0BD0682D09D04C2D39D0BB
:1005B0006A2D35D0742D35D07A2D33D016E038E041
:1005C000E1682F4620468847B842054609D16C2F7E
:1005D00026D04FF48060E1680643204688470546F0
:1005E00004E06C2F1AD04FF4807006430DB3A5F1D0
:1005F0004100192802D8203546F400664A462946AB
:10060000204626604E46FFF7F9FD80B101280BD049
:10061000F61D26F0070000F1080956E74020E4E740
:100620008020D8E70020D6E706F104094DE72846E8
:1006300052E7206ABDE8F09FF63A000010B5431C6F
:1006400002E010F8011B71B18107FAD14FF00132BD
:1006500002C88C1A8C4314EAC211F9D0C01A0A06D7
:1006600003D0C01E10BDC01A10BD0A0401D0801EE8
:1006700010BD0902FCD0401E10BD4FF0000204293D
:10068000C0F0128010F0030C00F03682CCF1040CA4
:10069000BCF1020F18BF00F8012BA8BF20F8022BF5
:1006A000A1EB0C0100F028BA5FEAC17C24BF00F87E
:1006B000012B00F8012B48BF00F8012B7047000008
:1006C0004FF0013C50F8042B51F8043B9A4221D1E1
:1006D000A2EB0C03934313EACC1317D150F8042B6D
:1006E00051F8043B9A4215D1A2EB0C03934313EA51
:1006F000CC130BD150F8042B51F8043B9A4209D18A
:10070000A2EB0C03934313EACC13DBD04FF00000B1
:10071000704700BFD01A01BAB1FA81F101F0180197
:1007200022FA01F0CB40C1F12001DBB2C0B2C01A05
:100730002CFA01F3D11A914311EAC311E6D17047A3
:10074000704770477047704709684A0501D540B245
:100750007047C905FCD500B2704709684A0501D544
:10076000C0B27047C905FCD580B270472DE9F0478B
:100770000D4699469246044600F124080168880611
:1007800004D5E06921F01001216000E00120A842B9
:1007900001DD471B00E00027A1697A1902EB09007F
:1007A000081AA0612078C00602D42046FFF7E8FDB1
:1007B000002608E0D4E901211AF806009047206AD3
:1007C000401C761C20624E45F4DB2078C0060AD51A
:1007D0002046FFF7D5FD06E0D4E9012130209047FF
:1007E000206A401C2062381EA7F10107F4DC07E0F4
:1007F000D4E9012118F805009047206A401C2062C6
:10080000281EA5F10105F3DC2046FFF7CFFD207877
:10081000000602D50220BDE8F0870120FBE70000BA
:100820002DE9F0410646002410687529314616A5C9
:1008300010D0FFF789FF002802DA404213A507E035
:1008400031688A0701D512A502E0490704D511A530
:10085000012401E0FFF781FF00210A2206F12407AD
:1008600009E0B0FBF2FCB0FBF2F302FB1C003030FD
:1008700078541846491C0028F3D123462A463046AE
:10088000BDE8F041FFF772BF000000002D0000003E
:100890002B0000002000000011680268006A530568
:1008A00001D508700AE0D30501D5088006E01306DB
:1008B00003D5C217C1E9000200E0086001207047BB
:1008C00001694A1C02610878704700B58FB0CDE914
:1008D00001310021059105497944CDE90310114604
:1008E0006846FFF7E7FD0FB000BD0000E5FFFFFF22
:1008F0000A6802F8010B0A60704710B5436913B12A
:10090000AFF3008001E0FFF762FD012010BD127817
:1009100000F124010A7000224A700122EDE71168FB
:100920004FF0FF32E9E70000074B70B50D467B44FE
:10093000FFF7CBFF0446284600F0ECFC10B14FF067
:10094000FF3070BD204670BDF33100002DE9FF5F20
:1009500015468A460446DFF8AC80F8440027D8E9FB
:1009600000103E46CDE9001010E03AF816106A4635
:1009700002A800F0D3FC411C07D02178890603D5DA
:10098000E269391891420DD80744761C2078800618
:1009900002D5E069B84205DDAE42E6DB3AF8160062
:1009A0000028E2D1A069C01BA0612046FFF7E8FC47
:1009B000D8E90010CDE90010002017E03AF818102F
:1009C0006A4602A800F0AAFCB0F1FF3F81460BD0B6
:1009D00000250DF1080B05E0D4E901211BF8050005
:1009E00090476D1C4D45F7D308F10100B042804699
:1009F000E4DB206A384420622046FFF7D7FCBDE8DC
:100A0000FF9F0000723600002DE9F0418046D21DA4
:100A100022F007020025D2E90002F52915A614D01C
:100A2000011E72F1000106DA0023D0EB030063EB34
:100A3000020211A608E0D8F800108B0701D50FA616
:100A400002E0490701D50EA601251146002408F150
:100A5000240704E000F075F830323A55641C50EA7F
:100A60000102F7D12B46324621464046BDE8F0410F
:100A7000FFF77CBE000000002D0000002B000000EE
:100A80002000000030B4002100F1240408E002F04E
:100A90000705D208303542EA4372DB086554491C29
:100AA00052EA0305F3D10468002310A2250707D5F5
:100AB000A40600D421B1C46901230DA2641EC4613F
:100AC00030BCFFF753BE10B5044621461068FFF74F
:100AD00044FE02462046BDE810400023D2E7D21D66
:100AE00022F00701D1E90023CCE70000000000005C
:100AF000300000004FF0000200B5134694469646C1
:100B0000203922BFA0E80C50A0E80C50B1F1200120
:100B1000BFF4F7AF090728BFA0E80C5048BF0CC0CE
:100B20005DF804EB890028BF40F8042B08BF70472C
:100B300048BF20F8022B11F0804F18BF00F8012B9E
:100B4000704730B5B0F10A024FEA900E71F1000320
:100B50004EEA817EB0EB0E0061EB91014FEA101E70
:100B60004EEA017E10EB0E0041EB11114FEA102E00
:100B70004EEA016E10EB0E0041EB11214FEA104ED0
:100B80004EEA014E10EB0E0041EB1141401841F1CD
:100B900000014FEAD00040EA41704FEAD10110EB6A
:100BA00080054FEA810444EA907444EB01046D1916
:100BB00044EB0404521BA3414FF0000348BF0A3228
:100BC00000D530BD401C41F1000130BD70472DE91A
:100BD000FF4F0C461E464FF0FF378BB0D2E90001A5
:100BE000DDF860800A908A46C1F30A5505B93D4692
:100BF000002108464FF00000BAF1000F00F4400059
:100C000005DA00EB80004FF4400101EA50004FEAA2
:100C10009059B9F1010F00DDB9460A9850EA4A002F
:100C20000ED044F61050A5F2FF3545432F14B8F10D
:100C3000000F1ED07542291E1EDDC9F100021CE006
:100C4000B8F1010F4FF0000001D0302103E0F24372
:100C500005E02154401CB042FBDB3046002200215D
:100C600021540B99C1F80880C1E900200FB0BDE8FC
:100C7000F08FBD1B6D1CDEE74A4600DA694206A80C
:100C800000F0E2FB06AB93E8070003AB83E8070044
:100C900050460A9900F053FC8DE80700A0F500507B
:100CA0001F3800900398002D0ADD42F21F014A46CA
:100CB0000844002303A90390684600F0BCFE09E045
:100CC000A0F500504A461F38002303A90390684648
:100CD00000F0C6FE8DE807000004000C03D04FF0C2
:100CE000FF30410800E01046B8F1000F03D00022A9
:100CF000009215461EE0751E05D4FFF722FF303224
:100D000062556D1EF9D5B3460122084302D0002278
:100D10007F1C04E02078302801D100227F1E002AA9
:100D2000099784D01DE0112D07DAFFF70AFF303252
:100D300062556D1C50EA0102F5D1084302D00098BB
:100D4000C8B10EE00021681E05E0235C625C6354BC
:100D50002254401E491C8142F7DBAB46A81B401EB3
:100D60000990002004F80B000B98099AC0F808803D
:100D7000C0E9002B7AE711264FF0000857E72DE96C
:100D8000F04F88460446D21D22F0070191B0D1E908
:100D90000001CDE90A0102F01EFE02460B98C00FC9
:100DA00001D02D2007E02068810701D52B2002E02B
:100DB000202101EAC000032A099001D0072A05DB9F
:100DC00003464146204600F0FFFA0BE120788006FA
:100DD00001D5E06900E00620B8F1650F814606D034
:100DE000B8F1660F18D0B8F1670F70D131E000206C
:100DF000B9F1110F009001DB112301E009F10103AA
:100E00000AAA01A90CA8FFF7E2FEDDE90C70002692
:100E100009F10105834647E001204B4600904FF061
:100E200000470AAA01A90CA8FFF7D1FEDDE90DB021
:100E30000C995D46002610B909F101000D18B9EBB7
:100E4000050003D4C0F1FF3609F10105A5EB090047
:100E50002BE0B9F1010F01DA4FF001090020B9F1DF
:100E6000110F0090484601DD112300E003460AAA55
:100E700001A90CA8FFF7ABFEDDE90C704D4600267A
:100E80008346207800070AD4AB4500DA5D4601A806
:100E9000012D04DD411911F8011C302907D04F45FF
:100EA00002DA17F1040F04DA012082460FE06D1E0A
:100EB000EEE7002F02DCED1B3E4403E0781CA84265
:100EC00000DD7D1CB81B00F1010A4FF000472078BF
:100ED000000703D4AA4501DB4FF0FF3A0021B7F128
:100EE000004F0DF143088DF8431024D002202B232E
:100EF000002F01DA7F422D230A21021EA0F10100FA
:100F000000DC5FB197FBF1FC97FBF1F201FB1C7C6D
:100F100017460CF1300C08F801CDEEE7A8F10100FE
:100F200003702188090501D5452100E06521A0F164
:100F3000010800F8011C09980FA9A1EB0807FF1D83
:100F400000B10120411901EBEA70A1693844081A87
:100F5000401EA0612078C00602D42046FFF710FA98
:100F6000099828B1D4E901219047206A401C2062E9
:100F70002078C00622D52046FFF702FA1EE0002E98
:100F800004DBB34502DD01A8805D00E03020D4E938
:100F900001219047206A401C2062761CAAF10100C2
:100FA0005FEA000A0AD100F00BFAC0680168405CF1
:100FB000D4E901219047206A401C2062281EA5F137
:100FC0000105DCDC07E0D4E9012118F8010B9047AA
:100FD000206A401C2062381EA7F10107F3DC20467E
:100FE000FFF7E4F9032011B041E600002DE9F04FCE
:100FF00004460D46D21D22F0070089B0D0E90097C3
:101000004846394602F0E7FC0246F80F01D02D238E
:1010100007E02068810701D52B2302E0202101EAA7
:10102000C0038DF820300BB1012000E00020032A1E
:10103000824601D0072A04DB2946204600F0C4F985
:101040003FE12078800601D40D2500E0E569C7F373
:101050000A560D2D49DA00214FEA175B08464FF07A
:101060000000002F00F4400007DA00EB80004FF48E
:10107000400100EBD07001EA60008115012901DD1B
:101080004FF0FF3100224FEA850CBCF1180F06D358
:101090001346ACF118004FF08052C24003E04FF409
:1010A000801323FA0CF30CF10C0CBCF1200F04D3C9
:1010B000ACF1200C09FA0CF001E007FA0CF0002961
:1010C0004FF0004801DD18B90FE00ED140450CD3B8
:1010D00019EB02095F4121B9404502D19F4329EA3A
:1010E0000209BBEB175F00D0761C2088000502D5F3
:1010F0007B48784402E07A487844193808AA3023BB
:1011000002F80A30037C0AF10101002E0AF1020AFA
:1011100053546A4602DC4FF0300101E04FF03101D8
:101120004FF001088DF8001002D0A6F2FF3603E060
:1011300059EA470100D06B4E002D02DC21780907E7
:1011400004D54FF002082E218DF80110C44600216D
:101150000BE0C7F303433F01C35C491C6D1E02F85B
:101160000830052908F1010801DA002DF1DC002121
:101170000CE000EB1973491C1B786D1E082902F85E
:1011800008304FEA091908F1010801DA002DF0DCF6
:1011900021688B0602D516E0A8F10108E04505DDBF
:1011A00002EB080313F8013C302BF5D0B8F1000F27
:1011B00009DD02EB080313F8013C2E2B03D10907CC
:1011C00001D4A8F10108002D05DD3E2102F8081028
:1011D0006D1E08F10108407C002E02F8080008F19D
:1011E000010804DA2D20764202F8080002E02B20E4
:1011F00002F808000A214FF47A70864208F10108CB
:101200000BDB96FBF0F3303302F8083096FBF0F37B
:1012100008F1010800FB136601E0642E0CDB64207A
:1012200096FBF0F3303302F8083096FBF0F308F148
:10123000010800FB136601E00A2E06DB96FBF1F0C5
:10124000303002F8080008F1010896FBF1F001FBCC
:101250001060303002F80800A16908F1010808EBBD
:10126000050202EB0A00081AA0612078C00602D429
:101270002046FFF785F8216A08AE01EB0A002062DC
:1012800004E0D4E9012116F8010B9047BAF1010AF4
:10129000F7D22078C00602D52046FFF771F86E46D7
:1012A00009E016F8010B3E280FD0D4E90121904740
:1012B000206A401C2062B8F10108F2D22046FFF7F4
:1012C00075F809B00320BDE8F08F206A2844206239
:1012D00003E0D4E90121302090476D1EEBD3F8E7FD
:1012E000F52E000002FCFFFF10B5436913B1AFF308
:1012F000008001E0FFF72AFB012010BD128800F1F9
:10130000240182840022C2840122EDE711684FF09B
:10131000FF32E9E7007B00F08000704770B51646A9
:101320000C46054600F044F8036893F801010128D3
:1013300006D0FF2C0FD8185D68B101202C7070BD4D
:10134000D3F807013246214603F207130344284627
:10135000BDE8704018474FF0FF3070BD004870473F
:10136000A80400207546FFF7F9FFAE460500694660
:10137000534620F00700854618B020B5FEF7B8FFA9
:10138000BDE820404FF000064FF000074FF0000886
:101390004FF0000B21F00701AC46ACE8C009ACE807
:1013A000C009ACE8C009ACE8C0098D467047000030
:1013B00010B500F005F8001D10BD00BF9D2B00000A
:1013C00000487047C80400202DE9F0411F4604463C
:1013D00003260168072A01F4006004DB08B116A5A2
:1013E00005E016A503E008B115A500E015A521F05C
:1013F00010002060A069C01EA0610FB1401EA06156
:101400002046FEF7BDFF4FB1D4E901213846904791
:10141000206A401C2062C01C206206E0206AFAE7B5
:10142000D4E9012115F8010B9047761EF8D2204629
:10143000FEF7BCFFBDE8F0814E414E006E616E00CC
:10144000494E4600696E66002DE9F0478146164612
:101450008AB0354878440DC88DE80D00324878448C
:10146000801C03AC0DC884E80D0041F69B30084495
:10147000372190FBF1F290FBF1F5A5F1800501FB1E
:1014800012041B3C02D56442012000E00020DFF87A
:1014900098A080460027FA44AAF1BE0A0EE0E007B1
:1014A0000AD03246684607EB470101230AEB810167
:1014B00000F0D6FA8DE8070064107F1C002CEED1F6
:1014C000194F7F44AE3F19E0E80715D007EB041031
:1014D0000DF1180A90E80E008AE80E00C068F0428C
:1014E00001D1981908903246012306A903A800F0FB
:1014F000B7FA03AB83E807006D10641C002DE3D13D
:101500004FF0010332466946B8F1000F03A802D03C
:1015100000F091FA01E000F0A3FAC9E90001C9F86E
:1015200008200AB0BDE8F087242C000010B504465E
:10153000AFF300802046BDE81040FEF7C4BE5FEA6E
:10154000400C08BF91F0000F4FEA8C234FEAC122F4
:1015500043EA51514FEA1C5018BF00F5F0404FEAE2
:10156000300018BF41F000415FEA6C5C00F0298058
:10157000BCF1FF3F08BF40F080407047130C06BF2E
:1015800012044FF0100C4FF0000C130E04BF1202A7
:101590000CF1080C130F04BF12010CF1040C930F93
:1015A00004BF92000CF1020CD30F04BF52000CF1E7
:1015B000010C11464FF00002A0F11F00A0EB0C003F
:1015C000704711F0004F08BF704731F000413FF401
:1015D000D5AF0B0C06BF09044FF0100C4FF0000CF8
:1015E0000B0E04BF09020CF1080C0B0F04BF09011C
:1015F0000CF1040C8B0F04BF89000CF1020CCB0F13
:1016000004BF49000CF1010CCCF12003A0EB0C004D
:1016100022FA03F302FA0CF241EA030100F101009D
:10162000704720F07F4C80EA030023F07F47ACEB4B
:10163000070303F57C5300F0004003F1FF032DE99D
:1016400080494FEA154B09B44FEA144325EA0B4E83
:1016500024EA03480FF2042606EB132749083E78D4
:101660005FEA320203FB0667C7F5000707FB06F6D1
:101670004FEA54374FEAD64606F1020607FB066CDE
:10168000CCF1005C4FEA1C472CEA074C07FB06F440
:101690000CFB06F504EB15464FEA961634BF002006
:1016A0004FF000404FEAD13706FB07FC4FEA1C4CD5
:1016B0000CFB0BF7D21B03FB0CF761EB07010CFBD8
:1016C0000EF7B0EB074072EB17420CFB08F734BF84
:1016D000A2EB0742B2EB074261EB17414FEA0C4421
:1016E0004FEA910706FB07FC4FEA1C4C0CFB0BF77B
:1016F000B0EBC74072EB573203FB0CF734BFA2EBE1
:10170000C742B2EBC74261EB57310CFB0EF7B0EBAF
:10171000C70072EB57720CFB08F734BFA2EBC7028D
:10172000B2EBC70261EB5771039F4FEA816141EA57
:10173000921104EBCC044FEAD1374FEA826206FBE8
:1017400007FC42EA90124FEA80604FEA1C4C0CFB07
:101750000BF7D21B03FB0CF761EB07010CFB0EF739
:10176000B0EB074072EB17420CFB08F734BFA2EB5B
:101770000742B2EB074261EB17414FEA8C554FEA43
:10178000910704EB9C2406FB07FC4FEA1C4C0CFB66
:101790000BF7B0EBC74072EB573203FB0CF734BFCB
:1017A000A2EBC742B2EBC74261EB57310CFB0EF71D
:1017B000B0EBC70072EB57720CFB08F734BFA2EB1B
:1017C000C702B2EBC70261EB577115EB4C254FEA2C
:1017D000816141EA92114FEA82624FEAD13742EACF
:1017E000901206FB07FC44F100044FEA80604FEAC8
:1017F0001C4C0CFB0BF7D21B03FB0CF761EB070136
:101800000CFB0EF7B0EB074072EB17420CFB08F72E
:1018100034BFA2EB0742B2EB074261EB174115EB75
:101820001C154FEA813141EA92414FEA823242EA85
:1018300090424FEA80304FEA0C7644F1000448EAC7
:1018400003434EEA0B484FF0000EB2EB080C71EB6D
:10185000030724BF624639464EEB0E0E4FF0000BD5
:101860000018524149414BEB0B0BB2EB080C71EBEA
:1018700003077BF1000B24BF624639464EEB0E0E88
:101880004FF0000B0018524149414BEB0B0BB2EBF0
:10189000080C71EB03077BF1000B24BF624639464D
:1018A0004EEB0E0E51EA020718BF46F0010616EB8A
:1018B0000E7655F1000254F1000103D5BDE889010F
:1018C000BDE80088BDE88901BDE80048B61952416D
:1018D00041EB0101A3F10103704780807F7E7D7C95
:1018E0007B7A7978777676757473727171706F6EB2
:1018F0006E6D6C6C6B6A6A6968686766666564645D
:10190000636362616160605F5F5E5E5D5D5C5C5BE6
:101910005B5A5A5959585857575656555555545455
:10192000535352525251515050504F4F4F4E4E4DB3
:101930004D4D4C4C4C4B4B4B4A4A4A4949494848FF
:10194000484747474746464645454544444444433F
:1019500043434342424242414141002B9C4630D4E2
:1019600077002BD01CB54FEA370703B44FF01000B7
:101970004FF01001BAF1000F06D0BCF1000FDCBF30
:1019800040F0080040F008014FF000000FBCBDE837
:1019900010400BF1010BBBF1010F08BF5FEA170705
:1019A00022BF12F1010211F101014FF0004143F198
:1019B000000300F0004043EA00007047F9D35708E5
:1019C000D0E746EA064613F1400F4FEA16461FDD00
:1019D00013F1200FDFBF16430A46002120335B427C
:1019E000BED0C3F1200746EA064602FA07F74FEADF
:1019F000164646EA0706C3F1200722FA03F201FA67
:101A000007F721FA03F14FF0000342EA0702A7E7C4
:101A100046EA020646EA06464FEA164646EA010646
:101A2000BCBF46EA0646360C4FF000034FF00002FA
:101A30004FF0000194E72DE9804C9A46934670B42C
:101A400091E8380007C831EA400C48BF34EA430C3B
:101A500003D5FFF7E6FDFFF780FFF0BCBDE8008C83
:101A60002DE9804C9A46934670B491E8380007C837
:101A700010F0804F08BF13F0804F03D100F005F83D
:101A8000FFF76BFFF0BCBDE8008C20F07F4780EAD9
:101A9000030023F07F4C07EB0C03A3F57C5300F00D
:101AA0000040A3F1FE0392F0000F00F0B38095F028
:101AB000000F00F077802DE901494FEA11404FEA0D
:101AC000144621EA004800FB06FC24EA064708FB0E
:101AD00006F607FB08F800FB07F718EB06484CEB87
:101AE000164C4FEA124B18EB07484FEA15464CEBE1
:101AF000174022EA0B4E0BFB06FC25EA06470EFBBD
:101B000006F607FB0EFE0BFB07F71EEB064E4CEB33
:101B1000164C4FF000061EEB074E4CEB174B18EB24
:101B20000B0840F1000018EB0E0B58EB000840F1D9
:101B300000008F1A4FF000013CBFC943661B14BF61
:101B4000B5EB040C00213CBFC943F61B4FEA174418
:101B50004EEA8E0E27EA04454FEA1C4704FB076253
:101B60002CEA074C05FB07F70CFB05F604FB0CFC05
:101B700016EB074642EB174216EB0C4642EB1C42B3
:101B80001BEB060658EB0202414146EA9E0601D5D0
:101B9000BDE80189B619524141EB0101A3F10103EE
:101BA000BDE801894FEA14454FEA114724EA05468A
:101BB00021EA074C05FB07F406FB07F70CFB06F1CF
:101BC00005FB0CFC11EB074144EB17444FEA1247AD
:101BD00011EB0C4144EB1C4422EA074C05FB07F2D5
:101BE00006FB07F70CFB06F605FB0CFC16EB07469D
:101BF00042EB174216EB0C4642EB1C456A1854F1B7
:101C0000000148BF7047B619524141EB0101A3F1F1
:101C10000103704795F0000F37D04FEA11424FEAA9
:101C2000144721EA024624EA074C02FB07F106FBAF
:101C300007F70CFB06F402FB0CFC14EB074441EB2A
:101C400017414FEA154714EB0C4441EB1C4125EAC0
:101C5000074C02FB07F506FB07F70CFB06F602FB39
:101C60000CFC16EB074645EB174516EB0C4645EB0F
:101C70001C42121951F1000148BF7047B619524178
:101C800041EB0101A3F1010370474FEA14454FEA0C
:101C9000114724EA054621EA074C05FB07F106FB3C
:101CA00007F70CFB06F24FF0000605FB0CFC12EBED
:101CB000074241EB174112EB0C4251EB1C4148BF6C
:101CC0007047921841EB0101A3F10103704700BF77
:101CD000FEE7000070B5044605E01648056805F00B
:101CE000450000B100E0F8E700BF042001F058FA19
:101CF00020B1042001F04EFA032070BD012001F054
:101D00004FFA20B1012001F045FA0120F5E709481A
:101D100024380068A04201D01020EEE740F2FF50C6
:101D200001F038FA03482038006808210840C0B2A2
:101D3000E3E70000342C0140704700002DE9F04338
:101D400085B004460D4617461E460E480088001B07
:101D50001FFA80F80B484088401B1FFA80F90020CA
:101D60000949098810224B46CDE901270096CDE9A3
:101D7000031042462946204600F0F7FA05B0BDE8B8
:101D8000F0830000440000200400002051B18200D4
:101D9000A2F1C042126842F001038200A2F1C042E7
:101DA000136009E08200A2F1C0421268034B1A409E
:101DB0008300A3F1C0431A6070470000FEFF0F00CC
:101DC000D0E901121143C26811430269114342690B
:101DD000114382691143C2691143026A1143426A85
:101DE0001143826A1143C26A1143026B11430268B4
:101DF0009200A2F1C0421160816808290BD10168EC
:101E00008900A1F1C041096841F0400201688900E0
:101E1000A1F1C0410A60416B0968426B526841EA16
:101E20000211426B926841EA0221426B928941EAB7
:101E30000241426B128A41EA0251426B127D41EA31
:101E40000261426B926911430268521C9200A2F136
:101E5000C0421160C16AB1F5804F1BD1816B096826
:101E6000826B526841EA0211826B926841EA022158
:101E7000826B128A41EA0251826B127D41EA026151
:101E8000826B9269114302689200A2F1C042C2F8CB
:101E9000041107E06FF0704201688900A1F1C041B0
:101EA000C1F80421704700002DE9F04106460C46B8
:101EB00017464FF40051144800F043FB052000F092
:101EC000BDFA032000F022F8C4F3074000F01EF82A
:101ED000C4F3072000F01AF8E0B200F017F800256C
:101EE00005E0FF2000F012F87055681C85B2BD4275
:101EF000F7DB4FF40051044800F021FB052000F00F
:101F00009DFABDE8F08100000008024070B504466B
:101F100000251EE004F08000802804D10101114852
:101F200000F00FFB04E04FF400610E4800F007FBE7
:101F300001210D4800F003FB6006040E04210A484D
:101F400000F0F4FA04430121074800F0FAFA681C93
:101F5000C5B2082DDEDB0121034800F0F2FA20466D
:101F600070BD000000140240000402402DE9F0475B
:101F70000746884691461C463E78B9F1200F1ED090
:101F800009DCB9F10C0F0DD0B9F1100F0FD0B9F178
:101F9000180F20D10FE0B9F1300F14D0B9F1400F74
:101FA00019D114E006FB04F000F5002515E00F48F8
:101FB00006FB040511E00E4806FB04050DE00D4884
:101FC00006FB040509E00C4806FB040505E00B4888
:101FD00006FB040501E0BDE8F08700BF2246294664
:101FE0004046FFF761FF00BFF5E70000000808006A
:101FF00000120800002608000048080000920800AF
:102000002DE9FF5F82460F4698469AF800900AF144
:10201000010082460478B9F1810F06DB402C04DB15
:10202000FF2C02D0B9F1FF0F0DD14FF0000B06E0ED
:10203000002007F8010B0BF101001FFA80FBC345DC
:10204000F6DBBDE8FF9F7F2C03DAA4F14000C4B2A9
:1020500002E0A4F14100C4B2A9F1810000F0FF093F
:10206000BE2010FB094000FB08F502980C2806D0A2
:10207000102807D0182808D020280CD108E00A48DA
:102080002E1809E009482E1806E005F5ED1603E0C4
:1020900005F5601600E0D4E700BF424631463846F9
:1020A000FFF702FF00BFCCE70014090000DD1100BC
:1020B0001CB50121262000F0A9FF06200090002079
:1020C0008DF804008DF8060003208DF8050001202E
:1020D0008DF807006946134800F0BDF90120009013
:1020E0008DF8040069460F4800F0B5F94FF4005030
:1020F000009001208DF8040069460B4800F0ABF910
:102100004FF40060009001208DF8040069460748F4
:1021100000F0A1F90121034800F013FA00F008F8DB
:102120001CBD0000000402400008024000140240F0
:1021300010B586B04FF6FF7000F008FA002404E0F6
:1021400000200DF80400601CC4B2182CF8DB11222A
:1021500000216846FFF7A8FE6B464FF47842102135
:102160000846FFF7EBFD002404E000200DF8040012
:10217000601CC4B2182CF8DB082214216846FFF753
:1021800093FE6B464FF4784220211020FFF7D6FDD6
:10219000002404E000200DF80400601CC4B2182CD8
:1021A000F8DB08221E216846FFF77EFE6B464FF4DF
:1021B000784230211020FFF7C1FD4FF4FA7001F092
:1021C00049FC06B010BD2DE9FF4FC1B080460D4659
:1021D0001C46AB462046E31704EB5373DB10214645
:1021E0004FEAE47C04EB5C7C4FEAEC0CA4EBCC0CF7
:1021F000BCF1000F02D04FF0010C01E04FF0000CD9
:102200006344224604EBD27C4FEA6C0C03FB0CF3D4
:102210009FB20C2C0CD0102C0AD0182C08D0202CDB
:1022200006D0302C04D0402C02D045B0BDE8F08F51
:102230003B46224601A94398FFF798FE00262FE06F
:1022400001A810F806904FF0000A23E009F0800082
:1022500028B1294640464E9A00F0F8F906E0509819
:1022600020B9294640464F9A00F0F0F94FEA4960FC
:102270004FEA1069681C85B2A5EB0B00A04205D19E
:102280005D4608F101001FFA80F806E00AF101003E
:102290001FFA80FABAF1080FD8DB00BF701C86B2B3
:1022A000BE42CDDB00BFC0E72DE9FF4FA1B08046A5
:1022B0000D461C46AB462046E21704EB5272D21084
:1022C0002146E31704EB5373DB10A4EBC3030BB1FC
:1022D000012300E000231A44624397B20C2C08D07B
:1022E000102C06D0182C04D0202C02D025B0BDE82C
:1022F000F08F3B46224601A92398FFF781FE002676
:102300002FE001A810F806904FF0000A23E009F032
:10231000800028B1294640462E9A00F097F906E041
:10232000309820B9294640462F9A00F08FF94FEA9D
:1023300049604FEA1069681C85B2A5EB0B00A0420A
:1023400005D15D4608F101001FFA80F806E00AF1A8
:10235000010000F0FF0ABAF1080FD8DB00BF701CC3
:10236000C6B2BE42CDDB00BFC0E72DE9F04F85B05D
:1023700007460D4691469A46DDE90F4B0E9EB8463C
:1023800004950020039052E0039888BB30788028A1
:1023900002DD012003904AE004EBD47108EB09024E
:1023A000A2EB6101B94202DA281985B247460498C6
:1023B0005044001BA84200DA3CE030780D2804D1DC
:1023C000281985B24746761C0AE0DDE9111023463C
:1023D0003246CDE900B1029029463846FFF7F3FEB8
:1023E000761C204604EBD07107EB61018FB21EE032
:1023F000FFE70020039008EB0900001BB84202DA57
:10240000281985B2474604985044001BA84200DAB8
:1024100010E0DDE9110123463246CDE900B002911A
:1024200029463846FFF740FFB61C381987B2307886
:102430000028A9D100BF05B0BDE8F08F002107E05A
:10244000002201E0531CDAB2642AFBDB4B1CD9B238
:102450008142F5DB7047F0B50A46002100230024D5
:1024600000BF3DE0012505FA01F3156805EA030404
:102470009C4234D105684F000326BE40B543056039
:1024800015794E00B5400668354305601579012D74
:1024900002D01579022D16D185684F000326BE4063
:1024A000B543856055794E00B540866835438560F3
:1024B000456801268E40B5434560456896798E4053
:1024C000B6B235434560C5684F000326BE40B543EC
:1024D000C560D5794E00B540C6683543C560491C16
:1024E0001029BFD3F0BDF0B5002300244D07ED0E39
:1024F00002FA05F3CE1000F1200555F826504E07DC
:10250000F70E0F26BE40B543CF1000F1200646F867
:102510002750CE1000F1200555F8265045EA030457
:10252000CE1000F1200545F82640F0BD02460020FF
:1025300013690B400BB1012000E00020704741837C
:1025400070470183704700BFFEE7000070B5044686
:1025500000250D48438802880021084600F0B0FBA2
:10256000094800880849498800FB01F6002108460F
:1025700000F086FB00F0E2FB00BF02E003480480AD
:102580006D1CB542FAD370BD440000208000006C81
:1025900030B505467DB900202B498871F0200880B0
:1025A0004FF4A07048802C2008812A2048812B20DD
:1025B0008881002444E0012D0FD100202249887138
:1025C000F02008804FF4A07048802C2008812A2039
:1025D00048812B208881032432E0022D0FD1012075
:1025E000194988714FF4A0700880F02048802C2091
:1025F00008812A2048812B208881052420E0032D92
:102600000FD10120104988714FF4A0700880F0208C
:1026100048802C2008812A2048812B20888106248C
:102620000EE0002008498871F02008804FF4A07067
:1026300048802C2008812A2048812B208881002472
:10264000204600F0BDFA30BD4400002010B503461E
:102650000C461148808849F2413188421BD10E490D
:10266000488900F065FB181200F05CFBD8B200F05E
:1026700059FB0949888900F05BFB201200F052FBEE
:10268000E0B200F04FFB04480089044908804FF095
:10269000D840A0F8802010BD440000207E00006CCF
:1026A00000B59FB001217A2000F0B0FC012108465E
:1026B00000F0BCFC4FF400401D9001208DF8780024
:1026C00000208DF87A0002208DF8790001208DF825
:1026D0007B001DA9FE48FFF7BEFE4CF233701D9033
:1026E00002208DF8780000208DF87A0003208DF804
:1026F000790001208DF87B001DA9F648FFF7ABFE9D
:102700004FF680701D9002208DF8780000208DF823
:102710007A0003208DF8790001208DF87B001DA937
:10272000ED48FFF798FE4FF480501D9002208DF881
:10273000780000208DF87A0003208DF879000120C0
:102740008DF87B001DA9E548FFF785FE4FF480500A
:102750001D9002208DF8780000208DF87A0003206B
:102760008DF8790001208DF87B001DA9DC48FFF76A
:1027700072FE0C220021D748FFF7B5FE0C22012182
:10278000D448FFF7B0FE0C220421D248FFF7ABFE7D
:102790000C220521CF48FFF7A6FE0C220821CD48C8
:1027A000FFF7A1FE0C220921CA48FFF79CFE0C226C
:1027B0000A21C848FFF797FE0C220E21C548FFF7F3
:1027C00092FE0C220F21C348FFF78DFE0C22072139
:1027D000C148FFF788FE0C220821BF48FFF783FE9F
:1027E0000C220921BC48FFF77EFE0C220A21BA48C0
:1027F000FFF779FE0C220B21B748FFF774FE0C227D
:102800001146B548FFF76FFE0C220D21B248FFF7C5
:102810006AFE0C220E21B048FFF765FE0C220F2144
:10282000AD48FFF760FE0C221146AC48FFF75BFE97
:102830000C221146AA48FFF756FE0F2007900020F1
:1028400008901820099000200A900B900C900D9091
:1028500008200090002001900820029000200390A2
:1028600004900590069006200E9000200F90109086
:102870001020119000201290149013901590169033
:102880004FF480501790002018904FF4804019901A
:1028900000201A9007A81B90CDF870D00EA8FFF763
:1028A0008FFA01210620FFF771FA322001F0D2F8E9
:1028B000002000F079F98B49888008468088FF283D
:1028C0000ADB084680884FF6FF71884204D08548AD
:1028D0008088B0F5134F25D1D32000F029FA00F0FD
:1028E00059F98049888000F055F97E49888000F0C8
:1028F00051F97C498880084680884FF6FF7101EACB
:1029000000207849888000F045F976498988084395
:10291000744988800846808849F24131884201D054
:102920001FB000BD6F48808849F2413188427CD198
:10293000CF2000F0FDF9002000F0F4F9C12000F0F4
:10294000F1F9302000F0EEF9ED2000F0F1F964200B
:1029500000F0E8F9032000F0E5F9122000F0E2F9B8
:10296000812000F0DFF9E82000F0E2F9852000F096
:10297000D9F9102000F0D6F97A2000F0D3F9CB2055
:1029800000F0D6F9392000F0CDF92C2000F0CAF97A
:10299000002000F0C7F9342000F0C4F9022000F054
:1029A000C1F9F72000F0C4F9202000F0BBF9EA20BB
:1029B00000F0BEF9002000F0B5F9002000F0B2F9F7
:1029C000C02000F0B5F91B2000F0ACF9C12000F0E8
:1029D000AFF9012000F0A6F9C52000F0A9F93020D8
:1029E00000F0A0F9302000F09DF9C72000F0A0F918
:1029F000B72000F097F9362000F09AF9482000F04F
:102A000091F93A2000F094F9552000F08BF9B120AB
:102A100000F08EF9002000F085F91A2000F082F90C
:102A2000B62000F085F90A2000E0A4E000F07AF971
:102A3000A22000F077F9F22000F07AF9002000F0EF
:102A400071F9262000F074F9012000F06BF9E02004
:102A500000F06EF90F2000F065F92A2000F062F90D
:102A6000282000F05FF9082000F05CF90E2000F04B
:102A700059F9082000F056F9542000F053F9A92024
:102A800000F050F9432000F04DF90A2000F04AF917
:102A90000F2000F047F9002000F044F9002000F07A
:102AA00041F9002000F03EF9002000F03BF9E12060
:102AB00000F03EF9002000F035F9152000F032F961
:102AC000172000F02FF9072000F02CF911200BE05F
:102AD00000040240000C02400010024000140240BA
:102AE000001802404400002000F01CF9062000F00D
:102AF00019F92B2000F016F9562000F013F93C20AC
:102B000000F010F9052000F00DF9102000F00AF98E
:102B10000F2000F007F93F2000F004F93F2000F0FB
:102B200001F90F2000F0FEF82B2000F001F9002041
:102B300000F0F8F8002000F0F5F8012000F0F2F8BD
:102B40003F2000F0EFF82A2000F0F2F8002000F01B
:102B5000E9F8002000F0E6F8002000F0E3F8EF20AC
:102B600000F0E0F8112000F0E3F8782000F072FFA8
:102B7000292000F0DDF80020FFF70AFD01200449BC
:102B800008604FF6FF70FFF7E1FC00BFC8E60000E9
:102B9000BC82404208B5034800880090BDF80000A0
:102BA00008BD00008000006C10B50446204600F00F
:102BB000BFF8052000F06AFFFFF7ECFF10BD000032
:102BC00010B5044600232D48808849F241318842DF
:102BD00052D1082C1CD2DFE804F00406090C0F12B5
:102BE000151800BF14E043F0800311E043F04003E8
:102BF0000EE043F0C0030BE043F0200308E043F095
:102C0000600305E043F0A00302E043F0E00300BFEF
:102C100000BF43F00801362000F09AF817494889B0
:102C200000F086F8002000F07DF8002000F07AF82F
:102C300012490988491EC1F30F2000F073F80F49AB
:102C40000978491EC8B200F06DF80C49888900F077
:102C50006FF8002000F066F8002000F063F80749E4
:102C60004988491EC1F30F2000F05CF803498978B8
:102C7000491EC8B200F056F810BD00004400002004
:102C800000B502460B460D48808849F24131884222
:102C900013D10A49488900F04BF8101200F042F8AD
:102CA000D0B200F03FF80549888900F041F81812C9
:102CB00000F038F8D8B200F035F800BD440000202C
:102CC000F0B504460D46A018401E86B2E818401E16
:102CD00087B21348808849F2413188421FD1104998
:102CE000488900F025F8201200F01CF8E0B200F04E
:102CF00019F8301200F016F8F0B200F013F8084995
:102D0000888900F015F8281200F00CF8E8B200F0FD
:102D100009F8381200F006F8F8B200F003F8F0BD38
:102D20004400002001490880704700008000006CCA
:102D300001490880704700007E00006C024800894D
:102D40000249088070470000440000207E00006CAB
:102D5000034A10804FF0D842A2F88010704700005C
:102D60007E00006C1CB50121202000F04FF94FF4CB
:102D7000C060009001208DF8040000208DF806004E
:102D800003208DF8050001208DF8070069460448EE
:102D9000FFF761FB4FF4C0610148FFF7D2FB1CBD98
:102DA0000014024000BFFEE7704700001CB512A1EE
:102DB00003C9CDE900010024102000F03FFB0522EB
:102DC0006946302000F0BCF805226946102000F06A
:102DD0006DF800BF06E01DF80400A52800D003E050
:102DE000601CC4B2052CF6DB00BF052C01D001200D
:102DF0001CBD0020FCE70000A5A5A5A5A5000000BE
:102E00001CB50121422000F001F901208DF80400D9
:102E100000208DF80600C020009001208DF80700EA
:102E200003208DF8050069461C48FFF714FB4FF49A
:102E30008070009001208DF8070000208DF80600BA
:102E400003208DF8050000208DF804006946134822
:102E5000FFF701FB4FF48040009001208DF8070040
:102E600000208DF8060003208DF8050001208DF864
:102E7000040069460A48FFF7EEFA4FF4804108481B
:102E8000FFF75FFB00F05CFA00F02EF80020054928
:102E9000086001200449C1F89C021CBD00180240D2
:102EA0000004024098024342000043422DE9F041F1
:102EB00007460D46164600200A490860384600F0CD
:102EC000A1FA8046002405E0FF2000F09BFA285577
:102ED000601CC4B2B442F7DB0120024908604046DE
:102EE000BDE8F0819C02434200B585B00021134843
:102EF00000F0B8FA3820ADF80C000020ADF808005A
:102F0000ADF806000720ADF810000020ADF8040071
:102F1000ADF80000ADF80E004FF48270ADF802007D
:102F20004FF40070ADF80A006946044800F0B4FAA6
:102F30000121024800F096FA05B000BD00300140C2
:102F40002DE9F04107460C46154600200A49086065
:102F5000384600F057FA8046002605E014F8010BC9
:102F600000F050FA701CC6B2AE42F7DB01200249F5
:102F700008604046BDE8F0819C02434270B50021E4
:102F800000230F22C4781CB3174C246804F4E064B7
:102F9000C4F5E064C4F30721C1F10404E3B20A41BB
:102FA00044789C40E1B28478144021430C07210E00
:102FB0000E4C05786155047804F01F050124AC40DF
:102FC00005786D11AD0005F1E025C5F8004109E077
:102FD000047804F01F050124AC40054D06787611F5
:102FE00045F8264070BD00000CED00E000E400E074
:102FF00080E100E002490143024A1160704700008D
:103000000000FA050CED00E07047000029B1064A07
:1030100012680243044B1A6004E0034A12688243B8
:10302000014B1A60704700003038024029B1064A4F
:1030300012680243044B1A6004E0034A1268824398
:10304000014B1A60704700003838024029B1064A27
:1030500012680243044B1A6004E0034A1268824378
:10306000014B1A60704700004038024029B1064AFF
:1030700012680243044B1A6004E0034A1268824358
:10308000014B1A60704700004438024029B1064ADB
:1030900012680243044B1A6004E0034A1268824338
:1030A000014B1A607047000024380240F0B500213F
:1030B00000220024022500260223324F3F6807F039
:1030C0000C0121B1042905D0082937D105E02E4F84
:1030D000076036E02D4F076033E02A4F3F1F3F68FF
:1030E000C7F38056274F3F1F3F6807F03F036EB17D
:1030F000264FB7FBF3F7DFF88CC0ACF1040CDCF81B
:1031000000C0CCF3881C07FB0CF40CE01E4FB7FB8F
:10311000F3F7DFF870C0ACF1040CDCF800C0CCF3BE
:10312000881C07FB0CF4174F3F1F3F68C7F301478C
:103130007F1C7D00B4FBF5F7076002E0124F0760CB
:1031400000BF00BF0F4F3F6807F0F0010909104FA3
:103150007A5C0768D74047600A4F3F6807F4E05140
:10316000890A0B4F7A5C4768D7408760054F3F68F4
:1031700007F46041490B064F7A5C4768D740C76047
:10318000F0BD0000083802400024F40000127A006C
:10319000280000200149086070470000382C0140D9
:1031A00001460020034A12680A400AB1012000E0EB
:1031B00000207047342C014010B500F017F810BD06
:1031C0000021094B02681A601A1D11686FF30A0189
:1031D000D0E901231A43C3681A4303691A43114310
:1031E000014A121D11607047082C014010B54FF4C0
:1031F0008070FFF7D5FF78B34C480078012814D1D0
:1032000000204B4908600C20486040208860002066
:10321000C8604FF4806008610846FFF7D1FF0C20BA
:10322000FEF758FD4349087002E00020414908704C
:103230004148006840F480703F490860081D0068FC
:103240004CF23A3188433C49091D086001203B4952
:1032500008703848007810BDFFE70220FFF7A0FF94
:1032600078B10220FFF796FF3348001D00684CF24A
:103270003A3188433049091D086002202D49087001
:10328000E9E70820FFF78CFF78B10820FFF782FFFD
:103290002948001D00684CF23A3188432649091D2F
:1032A0000860042023490870D5E72020FFF778FF45
:1032B00078B12020FFF76EFF1F48001D00684CF218
:1032C0003A3188431C49091D0860062019490870D5
:1032D000C1E71020FFF764FF78B11020FFF75AFF15
:1032E0001548001D00684CF23A3188431249091D07
:1032F000086005200F490870ADE74FF40070FFF734
:103300004FFF80B14FF40070FFF744FF0A48001DE3
:1033100000684CF23A3188430749091D08600720CC
:103320000449087097E7002095E700001500002089
:103330007000002016000020382C014017000020EB
:1033400000B587B001210846FFF760FE01210803A0
:10335000FFF78CFE3820059002208DF81800002021
:103360008DF81A0003208DF8190001208DF81B003C
:1033700005A92248FFF76FF8052203211F48FFF730
:10338000B2F8052204211D48FFF7ADF805221146C9
:103390001A48FFF7A8F801210803FFF777FE00217C
:1033A0004FF48050FFF772FE0020ADF800004FF49C
:1033B0008270ADF802000020ADF804000220ADF8E4
:1033C00006000120ADF808004002ADF80A003820E0
:1033D000ADF80C000020ADF80E000720ADF810008D
:1033E0006946074800F058F80121054800F03AF80E
:1033F000FF2000F007F807B000BD00000004024005
:103400000030014010B5044600BF02210A4800F018
:1034100035F80028F9D02146074800F03BF800BFF6
:103420000121054800F02AF80028F9D0024800F0F0
:103430002EF8C0B210BD00000030014010B50446A7
:10344000074800884FF6C7710840054908800846BC
:103450000088204308800121014800F003F810BDD6
:103460000030014021B1028842F04002028004E0B5
:1034700002884FF6BF731A40028070470246002050
:1034800013890B400BB1012000E00020704701467A
:10349000888970478181704710B50022028802F444
:1034A00041520B884C8823438C882343CC88234388
:1034B0000C8923434C8923438C892343CC892343A0
:1034C0001A430280838B4FF2FF74234083830B8A5D
:1034D000038210BD704700000CB5002001900090E1
:1034E0003448006840F480303249086000BF3148F9
:1034F000006800F4003000900198401C0190009892
:1035000018B90198B0F5A04FF1D12A48006800F42D
:10351000003010B10120009001E0002000900098E0
:10352000012846D123484030006840F080502149AE
:10353000403108602048006840F440401E4908605F
:103540001C48083000681B490831086008460068BC
:1035500040F4004008600846006840F4A05008604D
:103560001648091F0860081F006840F08070091F96
:10357000086000BF0F48006800F000700028F9D014
:1035800040F205700E4908600A480830006820F0D3
:1035900003000849083108600846006840F002004E
:1035A000086000BF03480830006800F00C000828DD
:1035B000F8D10CBD003802400070004008544007AC
:1035C000003C0240042808D14FF0E021096941F095
:1035D00004014FF0E022116107E04FF0E02109699A
:1035E00021F004014FF0E0221161704770470000A4
:1035F00010B51548006840F470001349086013487E
:10360000006840F001001149086000200F490831AE
:1036100008600E4800680E4908400C4908600D48D3
:10362000091D0860081F006820F48020091F086039
:10363000002006490C310860FFF74EFF4FF0006094
:1036400001498039086010BD88ED00E00038024073
:10365000FFFFF6FE1030002410B540F22551064859
:1036600000F0F5F838B1044800F0AAF9C4B22146D8
:1036700002A000F05FFB10BD004C0040CAD5B5BDF4
:10368000C1CBD2BBB8F6D7D6B7FB3A2025630D0A1B
:103690000000000010B540F22551064800F0D7F8B0
:1036A00038B1044800F08CF9C4B2214602A000F001
:1036B00069FB10BD00500040CAD5B5BDC1CBD2BB1F
:1036C000B8F6D7D6B7FB3A2025630D0A00000000F4
:1036D00010B540F225511D4800F0B9F810B31B4851
:1036E00000F06EF9C4B21A48008800F40040C8B96E
:1036F0001748008800F4804060B10A2C03D00020F5
:103700001349088020E01248008840F40040104926
:10371000088019E00D2C06D10D48008840F4804047
:103720000B49088010E00A480088C0F30D000949E1
:103730000C5407480088401C05490880084600884A
:10374000C72801DD0020088010BD000000100140E6
:10375000240000201803002010B540F225511D4818
:1037600000F075F810B31B4800F02AF9C4B21A48EB
:10377000008800F40040C8B91748008800F4804071
:1037800060B10A2C03D000201349088020E01248C1
:10379000008840F400401049088019E00D2C06D143
:1037A0000D48008840F480400B49088010E00A482A
:1037B0000088C0F30D0009490C5407480088401CDC
:1037C0000549088008460088C72801DD00200880D8
:1037D00010BD00000044004026000020E00300204F
:1037E00010B540F22551064800F031F838B10448D0
:1037F00000F0E6F8C4B2214602A000F073FA10BD52
:1038000000480040CAD5B5BDC1CBD2BBB8F6D7D6AB
:10381000B7FB3A2025630D0A0000000021B1828920
:1038200042F40052828104E082894DF6FF731A400F
:103830008281704702460020B1F5007F00D100BFB1
:1038400013880B400BB1012000E00020704770B5D9
:103850000246002400230025002040F66A16B142EB
:1038600000D100BFC1F3421501F01F03012606FA83
:1038700003F3012D02D19689334006E0022D02D1D7
:10388000168A334001E0968A33400C12012606FA6C
:1038900004F41688344013B10CB1012000E000207C
:1038A00070BDF0B50346002400260025002040F638
:1038B0006A17B94200D100BF1846C1F3421401F0A3
:1038C0001F06012707FA06F5012C01D10C3004E090
:1038D000022C01D1103000E014301AB107682F43D8
:1038E000076002E00768AF430760F0BD2DE9FF47BE
:1038F00005460E460024A14600BFA046B08900B18F
:1039000000BF2C8A24F44054F08804432C82AC89F4
:1039100041F20C608443B0883189084371890843BF
:103920000443AC81AC8A24F44074B0890443AC8273
:103930006846FFF7BBFB2048854202D01F488542FE
:1039400002D1DDF80C9001E0DDF80890A88900F4C0
:10395000004040B109EBC90000EB09103168490093
:10396000B0FBF1F707E009EBC90000EB0910316883
:103970008900B0FBF1F76420B7FBF0F004012009E7
:10398000642101FB1078A88900F4004040B1322086
:1039900000EBC800B0FBF1F000F00700044308E0C2
:1039A000322000EB08106421B0FBF1F000F00F00B2
:1039B00004432C81BDE8FF87001001400014014042
:1039C00001468888C0F308007047C1F3080282806E
:1039D000704700BFFEE703B401984100009850EA29
:1039E000C12018BF04204A0D18BF40F0010040F26A
:1039F000FF72B2EB515F08BF40F00200012808BF20
:103A0000052002B0704730380A2801D201207047E3
:103A10000020704700BF704710B504466FF00400E7
:103A2000FFF7D0FDE11704EB5171C1F3C701074A5D
:103A300011701046007800EB4001C1EBC0104FF64A
:103A4000FF7101EAC0000249088010BD1C0000207F
:103A50001E00002070B504464FF4077094FBF0F090
:103A6000C6B24FF4077094FBF0F100FB114085B231
:103A700005E04FF4077000F02FF8701EC6B2002E5C
:103A8000F7D115B1284600F027F870BD0146114A5C
:103A900012784A434FF0E0235A6100229A611A4695
:103AA000126942F001021A6100BF4FF0E022106972
:103AB00000F001021AB100F48032002AF5D04FF074
:103AC000E022126922F001024FF0E0231A61002285
:103AD0009A6170471C0000200146114A12884A432F
:103AE0004FF0E0235A6100229A611A46126942F0AF
:103AF00001021A6100BF4FF0E022106900F00102DC
:103B00001AB100F48032002AF5D04FF0E022126999
:103B100022F001024FF0E0231A6100229A617047FF
:103B20001E00002000BF054A128802F04002002A51
:103B3000F9D0C2B2014B9A807047000000100140DA
:103B40004FF4A060FFF756FAA820FFF765FF4FF487
:103B5000E13000F095F94FF4E13000F03BF9FEF769
:103B60009FFDFFF7FFF84FF4784032490880FEF7D9
:103B70009FFAFFF745F93048828830A13248FCF7B8
:103B8000E9FB56E03148008800F4004000282CD0C2
:103B90002E4800782E4908702E492FA0FCF7CEFB46
:103BA0002FA12C48FCF78CFD30B92FA0FCF7C6FBE9
:103BB000C8212848FCF761FD2DA12648FCF780FDAF
:103BC00060B9FFF7F3F82B490870084601782AA07E
:103BD000FCF7B4FBC8211F48FCF74FFDC8211D4866
:103BE000FCF74BFD0020194908802848008800F4A4
:103BF0000040D0B12548007815490870244916A026
:103C000000F048F816A12248FCF75AFD30B916A07A
:103C100000F040F8C8211E48FCF72FFDC8211C48C1
:103C2000FCF72BFD0020194908804FF47A70FFF74C
:103C300011FFA7E702000020440000204C4344206D
:103C400049443A2530345800380000202400002030
:103C5000000000201803002025730D0A000000005A
:103C60004C45445F4F4646004F46460D0A00000053
:103C70004E524600010000206E72665F73746174DC
:103C80006520697320305825580D0A002600002051
:103C9000E00300200FB430B58FB013A8019002A844
:103CA000019A1299FCF738FB0020019002A8FCF75A
:103CB000C5FC054600240CE000BF80210848FFF742
:103CC000B9FD0028F9D002A8015D0548FFF77DFE87
:103CD000641CAC42F0DB0FB030BC5DF814FB00009C
:103CE000004400400FB430B58FB013A8019002A873
:103CF000019A1299FCF710FB0020019002A8FCF732
:103D00009DFC054600240CE000BF80210848FFF719
:103D100091FD0028F9D002A8015D0548FFF755FE86
:103D2000641CAC42F0DB0FB030BC5DF814FB00004B
:103D3000004800400FB430B58FB013A8019002A81E
:103D4000019A1299FCF7E8FA0020019002A8FCF70A
:103D500075FC054600240CE000BF80210848FFF7F1
:103D600069FD0028F9D002A8015D0548FFF72DFE86
:103D7000641CAC42F0DB0FB030BC5DF814FB0000FB
:103D8000004C00400FB430B58FB013A8019002A8CA
:103D9000019A1299FCF7C0FA0020019002A8FCF7E2
:103DA0004DFC054600240CE000BF80210848FFF7C9
:103DB00041FD0028F9D002A8015D0548FFF705FE86
:103DC000641CAC42F0DB0FB030BC5DF814FB0000AB
:103DD0000050004010B588B0044601214804FFF7A8
:103DE00035F901210846FFF711F90722022122487F
:103DF000FEF779FB072203211F48FEF774FB0C2016
:103E0000069002208DF81C0003208DF81D00002074
:103E10008DF81E0001208DF81F0006A91648FEF738
:103E20001AFB26208DF8040003208DF805008DF87C
:103E3000060001208DF8070001A8FFF79FF8029403
:103E40000020ADF80C00ADF80E00ADF81000ADF894
:103E500014000C20ADF8120002A90848FFF746FD37
:103E6000012240F225510548FFF71BFD01210348BF
:103E7000FFF7D4FC08B010BD000002400044004031
:103E800010B588B0044601210846FFF7BFF80121AC
:103E90001020FFF7EBF8072209212248FEF723FB49
:103EA00007220A211F48FEF71EFB4FF4C060069050
:103EB00002208DF81C008DF81D0000208DF81E00DA
:103EC00001208DF81F0006A91648FEF7C4FA0294D7
:103ED0000020ADF80C00ADF80E00ADF81000ADF804
:103EE00014000C20ADF8120002A90F48FFF7FEFCE9
:103EF00001210D48FFF792FC012240F225510A48AA
:103F0000FFF7CFFC25208DF8040003208DF8050075
:103F10008DF8060001208DF8070001A8FFF72EF8A4
:103F200008B010BD000002400010014010B500298B
:103F30000AD00878002807D005487844FCF7C0FB71
:103F4000002801D0002010BD0248784410BD0000B8
:103F50007A0100007201000010B500290AD008782B
:103F6000002807D005487844FCF7AAFB002801D0B8
:103F7000002010BD0248784410BD00006A01000016
:103F8000620100004FF04070E1EE100A7047FCF74C
:103F9000F6BEFDF72BB83031323334353637383989
:103FA0004142434445464030580030313233343585
:103FB00036373839616263646566403078000400E2
:103FC00000080000000000000002000100001000D6
:103FD0000000000000000000303132333435363745
:103FE0003839616263646566787000303132333429
:103FF0003536373839414243444546585000000071
:1040000002400000000000A0000000000540000089
:10401000000000C8000000000C4000000000409CB0
:1040200000000000194000000020BCBE000000009D
:1040300034400000BFC91B8E00000004B5400000E2
:10404000504BCFD06607E2CF010000006C4100006A
:104050003E8251AADFEEA73401000000D9420000E1
:10406000DCB5A0E23A301F97FFFFFFFFB445000028
:10407000FD25A0C8E9A3C14FFFFFFFFFFF3F0000E0
:104080000000008000000000FF3F000000000080F2
:1040900000000000E041000800000020380000009F
:1040A000C40100081842000838000020D00A0000AF
:1040B000E00100081C00000043000000F8FFFFFFC3
:1040C0000C0000000E0000000F0000002E00000099
:1040D0001001000043000000F8FFFFFF00404040D7
:1040E00040404040404041414141414040404040CB
:1040F0004040404040404040404040404005020277
:104100000202020202020202020202020220202035
:104110002020202020202002020202020202909091
:10412000909090901010101010101010101010108F
:1041300010101010101010100202020202028888E3
:1041400088888888080808080808080808080808EF
:1041500008080808080808080202020240000000D7
:10416000000000000000000000000000000000004F
:10417000000000000000000000000000000000003F
:10418000000000000000000000000000000000002F
:10419000000000000000000000000000000000001F
:1041A000000000000000000000000000000000000F
:1041B00000000000000000000000000000000000FF
:1041C00000000000000000000000000000000000EF
:1041D00000000000000000000000000000000000DF
:1041E00000000000FFFF1F00FFFF000000000000B4
:1041F00000000000010000000000000000000000BE
:1042000000000000000000000000000001020304A4
:0842100001020304060708097E
:040000050800018965
:00000001FF
