:020000040800F2
:1000000090070020855D0008290400082B040008E3
:100010002F04000833040008370400080000000023
:100020000000000000000000000000003B04000889
:100030003D040008000000003F04000841040008DF
:100040009F5D00089F5D00089F5D00089F5D0008A0
:100050009F5D00089F5D00089F5D00089F5D000890
:100060009F5D00089F5D00089F5D00089F5D000880
:100070009F5D00089F5D00089F5D00089F5D000870
:100080009F5D00089F5D00089F5D00089F5D000860
:100090009F5D00089F5D00089F5D00089F5D000850
:1000A0009F5D00089F5D00089F5D00089F5D000840
:1000B0009F5D0008AD5300089F5D00089F5D00082C
:1000C0009F5D00089F5D00089F5D00089F5D000820
:1000D0009F5D0008FB5C00089F5D00089F5D0008B5
:1000E0009F5D00089F5D00089F5D00089F5D000800
:1000F0009F5D00089F5D00089F5D00089F5D0008F0
:100100009F5D00089F5D00089F5D00089F5D0008DF
:100110009F5D00089F5D00089F5D00089F5D0008CF
:100120009F5D00089F5D00089F5D00089F5D0008BF
:100130009F5D00089F5D00089F5D00089F5D0008AF
:100140009F5D00089F5D00089F5D00089F5D00089F
:100150009F5D00089F5D00089F5D00089F5D00088F
:100160009F5D00089F5D00089F5D00089F5D00087F
:100170009F5D00089F5D0008695000089F5D0008B2
:100180009F5D00089F5D000800F002F800F092F803
:100190000AA090E8000C82448344AAF10107DA45E2
:1001A00001D100F087F8AFF2090EBAE80F0013F0A2
:1001B000010F18BFFB1A43F00103184794B6000063
:1001C000B4B60000103A24BF78C878C1FAD85207F4
:1001D00024BF30C830C144BF04680C6070470000C1
:1001E0000023002400250026103A28BF78C1FBD840
:1001F000520728BF30C148BF0B6070476E2908F016
:10020000E782702908F01981662909F0608565295F
:1002100009F05D85672909F05A85612909F059853A
:1002200003681B0A28BF41F08001692908F0948205
:10023000642908F09182752908F08E826F2908F0F0
:10024000AA83782908F0E580E92908F04583E429A4
:1002500008F04283F52908F03F83EF2908F0A783CF
:10026000F82908F0E4800368DB0928BF41F0800129
:10027000632908F09B87732908F0A087E32908F019
:10028000AB87F32908F0B087002070471FB509F04D
:1002900019FD08F0FFFF04000020002109F0FCFC1C
:1002A000401C60600020002109F0E0FCE0601FBD00
:1002B00010B510BD08F0C0FF1146FFF7E7FF00F0D2
:1002C00009F809F09DF803B4FFF7F2FF03BC05F04D
:1002D000B1FC00001CB54FF4A06005F073FDA82030
:1002E00005F026FC4FF4E13005F0B1FC00F0B2F966
:1002F00000F05BFF04F0E6FD532142F20F7005F0C1
:1003000029F84FF478403049088030A010210B467E
:10031000C822CDE9001032211E2004F093FD2EA04A
:1003200010210B46C822CDE9001046211E2004F002
:1003300089FD2CA010210B46C822CDE900105A21BE
:100340001E2004F07FFD2CA010210B46C822CDE911
:1003500000106E211E2004F075FD20E028A0102161
:100360000B46F022CDE9001082211E2004F06AFD28
:10037000C82005F03FFC4FF6FF70AA23EF22822130
:1003800000901E2004F0D1FAC82005F033FC1F486D
:10039000006808B9012000E000201C49086005F051
:1003A0002FF80028DAD11AA010210B46C822CDE977
:1003B000001082211E2004F045FD04E0174A184970
:1003C000184804F07BFFF9E71800002053544D3320
:1003D00032463478780000004F5637363730205494
:1003E000455354006D63756465762E74616F626168
:1003F0006F2E636F6D000000323032332F313100C9
:100400004F5637363730204552520000A4824242C0
:100410004F5637363730204F4B0000000000002089
:10042000F55B00088D830008704700BFFEE700BF42
:10043000FEE700BFFEE700BFFEE77047704770476A
:10044000704700000CB500200190009076480068CD
:1004500040F480307449086000BF7348006800F4BD
:10046000003000900198401C0190009818B9019844
:10047000B0F5A04FF1D16C48006800F4003010B125
:100480000120009001E0002000900098012846D152
:1004900065484030006840F0805063494031086052
:1004A0006248006840F44040604908605E48083097
:1004B00000685D49083108600846006840F4004063
:1004C00008600846006840F4A05008605848091FBA
:1004D0000860081F006840F08070091F086000BFB6
:1004E0005148006800F000700028F9D040F2057013
:1004F000504908604C480830006820F003004A4921
:10050000083108600846006840F00200086000BF3B
:1005100045480830006800F00C000828F8D10CBDF0
:1005200010B54548006840F47000434908603E48F3
:10053000006840F001003C49086000203A49083159
:100540000860394800683D490840374908603C4820
:10055000091D0860081F006820F48020091F08603A
:10056000002031490C310860FFF76CFF4FF000604C
:1005700031498039086010BD70B500200022022387
:1005800000240221284D08352D6805F00C0020B10B
:10059000042806D0082834D107E02A4D2A4E3560B9
:1005A00033E02A4D284E35602FE01F4D2D1D2D685C
:1005B000C5F380541C4D2D1D2D6805F03F0154B12D
:1005C000224DB5FBF1F5184E361D3668C6F3881678
:1005D00005FB06F209E01B4DB5FBF1F5124E361D89
:1005E0003668C6F3881605FB06F20F4D2D1D2D68E3
:1005F000C5F301456D1C6B00B2FBF3F5124E35607F
:1006000003E0104D104E356000BF00BF064D0835A9
:100610002D68C5F303150E4E705D0B4D2D68C5405A
:10062000094E356070BD0000003802400070004087
:1006300008544007003C024088ED00E0FFFFF6FE52
:10064000103000240024F4000400002000127A007E
:10065000080000201CB50121202006F00DF84FF401
:10066000C060009001208DF8040000208DF8060085
:1006700003208DF8050001208DF807006946044825
:1006800005F05CFD4FF4C061014805F0D3FD1CBDD1
:100690000014024001B5BDF800000090BDF8000054
:1006A000F749088008BD01B5BDF800000090BDF80D
:1006B0000000F349891C088008BD08B5F048801C7B
:1006C00000880090BDF8000008BD03B5BDF800002B
:1006D000EB490880BDF804004FF0D841A1F8800034
:1006E0000CBD01B5BDF80000FFF7D4FF052005F0F3
:1006F00039FAFFF7E2FF08BDE2480089E0490880C7
:100700007047DF49891C0880704730B5014601F009
:100710001F04C1F34513CA0AE50205EB431515444E
:10072000A8B230BD00BF011EA0F10102D0B2FAD1C3
:10073000704730B504460D46D248808849F24131B1
:10074000884205D0CF48808845F21031884214D1C4
:10075000CC494889FFF79EFF2012FFF7A4FFE0B2C3
:10076000FFF7A1FFC7498889FFF794FF2812FFF719
:100770009AFFE8B2FFF797FF5DE0C248808846F62F
:10078000040188421DD1BF488079012804D1BD48A9
:100790000088401E001B84B2BA494889FFF77AFFDF
:1007A0002012FFF780FFE0B2FFF77DFFB54988898F
:1007B000FFF770FF2812FFF776FFE8B2FFF773FF2D
:1007C00039E0B048808845F21051884220D1AD49C7
:1007D0004889FFF75FFF2012FFF765FFA9494989A4
:1007E000491C88B2FFF756FFE0B2FFF75CFFA5494E
:1007F0008889FFF74FFF2812FFF755FFA149898924
:10080000491C88B2FFF746FFE8B2FFF74CFF12E041
:100810009C488079012804D19A480088401E001B1A
:1008200084B2984948892146FFF74FFF9549888946
:100830002946FFF74AFF30BD3EB504460D4600206D
:100840000290019000908F480088A04203DD8D48FF
:100850004088A84201DC00203EBD29462046FFF723
:1008600068FF8848808849F2413188420BD085482A
:10087000808846F60401884205D08248808845F287
:100880001031884203D12E20FFF704FF0DE07D4890
:10089000808845F21051884204D14FF43850FFF758
:1008A000F9FE02E02220FFF7F5FE7648808849F243
:1008B0002031884202D10220FFF734FFFFF7FDFE0E
:1008C0000220FFF72FFFFFF7F8FE02906D488088A7
:1008D00049F2413188420BD06A48808845F2103194
:1008E000884205D06748808845F21051884210D16F
:1008F0000220FFF717FFFFF7E0FE0090BDF80800A9
:10090000C0B20190BDF804004FF6FF7101EA00206B
:1009100001905C48808849F22531884216D05948B8
:10092000808844F23551884210D056488088091F8B
:1009300088420BD0534880884BF20551884205D03D
:10094000504880884CF20551884202D1BDF8080019
:1009500082E74C48808849F2413188420BD04948AF
:10096000808845F21031884205D04648808845F29B
:10097000105188420DD1BDF80800C012C002BDF868
:100980000410891240EA4110BDF8001040EAE1204D
:1009900062E7BDF80800FFF7B8FE5DE700B539482B
:1009A000808849F2413188420BD03648808846F62B
:1009B0000401884205D03348808845F210318842CE
:1009C00003D12920FFF766FE0FE02E48808845F20C
:1009D0001051884204D14FF42450FFF75BFE04E02D
:1009E00040F273110720FFF770FE00BD00B52548E7
:1009F000808849F2413188420BD02248808846F6EF
:100A00000401884205D01F48808845F21031884291
:100A100003D12820FFF73EFE0EE01A48808845F2F9
:100A20001051884204D14FF42050FFF733FE03E009
:100A300000210720FFF749FE00BD2DE9F0430546E0
:100A40000024A1460F488079012822D10D488088D2
:100A500046F6040188421CD0082D19D2DFE805F0C3
:100A60000406080A0C0E1416062511E007250FE0EF
:100A700004250DE005250BE0012509E0002507E030
:100A80007E00006C48000020032501E0022500BF25
:100A900000BFFE48808849F24131884211D0FB48AE
:100AA000808846F6040188420BD0F848808845F2D9
:100AB0001031884205D0F548808845F210518842AF
:100AC00078D1082D1CD2DFE805F00406090C0F12BE
:100AD000151800BF14E044F0800411E044F0400415
:100AE0000EE044F0C0040BE044F0200408E044F0C1
:100AF000600405E044F0A00402E044F0E00400BF1C
:100B000000BFE248808845F21051884202D14FF47C
:100B1000585901E04FF03609DC48808845F2103121
:100B2000884207D0D948808845F21051884201D0C8
:100B300044F00804D548808846F60401884201D173
:100B400044F0020421464846FFF7BFFD04F02000B0
:100B500018B9CE48807901280FD1CC480088CB49FC
:100B60004988884218DAC948B0F800804088C749E7
:100B700008800846A0F802800EE0C4480088C349F7
:100B80004988884208DDC148B0F800804088BF49E4
:100B900008800846A0F80280BC48807901280AD164
:100BA000BA48808846F60401884204D0B74846888F
:100BB000078803E07AE0B54806884788B34880880C
:100BC00045F2105188424AD1B0494889FFF762FD89
:100BD0000020FFF768FDAD494989491C88B2FFF73D
:100BE00059FD0020FFF75FFDA8494989891C88B29B
:100BF000FFF750FD711EC1F30F20FFF754FDA3490D
:100C00004989C91C88B2FFF745FD711EC8B2FFF7BC
:100C10004AFD9E498889FFF73DFD0020FFF743FD0F
:100C20009A498989491C88B2FFF734FD0020FFF7F3
:100C30003AFD96498989891C88B2FFF72BFD791EF8
:100C4000C1F30F20FFF72FFD90498989C91C88B295
:100C5000FFF720FD791EC8B2FFF725FD5AE08B494A
:100C60004889FFF717FD0020FFF71DFD0020FFF763
:100C70001AFD711EC1F30F20FFF715FD711EC8B2DA
:100C8000FFF711FD81498889FFF704FD0020FFF778
:100C90000AFD0020FFF707FD791EC1F30F20FFF7C3
:100CA00002FD791EC8B2FFF7FEFC33E0082D1CD20E
:100CB000DFE805F004070A0D0F12151844F03004A0
:100CC00013E044F0100410E044F020040DE000BFF5
:100CD0000BE044F0380408E044F0280405E044F058
:100CE000180402E044F0080400BF00BF6748808891
:100CF00048F68911884205D14FF0110946F24000AB
:100D0000044303E04FF0030944F48054214648466D
:100D1000FFF7DBFCBDE8F08330B504460D462946FD
:100D20002046FFF706FDFFF7E7FC594800885949C0
:100D3000088030BD70B504460D461646534880887D
:100D400049F24131884205D05048808845F210313F
:100D5000884214D14D494889FFF79CFC2012FFF7C7
:100D6000A2FCE0B2FFF79FFC48498889FFF792FC9C
:100D70002812FFF798FCE8B2FFF795FC5DE04348C6
:100D8000808845F21051884220D140494889FFF7B8
:100D900081FC2012FFF787FC3C494989491C88B235
:100DA000FFF778FCE0B2FFF77EFC38498889FFF74F
:100DB00071FC2812FFF777FC34498989491C88B2F5
:100DC000FFF768FCE8B2FFF76EFC36E02F4880883A
:100DD00046F6040188421DD12C488079012804D1AF
:100DE0002A480088401E001B84B228494889FFF722
:100DF00051FC2012FFF757FCE0B2FFF754FC2349E7
:100E00008889FFF747FC2812FFF74DFCE8B2FFF78F
:100E10004AFC12E01D488079012804D11B48008853
:100E2000401E001B84B2194948892146FFF74DFC3A
:100E3000164988892946FFF748FC14480089154956
:100E4000891E08804FF0D840A0F8806070BD10B5B2
:100E50000446002C59D10D498871F02008804FF4C8
:100E6000A07048800846808849F2413188420BD002
:100E70000648808846F60401884205D003488088E9
:100E800045F21031884221D12C2005E04800002095
:100E9000180000208000006CFE4908812A2048814B
:100EA0002B2088810846808846F60401884205D0B8
:100EB000F848808845F21031884206D14FF4A0707E
:100EC000F44908804FF4F070488079E0F148808858
:100ED00045F21051884210D14FF43050ED4908814D
:100EE0004FF4285048814FF42C5088814FF4F07013
:100EF00008804FF44870488062E02220E54908816C
:100F000020204881212088815AE00120E149887110
:100F10004FF4A0700880F02048800846808849F28D
:100F20004131884205D0DB48808845F21031884243
:100F300007D12C20D74908812A2048812B2088817D
:100F40002BE0D448808846F60401884207D12C2043
:100F5000D04908812B2048812A2088811DE0CD4876
:100F6000808845F21051884210D14FF43050C94961
:100F700008814FF4285048814FF42C5088814FF459
:100F8000487008804FF4F070488006E02220C14984
:100F900008812120488120208881BE48808846F62B
:100FA0000401884205D0BB48808845F21031884250
:100FB00006D14FF4F070B74908804FF4A070488014
:100FC0000020FFF73AFD10BD2DE9FF4F04460D4606
:100FD00016461F46A019401E86B2E819401E87B269
:100FE000AC48808849F2413188420BD0A9488088BA
:100FF00045F21031884205D0A648808846F60401A3
:10100000884220D1A3494889FFF744FB2012FFF70B
:101010004AFBE0B2FFF747FB3012FFF744FBF0B2A8
:10102000FFF741FB9B498889FFF734FB2812FFF744
:101030003AFBE8B2FFF737FB3812FFF734FBF8B2A0
:10104000FFF731FB7DE09348808845F210518842DC
:1010500044D190494889FFF71DFB2012FFF723FB7D
:101060008C494989491C88B2FFF714FBE0B2FFF7AD
:101070001AFB88494989891C88B2FFF70BFB30129B
:10108000FFF711FB83494989C91C88B2FFF702FBAE
:10109000F0B2FFF708FB7F498889FFF7FBFA2812B7
:1010A000FFF701FB7B498989491C88B2FFF7F2FAF7
:1010B000E8B2FFF7F8FA77498989891C88B2FFF707
:1010C000E9FA3812FFF7EFFA72498989C91C88B228
:1010D000FFF7E0FAF8B2FFF7E6FA32E06D48807900
:1010E00001280ED1A846B9466A480088801B401ED8
:1010F0001FFA80FA67480088001B401E1FFA80FB19
:1011000003E0A046B146AA46BB46502003905120BA
:101110000290522001905320009041460398FFF71F
:10112000D4FA49460298FFF7D0FA51460198FFF7E2
:10113000CCFA59460098FFF7C8FA29462046FFF72F
:10114000F8FABDE8FF8F70B50446002651480588BF
:10115000408845434F48808846F60401884216D1AE
:101160004C488079012812D100204A4988712A20F0
:1011700048812B20888100210846FFF7DAFA0120F8
:10118000444988712B2048812A20888103E000216E
:101190000846FFF7CEFAFFF7AFFA002602E03E4816
:1011A0000480761CAE42FAD370BD00B5A1B0002019
:1011B000209001217A2005F05FFA0121084605F010
:1011C00093FA4FF400401E9001208DF87C0000201F
:1011D0008DF87E0002208DF87D0001208DF87F00C3
:1011E0001EA92E4804F0AAFF4CF233701E90022074
:1011F0008DF87C0000208DF87E0003208DF87D00A6
:1012000001208DF87F001EA9254804F097FF4FF6B6
:1012100080701E9002208DF87C0000208DF87E00EA
:1012200003208DF87D0001208DF87F001EA91D4848
:1012300004F084FF4FF480501E9002208DF87C0053
:1012400000208DF87E0003208DF87D0001208DF8B0
:101250007F001EA9144804F071FF4FF480501E90C7
:1012600002208DF87C0000208DF87E0003208DF890
:101270007D0001208DF87F001EA90C4804F05EFF60
:101280000C220021064804F0E4FF0C22012104484E
:101290000EE00000480000208000006C00040240C6
:1012A000000C0240001002400014024000180240EE
:1012B00004F0CFFF0C220421FE4804F0CAFF0C22E8
:1012C0000521FC4804F0C5FF0C220821F94804F070
:1012D000C0FF0C220921F74804F0BBFF0C220A21B1
:1012E000F44804F0B6FF0C220E21F24804F0B1FFDE
:1012F0000C220F21EF4804F0ACFF0C220721EE482E
:1013000004F0A7FF0C220821EB4804F0A2FF0C22F6
:101310000921E94804F09DFF0C220A21E64804F067
:1013200098FF0C220B21E44804F093FF0C22114695
:10133000E14804F08EFF0C220D21DF4804F089FF04
:101340000C220E21DC4804F084FF0C220F21DA4825
:1013500004F07FFF0C221146D84804F07AFF0C22DB
:101360001146D74804F075FF0F200890002009901F
:1013700018200A9000200B900C900D900E900820E1
:101380000190002002900820039000200490059016
:101390000690079006200F900020109011901020CA
:1013A00012900020139015901490169017904FF4FF
:1013B00080501890002019904FF480401A9000201F
:1013C0001B9008A81C9001A81D900FA806F013FD03
:1013D0000121062006F09AFD322004F00BFC0121C9
:1013E0000020FFF772F9322004F004FC0020FFF720
:1013F00078F9B449888008468088FF280ADB0846C7
:1014000080884FF6FF71884204D0AE488088B0F5DE
:10141000134F7CD1D320FFF73DF9FFF74EF9A949CF
:101420008880FFF74AF9A7498880FFF746F9A54960
:101430008880084680884FF6FF7101EA0020A149A4
:101440008880FFF73AF99F49898808439D49888039
:101450000846808849F24131884278D0BF20FFF7A2
:1014600019F9FFF72AF997498880FFF726F9954976
:101470008880FFF722F993498880FFF71EF9914988
:101480008880084680884FF6FF7101EA00208D4968
:101490008880FFF712F98B49898808438949888039
:1014A0000846808846F60401884250D0D420FFF7D1
:1014B000F1F8FFF702F983498880FFF7FEF88149C8
:1014C0008880FFF7FAF87F498880084680884FF6C1
:1014D000FF7101EA00207B498880FFF7EEF8794927
:1014E00089880843774988800846808845F210310A
:1014F00088422CD04FF45A40FFF7CCF8FFF7DDF8C4
:10150000704988804FF45B40FFF7C4F800E01EE0AC
:10151000FFF7D3F86B498880084680884FF6FF7143
:1015200001EA0020674988804FF45C40FFF7B2F879
:10153000FFF7C3F8634989880843624988800846F1
:101540008088B0F5004F02D145F2105088805D4888
:10155000808849F2413188420BD05A48808845F250
:101560001031884205D05748808845F21051884292
:101570001DD15548006820F00F004FF02041C1F800
:101580001C010846D0F81C0120F47060C1F81C0151
:101590000846D0F81C0140F00300C1F81C010846C1
:1015A000D0F81C0140F40070C1F81C0128E0454847
:1015B000808846F60401884205D0424880884CF273
:1015C000055188421CD14048006820F00F004FF0C0
:1015D0002041C1F81C010846D0F81C0120F47060BD
:1015E000C1F81C010846D0F81C0140F00A00C1F8FF
:1015F0001C010846D0F81C0140F44060C1F81C01F1
:101600003048808849F24131884252D1CF20FFF7DB
:1016100041F80020FFF747F82098401C2090C12097
:10162000FFF741F83020FFF73EF8ED20FFF732F8E2
:101630006420FFF738F80320FFF735F81220FFF792
:1016400032F88120FFF72FF8E820FFF723F88520F4
:10165000FFF729F81020FFF726F87A20FFF723F884
:10166000CB20FFF717F83920FFF71DF82C20FFF7E4
:101670001AF80020FFF717F83420FFF714F80220BB
:10168000FFF711F8F720FFF705F82020FFF70BF818
:10169000EA20FEF7FFFF0020FFF705F80020FFF724
:1016A00002F8C020FEF7F6FF1B20FEF7FCFFC1206A
:1016B0000CE0D2E0000C0240001002400014024096
:1016C00000180240480000201C0100A0FEF7E2FFC5
:1016D0000120FEF7E8FFC520FEF7DCFF3020FEF713
:1016E000E2FF3020FEF7DFFFC720FEF7D3FFB72071
:1016F000FEF7D9FF3620FEF7CDFF4820FEF7D3FFD7
:101700003A20FEF7C7FF5520FEF7CDFFB120FEF7C8
:10171000C1FF0020FEF7C7FF1A20FEF7C4FFB62066
:10172000FEF7B8FF0A20FEF7BEFFA220FEF7BBFFC0
:10173000F220FEF7AFFF0020FEF7B5FF2620FEF7F0
:10174000A9FF0120FEF7AFFFE020FEF7A3FF0F2067
:10175000FEF7A9FF2A20FEF7A6FF2820FEF7A3FF29
:101760000820FEF7A0FF0E20FEF79DFF0820FEF7E1
:101770009AFF5420FEF797FFA920FEF794FF43201D
:10178000FEF791FF0A20FEF78EFF0F20FEF78BFF7A
:101790000020FEF788FF0020FEF785FF0020FEF7FF
:1017A00082FF0020FEF77FFFE120FEF773FF00209D
:1017B000FEF779FF1520FEF776FF1720FEF773FF7F
:1017C0000720FEF770FF1120FEF76DFF0620FEF7E1
:1017D0006AFF2B20FEF767FF5620FEF764FF3C20D0
:1017E000FEF761FF0520FEF75EFF1020FEF75BFFAE
:1017F0000F20FEF758FF3F20FEF755FF3F20FEF772
:1018000052FF0F20FEF74FFF2B20FEF743FF002073
:10181000FEF749FF0020FEF746FF0120FEF743FFD9
:101820003F20FEF740FF2A20FEF734FF0020FEF79E
:101830003AFF0020FEF737FF0020FEF734FFEF20CD
:10184000FEF731FF1120FEF725FF782004F0D2F9D2
:101850002920FEF71FFF03F05CB8FE48808846F69B
:10186000040188427ED11120FEF714FF142004F0F9
:10187000C1F9D020FEF70EFF0720FEF714FF42202B
:10188000FEF711FF1D20FEF70EFFD120FEF702FF2D
:101890000020FEF708FF1A20FEF705FF0920FEF7DB
:1018A00002FFD220FEF7F6FE0120FEF7FCFE22200A
:1018B000FEF7F9FEC020FEF7EDFE1020FEF7F3FE66
:1018C0003B20FEF7F0FE0020FEF7EDFE0220FEF7C3
:1018D000EAFE1120FEF7E7FEC520FEF7DBFE03203F
:1018E000FEF7E1FEC820FEF7D5FE0020FEF7DBFE86
:1018F0002520FEF7D8FE2120FEF7D5FE0520FEF7B5
:10190000D2FE0020FEF7CFFE0A20FEF7CCFE6520B7
:10191000FEF7C9FE2520FEF7C6FE7720FEF7C3FEC0
:101920005020FEF7C0FE0F20FEF7BDFE0020FEF7A0
:10193000BAFEF820FEF7AEFE0120FEF7B4FEFE2050
:10194000FEF7A8FE0020FEF7AEFE0220FEF7ABFE7B
:101950002020FEF79FFE3620FEF79CFE0820FEF7B3
:10196000A2FE00E02AE03A20FEF794FE5520FEF7A2
:101970009AFE2B20FEF78EFE0020FEF794FE00203C
:10198000FEF791FE0120FEF78EFE3F20FEF78BFE54
:101990002A20FEF77FFE0020FEF785FE0020FEF7DE
:1019A00082FE0120FEF77FFEDF20FEF77CFE78201E
:1019B00004F020F92920FEF76DFE4CE7A548808849
:1019C00045F21031884240F07C87ED20FEF762FE40
:1019D0000120FEF768FEFE20FEF765FEEE20FEF712
:1019E00059FEDE20FEF75FFE2120FEF75CFEF120AF
:1019F000FEF750FE0120FEF756FEDF20FEF74AFEFE
:101A00001020FEF750FEC420FEF744FE8F20FEF7A4
:101A10004AFEC620FEF73EFE0020FEF744FEE2200E
:101A2000FEF741FEE220FEF73EFEE220FEF73BFE1F
:101A3000BF20FEF72FFEAA20FEF735FEB020FEF7EE
:101A400029FE0D20FEF72FFE0020FEF72CFE0D20B4
:101A5000FEF729FE0020FEF726FE1120FEF723FEEA
:101A60000020FEF720FE1920FEF71DFE0020FEF7E5
:101A70001AFE2120FEF717FE0020FEF714FE2D208F
:101A8000FEF711FE0020FEF70EFE3D20FEF70BFED6
:101A90000020FEF708FE5D20FEF705FE0020FEF7A1
:101AA00002FE5D20FEF7FFFD0020FEF7FCFDB120E9
:101AB000FEF7F0FD8020FEF7F6FD0020FEF7F3FDB7
:101AC0008B20FEF7F0FD0020FEF7EDFD9620FEF7DF
:101AD000EAFD0020FEF7E7FDB220FEF7DBFD002067
:101AE000FEF7E1FD0020FEF7DEFD0220FEF7DBFD44
:101AF0000020FEF7D8FD0320FEF7D5FD0020FEF7FD
:101B0000D2FDB320FEF7C6FD0020FEF7CCFD00207D
:101B1000FEF7C9FD0020FEF7C6FD0020FEF7C3FD5D
:101B20000020FEF7C0FD0020FEF7BDFD0020FEF7FF
:101B3000BAFD0020FEF7B7FD0020FEF7B4FD00203F
:101B4000FEF7B1FD0020FEF7AEFD0020FEF7ABFD75
:101B50000020FEF7A8FD0020FEF7A5FD0020FEF7FF
:101B6000A2FD0020FEF79FFD0020FEF79CFD002057
:101B7000FEF799FD0020FEF796FD0020FEF793FD8D
:101B80000020FEF790FD0020FEF78DFD0020FEF7FF
:101B90008AFD0020FEF787FDB420FEF77BFD8B2039
:101BA000FEF781FD0020FEF77EFD9620FEF77BFD0F
:101BB0000020FEF778FDA120FEF775FD0020FEF75E
:101BC00072FDB520FEF766FD0220FEF76CFD0020D9
:101BD000FEF769FD0320FEF766FD0020FEF763FDBA
:101BE0000420FEF760FD0020FEF75DFDB620FEF745
:101BF00051FD0020FEF757FD0020FEF754FDB720F1
:101C0000FEF748FD0020FEF74EFD0020FEF74BFDDD
:101C10003F20FEF748FD0020FEF745FD5E20FEF761
:101C200042FD0020FEF73FFD6420FEF73CFD002052
:101C3000FEF739FD8C20FEF736FD0020FEF733FD60
:101C4000AC20FEF730FD0020FEF72DFDDC20FEF776
:101C50002AFD01E0480000200020FEF724FD70204E
:101C6000FEF721FD0020FEF71EFD9020FEF71BFD74
:101C70000020FEF718FDEB20FEF715FD0020FEF713
:101C800012FDDC20FEF70FFD0020FEF70CFDB82052
:101C9000FEF700FD0020FEF706FD0020FEF703FD25
:101CA0000020FEF700FD0020FEF7FDFC0020FEF7FF
:101CB000FAFC0020FEF7F7FC0020FEF7F4FC002001
:101CC000FEF7F1FCBA20FEF7E5FC2420FEF7EBFC62
:101CD0000020FEF7E8FC0020FEF7E5FC0020FEF700
:101CE000E2FCC120FEF7D6FC2020FEF7DCFC002041
:101CF000FEF7D9FC5420FEF7D6FC0020FEF7D3FCFB
:101D0000FF20FEF7D0FC0020FEF7CDFCC220FEF73E
:101D1000C1FC0A20FEF7C7FC0020FEF7C4FC04202B
:101D2000FEF7C1FC0020FEF7BEFCC320FEF7B2FCAC
:101D30003C20FEF7B8FC0020FEF7B5FC3A20FEF789
:101D4000B2FC0020FEF7AFFC3920FEF7ACFC00200F
:101D5000FEF7A9FC3720FEF7A6FC0020FEF7A3FC47
:101D60003C20FEF7A0FC0020FEF79DFC3620FEF78D
:101D70009AFC0020FEF797FC3220FEF794FC00202E
:101D8000FEF791FC2F20FEF78EFC0020FEF78BFC67
:101D90002C20FEF788FC0020FEF785FC2920FEF7AA
:101DA00082FC0020FEF77FFC2620FEF77CFC002052
:101DB000FEF779FC2420FEF776FC0020FEF773FC8A
:101DC0002420FEF770FC0020FEF76DFC2320FEF7B8
:101DD0006AFC0020FEF767FC3C20FEF764FC002054
:101DE000FEF761FC3620FEF75EFC0020FEF75BFC90
:101DF0003220FEF758FC0020FEF755FC2F20FEF79E
:101E000052FC0020FEF74FFC2C20FEF74CFC00207B
:101E1000FEF749FC2920FEF746FC0020FEF743FCB4
:101E20002620FEF740FC0020FEF73DFC2420FEF7B4
:101E30003AFC0020FEF737FC2420FEF734FC00209B
:101E4000FEF731FC2320FEF72EFC0020FEF72BFCD2
:101E5000C420FEF71FFC6220FEF725FC0020FEF7E1
:101E600022FC0520FEF71FFC0020FEF71CFC84204E
:101E7000FEF719FC0020FEF716FCF020FEF713FC1D
:101E80000020FEF710FC1820FEF70DFC0020FEF7E6
:101E90000AFCA420FEF707FC0020FEF704FC182033
:101EA000FEF701FC0020FEF7FEFB5020FEF7FBFBD7
:101EB0000020FEF7F8FB0C20FEF7F5FB0020FEF7F4
:101EC000F2FB1720FEF7EFFB0020FEF7ECFB95205E
:101ED000FEF7E9FB0020FEF7E6FBF320FEF7E3FB4D
:101EE0000020FEF7E0FBE620FEF7DDFB0020FEF71A
:101EF000DAFBC520FEF7CEFB3220FEF7D4FB002034
:101F0000FEF7D1FB4420FEF7CEFB0020FEF7CBFB13
:101F10006520FEF7C8FB0020FEF7C5FB7620FEF724
:101F2000C2FB0020FEF7BFFB8820FEF7BCFB0020B1
:101F3000FEF7B9FBC620FEF7ADFB2020FEF7B3FB92
:101F40000020FEF7B0FB1720FEF7ADFB0020FEF7E8
:101F5000AAFB0120FEF7A7FB0020FEF7A4FBC72089
:101F6000FEF798FB0020FEF79EFB0020FEF79BFB90
:101F70000020FEF798FB0020FEF795FBC820FEF737
:101F800089FB0020FEF78FFB0020FEF78CFB002072
:101F9000FEF789FB0020FEF786FBC920FEF77AFBDF
:101FA0000020FEF780FB0020FEF77DFB0020FEF7FF
:101FB0007AFB0020FEF777FB0020FEF774FB002081
:101FC000FEF771FB0020FEF76EFB0020FEF76BFBB7
:101FD0000020FEF768FB0020FEF765FB0020FEF7FF
:101FE00062FB0020FEF75FFB0020FEF75CFB002099
:101FF000FEF759FB0020FEF756FB0020FEF753FBCF
:10200000E020FEF747FB1620FEF74DFB0020FEF711
:102010004AFB1C20FEF747FB0020FEF744FB212073
:10202000FEF741FB0020FEF73EFB3620FEF73BFBB0
:102030000020FEF738FB4620FEF735FB0020FEF7B8
:1020400032FB5220FEF72FFB0020FEF72CFB642012
:10205000FEF729FB0020FEF726FB7A20FEF723FB84
:102060000020FEF720FB8B20FEF71DFB0020FEF773
:102070001AFB9920FEF717FB0020FEF714FBA8209F
:10208000FEF711FB0020FEF70EFBB920FEF70BFB5D
:102090000020FEF708FBC420FEF705FB0020FEF73A
:1020A00002FBCA20FEF7FFFA0020FEF7FCFAD2205E
:1020B000FEF7F9FA0020FEF7F6FAD920FEF7F3FA58
:1020C0000020FEF7F0FAE020FEF7EDFA0020FEF720
:1020D000EAFAF320FEF7E7FA0020FEF7E4FAE1203F
:1020E000FEF7D8FA1620FEF7DEFA0020FEF7DBFA3C
:1020F0001C20FEF7D8FA0020FEF7D5FA2220FEF7C2
:10210000D2FA0020FEF7CFFA3620FEF7CCFA0020F4
:10211000FEF7C9FA4520FEF7C6FA0020FEF7C3FA1B
:102120005220FEF7C0FA0020FEF7BDFA6420FEF749
:10213000BAFA0020FEF7B7FA7A20FEF7B4FA0020C8
:10214000FEF7B1FA8B20FEF7AEFA0020FEF7ABFAED
:102150009920FEF7A8FA0020FEF7A5FAA820FEF7BE
:10216000A2FA0020FEF79FFAB920FEF79CFA0020A1
:10217000FEF799FAC420FEF796FA0020FEF793FACC
:10218000CA20FEF790FA0020FEF78DFAD220FEF763
:102190008AFA0020FEF787FAD820FEF784FA00209A
:1021A000FEF781FAE020FEF77EFA0020FEF77BFAC8
:1021B000F320FEF778FA0020FEF775FAE220FEF72A
:1021C00069FA0520FEF76FFA0020FEF76CFA0B2083
:1021D000FEF769FA0020FEF766FA1B20FEF763FAA5
:1021E0000020FEF760FA3420FEF75DFA0020FEF7CB
:1021F0005AFA4420FEF757FA0020FEF754FA4F200F
:10220000FEF751FA0020FEF74EFA6120FEF74BFA76
:102210000020FEF748FA7920FEF745FA0020FEF785
:1022200042FA8820FEF73FFA0020FEF73CFA97209A
:10223000FEF739FA0020FEF736FAA620FEF733FA49
:102240000020FEF730FAB720FEF72DFA0020FEF747
:102250002AFAC220FEF727FA0020FEF724FAC72048
:10226000FEF721FA0020FEF71EFAD120FEF71BFA36
:102270000020FEF718FAD620FEF715FA0020FEF728
:1022800012FADD20FEF70FFA0020FEF70CFAF32019
:10229000FEF709FA0020FEF706FAE320FEF7FAF946
:1022A0000520FEF700FA0020FEF7FDF90A20FEF7F0
:1022B000FAF90020FEF7F7F91C20FEF7F4F90020E8
:1022C000FEF7F1F93320FEF7EEF90020FEF7EBF907
:1022D0004420FEF7E8F90020FEF7E5F95020FEF76C
:1022E000E2F90020FEF7DFF96220FEF7DCF90020BA
:1022F000FEF7D9F97820FEF7D6F90020FEF7D3F9DA
:102300008820FEF7D0F90020FEF7CDF99720FEF7E0
:10231000CAF90020FEF7C7F9A620FEF7C4F900208D
:10232000FEF7C1F9B720FEF7BEF90020FEF7BBF9B2
:10233000C220FEF7B8F90020FEF7B5F9C720FEF776
:10234000B2F90020FEF7AFF9D120FEF7ACF900207A
:10235000FEF7A9F9D520FEF7A6F90020FEF7A3F9AC
:10236000DD20FEF7A0F90020FEF79DF9F320FEF72F
:102370009AF90020FEF797F9E420FEF78BF9012087
:10238000FEF791F90020FEF78EF90120FEF78BF998
:102390000020FEF788F90220FEF785F90020FEF7FD
:1023A00082F92A20FEF77FF90020FEF77CF93C2015
:1023B000FEF779F90020FEF776F94B20FEF773F966
:1023C0000020FEF770F95D20FEF76DF90020FEF7A2
:1023D0006AF97420FEF767F90020FEF764F984209B
:1023E000FEF761F90020FEF75EF99320FEF75BF936
:1023F0000020FEF758F9A220FEF755F90020FEF75D
:1024000052F9B320FEF74FF90020FEF74CF9BE2039
:10241000FEF749F90020FEF746F9C420FEF743F91C
:102420000020FEF740F9CD20FEF73DF90020FEF731
:102430003AF9D320FEF737F90020FEF734F9DD2012
:10244000FEF731F90020FEF72EF9F320FEF72BF905
:102450000020FEF728F9E520FEF71CF90020FEF722
:1024600022F90020FEF71FF90020FEF71CF90020DA
:10247000FEF719F90220FEF716F90020FEF713F90E
:102480002920FEF710F90020FEF70DF93C20FEF799
:102490000AF90020FEF707F94B20FEF704F90020A7
:1024A000FEF701F95D20FEF7FEF80020FEF7FBF8CD
:1024B0007420FEF7F8F80020FEF7F5F88420FEF708
:1024C000F2F80020FEF7EFF89320FEF7ECF800207A
:1024D000FEF7E9F8A220FEF7E6F80020FEF7E3F8A1
:1024E000B320FEF7E0F80020FEF7DDF8BE20FEF78F
:1024F000DAF80020FEF7D7F8C420FEF7D4F8002061
:10250000FEF7D1F8CD20FEF7CEF80020FEF7CBF88D
:10251000D320FEF7C8F80020FEF7C5F8DC20FEF750
:10252000C2F80020FEF7BFF8F320FEF7BCF8002049
:10253000FEF7B9F8E620FEF7ADF81120FEF7B3F884
:102540000020FEF7B0F83420FEF7ADF80020FEF7CB
:10255000AAF85620FEF7A7F80020FEF7A4F8762088
:10256000FEF7A1F80020FEF79EF87720FEF79BF813
:102570000020FEF798F86620FEF795F80020FEF799
:1025800092F88820FEF78FF80020FEF78CF899204B
:10259000FEF789F80020FEF786F8BB20FEF783F8E7
:1025A0000020FEF780F89920FEF77DF80020FEF766
:1025B0007AF86620FEF777F80020FEF774F85520C9
:1025C000FEF771F80020FEF76EF85520FEF76BF865
:1025D0000020FEF768F84520FEF765F80020FEF7BA
:1025E00062F84320FEF75FF80020FEF75CF8442015
:1025F000FEF759F80020FEF756F8E720FEF74AF8F4
:102600003220FEF750F80020FEF74DF85520FEF777
:102610004AF80020FEF747F87620FEF744F800203D
:10262000FEF741F86620FEF73EF80020FEF73BF883
:102630006720FEF738F80020FEF735F86720FEF730
:1026400032F80020FEF72FF88720FEF72CF8002044
:10265000FEF729F89920FEF726F80020FEF723F868
:10266000BB20FEF720F80020FEF71DF89920FEF7AA
:102670001AF80020FEF717F87720FEF714F800206C
:10268000FEF711F84420FEF70EF80020FEF70BF8D5
:102690005620FEF708F80020FEF705F82320FEF785
:1026A00002F80020FDF7FFFF3320FDF7FCFF0020BC
:1026B000FDF7F9FF4520FDF7F6FF0020FDF7F3FFDA
:1026C000E820FDF7E7FF0020FDF7EDFF0020FDF714
:1026D000EAFF9920FDF7E7FF0020FDF7E4FF8720E0
:1026E000FDF7E1FF0020FDF7DEFF8820FDF7DBFFAF
:1026F0000020FDF7D8FF7720FDF7D5FF0020FDF77C
:10270000D2FF6620FDF7CFFF0020FDF7CCFF882029
:10271000FDF7C9FF0020FDF7C6FFAA20FDF7C3FFA4
:102720000020FDF7C0FFBB20FDF7BDFF0020FDF737
:10273000BAFF9920FDF7B7FF0020FDF7B4FF662030
:10274000FDF7B1FF0020FDF7AEFF5520FDF7ABFF11
:102750000020FDF7A8FF5520FDF7A5FF0020FDF79D
:10276000A2FF4420FDF79FFF0020FDF79CFF4420BF
:10277000FDF799FF0020FDF796FF5520FDF793FF29
:102780000020FDF790FFE920FDF784FFAA20FDF768
:102790008AFF0020FDF787FF0020FDF784FF00205F
:1027A000FDF781FF0020FDF775FFAA20FDF77BFFF5
:1027B000CF20FDF76FFF0020FDF775FF0020FDF72C
:1027C00072FF0020FDF76FFF0020FDF76CFF002077
:1027D000FDF769FF0020FDF766FF0020FDF763FFAE
:1027E0000020FDF760FF0020FDF75DFF0020FDF7F2
:1027F0005AFF0020FDF757FF0020FDF754FF00208F
:10280000FDF751FF0020FDF74EFF0020FDF74BFFC5
:102810000020FDF748FF0020FDF745FFF020FDF701
:1028200039FF0020FDF73FFF5020FDF73CFF00205F
:10283000FDF739FF0020FDF736FF0020FDF733FFDD
:10284000F320FDF727FF0020FDF72DFFF920FDF70E
:1028500021FF0620FDF727FF1020FDF724FF292088
:10286000FDF721FF0020FDF71EFF3A20FDF712FFC4
:102870005520FDF718FF1120FDF70CFF642003F031
:10288000B9F92920FDF706FF3520FDF703FF0020E9
:10289000FDF709FF5120FDF7FDFEFF20FDF703FFC7
:1028A0005320FDF7F7FE2C20FDF7FDFE5520FDF728
:1028B000F1FE8220FDF7F7FE2C20FDF7EBFE02F083
:1028C00028B8FE48808845F2105188427ED15521B3
:1028D0004FF47040FDF7F9FEAA214FF20100FDF719
:1028E000F4FE52214FF20200FDF7EFFE08214FF2F5
:1028F0000300FDF7EAFE01214FF20400FDF7E5FEBB
:102900000D214FF43040FDF7E0FE0D214BF20100A8
:10291000FDF7DBFE0D214BF20200FDF7D6FE342160
:102920004FF43640FDF7D1FE34214BF20160FDF744
:10293000CCFE34214BF20260FDF7C7FE0D214FF4AF
:102940003140FDF7C2FE0D214BF20110FDF7BDFE37
:102950000D214BF20210FDF7B8FE34214FF4374041
:10296000FDF7B3FE34214BF20170FDF7AEFE3421CA
:102970004BF20270FDF7A9FE00214FF43240FDF743
:10298000A4FE00214BF20120FDF79FFE00214BF237
:102990000220FDF79AFE24214FF43840FDF795FE02
:1029A00024214BF60100FDF790FE24214BF6020096
:1029B000FDF78BFE01214FF43F40FDF786FE0F210E
:1029C0004FF43340FDF781FE0F2100E0FEE34BF2B0
:1029D0000130FDF77AFE0F214BF20230FDF775FE54
:1029E00034214FF43940FDF770FE34214BF60110CD
:1029F000FDF76BFE34214BF60210FDF766FE082151
:102A00004FF43540FDF761FE08214BF20150FDF710
:102A10005CFE08214BF20250FDF757FE03214FF4F4
:102A20004240FDF752FE24214FF43A40FDF74DFE9F
:102A300024214BF60120FDF748FE24214BF602200D
:102A4000FDF743FE00214FF43C40FDF73EFE7821A8
:102A50004BF60140FDF739FE00214BF60240FDF731
:102A600034FE00214FF43D40FDF72FFE78214BF658
:102A70000150FDF72AFE00214BF60250FDF725FE1E
:102A800000214FF43E40FDF720FE64214BF601602B
:102A9000FDF71BFE00214FF45140FDF716FE3321D8
:102AA0004DF20110FDF711FE00214DF20210FDF76D
:102AB0000CFE34214DF20310FDF707FE00214DF20C
:102AC0000410FDF702FE3A214DF20510FDF7FDFD61
:102AD00000214DF20610FDF7F8FD4A214DF20710D6
:102AE000FDF7F3FD00214DF20810FDF7EEFD5C212E
:102AF0004DF20910FDF7E9FD00214DF20A10FDF736
:102B0000E4FD81214DF20B10FDF7DFFD00214DF2B8
:102B10000C10FDF7DAFDA6214DF20D10FDF7D5FDE5
:102B200000214DF20E10FDF7D0FDE5214DF20F1002
:102B3000FDF7CBFD01214DF21010FDF7C6FD13216D
:102B40004DF21110FDF7C1FD01214DF21210FDF7FC
:102B5000BCFD54214DF21310FDF7B7FD01214DF2DC
:102B60001410FDF7B2FD82214DF21510FDF7ADFDF9
:102B700001214DF21610FDF7A8FDCA214DF21710E4
:102B8000FDF7A3FD02214DF21810FDF79EFD002177
:102B90004DF21910FDF799FD02214DF21A10FDF7C3
:102BA00094FD01214DF21B10FDF78FFD02214DF226
:102BB0001C10FDF78AFD34214DF21D10FDF785FD37
:102BC00002214DF21E10FDF780FD67214DF21F100E
:102BD000FDF77BFD02214DF22010FDF776FD8421EB
:102BE0004DF22110FDF771FD02214DF22210FDF78B
:102BF0006CFDA4214DF22310FDF767FD02214DF27B
:102C00002410FDF762FDB7214DF22510FDF75DFDA3
:102C100002214DF22610FDF758FDCF214DF227106D
:102C2000FDF753FD02214DF22810FDF74EFDDE2188
:102C30004DF22910FDF749FD02214DF22A10FDF752
:102C400044FDF2214DF22B10FDF73FFD02214DF224
:102C50002C10FDF73AFDFE214DF22D10FDF735FD4C
:102C600003214DF22E10FDF730FD10214DF22F10F3
:102C7000FDF72BFD03214DF23010FDF726FD33212A
:102C80004DF23110FDF721FD03214DF23210FDF719
:102C90001CFD6D214DF23310FDF717FD00214FF49F
:102CA0005240FDF712FD33214DF20120FDF70DFDDD
:102CB00000214DF20220FDF708FD01E04800002050
:102CC00034214DF20320FDF700FD00214DF20420D8
:102CD000FDF7FBFC3A214DF20520FDF7F6FC002143
:102CE0004DF20620FDF7F1FC4A214DF20720FDF7D9
:102CF000ECFC00214DF20820FDF7E7FC5C214DF2D1
:102D00000920FDF7E2FC00214DF20A20FDF7DDFC71
:102D100081214DF20B20FDF7D8FC00214DF20C2053
:102D2000FDF7D3FCA6214DF20D20FDF7CEFC0021CE
:102D30004DF20E20FDF7C9FCE5214DF20F20FDF705
:102D4000C4FC01214DF21020FDF7BFFC13214DF210
:102D50001120FDF7BAFC01214DF21220FDF7B5FC60
:102D600054214DF21320FDF7B0FC01214DF2142047
:102D7000FDF7ABFC82214DF21520FDF7A6FC0121E9
:102D80004DF21620FDF7A1FCCA214DF21720FDF7E8
:102D90009CFC02214DF21820FDF797FC00214DF21A
:102DA0001920FDF792FC02214DF21A20FDF78DFC4F
:102DB00001214DF21B20FDF788FC02214DF21C2061
:102DC000FDF783FC34214DF21D20FDF77EFC02212E
:102DD0004DF21E20FDF779FC67214DF21F20FDF713
:102DE00074FC02214DF22020FDF76FFC84214DF28E
:102DF0002120FDF76AFC02214DF22220FDF765FC3F
:102E0000A4214DF22320FDF760FC02214DF2242085
:102E1000FDF75BFCB7214DF22520FDF756FC0221A2
:102E20004DF22620FDF751FCCF214DF22720FDF772
:102E30004CFC02214DF22820FDF747FCDE214DF22B
:102E40002920FDF742FC02214DF22A20FDF73DFC2E
:102E5000F2214DF22B20FDF738FC02214DF22C20FF
:102E6000FDF733FCFE214DF22D20FDF72EFC032152
:102E70004DF22E20FDF729FC10214DF22F20FDF7F9
:102E800024FC03214DF23020FDF71FFC33214DF2CD
:102E90003120FDF71AFC03214DF23220FDF715FC1D
:102EA0006D214DF23320FDF710FC00214FF453400B
:102EB000FDF70BFC33214DF20130FDF706FC00213C
:102EC0004DF20230FDF701FC34214DF20330FDF7E5
:102ED000FCFB00214DF20430FDF7F7FB3A214DF2E7
:102EE0000530FDF7F2FB00214DF20630FDF7EDFB5A
:102EF0004A214DF20730FDF7E8FB00214DF2083082
:102F0000FDF7E3FB5C214DF20930FDF7DEFB00210C
:102F10004DF20A30FDF7D9FB81214DF20B30FDF760
:102F2000D4FB00214DF20C30FDF7CFFBA6214DF272
:102F30000D30FDF7CAFB00214DF20E30FDF7C5FB49
:102F4000E5214DF20F30FDF7C0FB01214DF21030AD
:102F5000FDF7BBFB13214DF21130FDF7B6FB01214C
:102F60004DF21230FDF7B1FB54214DF21330FDF755
:102F7000ACFB01214DF21430FDF7A7FB82214DF28D
:102F80001530FDF7A2FB01214DF21630FDF79DFB38
:102F9000CA214DF21730FDF798FB02214DF218308F
:102FA000FDF793FB00214DF21930FDF78EFB022156
:102FB0004DF21A30FDF789FB01214DF21B30FDF770
:102FC00084FB02214DF21C30FDF77FFB34214DF2D2
:102FD0001D30FDF77AFB02214DF21E30FDF775FB27
:102FE00067214DF21F30FDF770FB02214DF22030BA
:102FF000FDF76BFB84214DF22130FDF766FB0221CA
:103000004DF22230FDF761FBA4214DF22330FDF794
:103010005CFB02214DF22430FDF757FBB7214DF246
:103020002530FDF752FB02214DF22630FDF74DFB16
:10303000CF214DF22730FDF748FB02214DF2283019
:10304000FDF743FBDE214DF22930FDF73EFB022167
:103050004DF22A30FDF739FBF2214DF22B30FDF70E
:1030600034FB02214DF22C30FDF72FFBFE214DF2F7
:103070002D30FDF72AFB03214DF22E30FDF725FB05
:1030800010214DF22F30FDF720FB03214DF230309F
:10309000FDF71BFB33214DF23130FDF716FB032109
:1030A0004DF23230FDF711FB6D214DF23330FDF75B
:1030B0000CFB00214FF45440FDF707FB33214DF288
:1030C0000140FDF702FB00214DF20240FDF7FDFA41
:1030D00034214DF20340FDF7F8FA00214DF204408F
:1030E000FDF7F3FA3A214DF20540FDF7EEFA002123
:1030F0004DF20640FDF7E9FA4A214DF20740FDF78F
:10310000E4FA00214DF20840FDF7DFFA5C214DF2B0
:103110000940FDF7DAFA00214DF20A40FDF7D5FA31
:1031200081214DF20B40FDF7D0FA00214DF20C4009
:10313000FDF7CBFAA6214DF20D40FDF7C6FA0021AE
:103140004DF20E40FDF7C1FAE5214DF20F40FDF7BB
:10315000BCFA01214DF21040FDF7B7FA13214DF2F0
:103160001140FDF7B2FA01214DF21240FDF7ADFA20
:1031700054214DF21340FDF7A8FA01214DF21440FD
:10318000FDF7A3FA82214DF21540FDF79EFA0121C9
:103190004DF21640FDF799FACA214DF21740FDF79E
:1031A00094FA02214DF21840FDF78FFA00214DF2FA
:1031B0001940FDF78AFA02214DF21A40FDF785FA0F
:1031C00001214DF21B40FDF780FA00E004E30221EB
:1031D0004DF21C40FDF779FA34214DF21D40FDF708
:1031E00074FA02214DF21E40FDF76FFA67214DF28D
:1031F0001F40FDF76AFA02214DF22040FDF765FA03
:1032000084214DF22140FDF760FA02214DF2224067
:10321000FDF75BFAA4214DF22340FDF756FA022197
:103220004DF22440FDF751FAB7214DF22540FDF74C
:103230004CFA02214DF22640FDF747FACF214DF21C
:103240002740FDF742FA02214DF22840FDF73DFAF2
:10325000DE214DF22940FDF738FA02214DF22A40D5
:10326000FDF733FAF2214DF22B40FDF72EFA022141
:103270004DF22C40FDF729FAFE214DF22D40FDF7CD
:1032800024FA03214DF22E40FDF71FFA10214DF2D2
:103290002F40FDF71AFA03214DF23040FDF715FAE1
:1032A00033214DF23140FDF710FA03214DF2324047
:1032B000FDF70BFA6D214DF23340FDF706FA0021C0
:1032C0004FF45540FDF701FA33214DF20150FDF75F
:1032D000FCF900214DF20250FDF7F7F934214DF2CF
:1032E0000350FDF7F2F900214DF20450FDF7EDF91E
:1032F0003A214DF20550FDF7E8F900214DF2065054
:10330000FDF7E3F94A214DF20750FDF7DEF9002100
:103310004DF20850FDF7D9F95C214DF20950FDF747
:10332000D4F900214DF20A50FDF7CFF981214DF279
:103330000B50FDF7CAF900214DF20C50FDF7C5F90D
:10334000A6214DF20D50FDF7C0F900214DF20E50AF
:10335000FDF7BBF9E5214DF20F50FDF7B6F901215C
:103360004DF21050FDF7B1F913214DF21150FDF758
:10337000ACF901214DF21250FDF7A7F954214DF29D
:103380001350FDF7A2F901214DF21450FDF79DF9FC
:1033900082214DF21550FDF798F901214DF216509A
:1033A000FDF793F9CA214DF21750FDF78EF902216E
:1033B0004DF21850FDF789F900214DF21950FDF733
:1033C00084F902214DF21A50FDF77FF901214DF2E7
:1033D0001B50FDF77AF902214DF21C50FDF775F9EB
:1033E00034214DF21D50FDF770F902214DF21E50AF
:1033F000FDF76BF967214DF21F50FDF766F90221C9
:103400004DF22050FDF761F984214DF22150FDF776
:103410005CF902214DF22250FDF757F9A4214DF23B
:103420002350FDF752F902214DF22450FDF74DF9DA
:10343000B7214DF22550FDF748F902214DF22650F3
:10344000FDF743F9CF214DF22750FDF73EF9022158
:103450004DF22850FDF739F9DE214DF22950FDF7E4
:1034600034F902214DF22A50FDF72FF9F2214DF2E5
:103470002B50FDF72AF902214DF22C50FDF725F9CA
:10348000FE214DF22D50FDF720F903214DF22E5073
:10349000FDF71BF910214DF22F50FDF716F903210E
:1034A0004DF23050FDF711F933214DF23150FDF757
:1034B0000CF903214DF23250FDF707F96D214DF261
:1034C0003350FDF702F900214FF45640FDF7FDF8A7
:1034D00033214DF20160FDF7F8F800214DF2026052
:1034E000FDF7F3F834214DF20360FDF7EEF800210B
:1034F0004DF20460FDF7E9F83A214DF20560FDF761
:10350000E4F800214DF20660FDF7DFF84A214DF2A4
:103510000760FDF7DAF800214DF20860FDF7D5F8F5
:103520005C214DF20960FDF7D0F800214DF20A60F0
:10353000FDF7CBF881214DF20B60FDF7C6F80021B5
:103540004DF20C60FDF7C1F8A6214DF20D60FDF7BC
:10355000BCF800214DF20E60FDF7B7F8E5214DF201
:103560000F60FDF7B2F801214DF21060FDF7ADF8E4
:1035700013214DF21160FDF7A8F801214DF2126000
:10358000FDF7A3F854214DF21360FDF79EF80121D9
:103590004DF21460FDF799F882214DF21560FDF7A8
:1035A00094F801214DF21660FDF78FF8CA214DF213
:1035B0001760FDF78AF802214DF21860FDF785F8D3
:1035C00000214DF21960FDF780F802214DF21A60DA
:1035D000FDF77BF801214DF21B60FDF776F8022123
:1035E0004DF21C60FDF771F834214DF21D60FDF7BE
:1035F0006CF802214DF21E60FDF767F867214DF26D
:103600001F60FDF762F802214DF22060FDF75DF8C2
:1036100084214DF22160FDF758F802214DF222601D
:10362000FDF753F8A4214DF22360FDF74EF8022177
:103630004DF22460FDF749F8B7214DF22560FDF702
:1036400044F802214DF22660FDF73FF8CF214DF2FC
:103650002760FDF73AF802214DF22860FDF735F8B2
:10366000DE214DF22960FDF730F802214DF22A608B
:10367000FDF72BF8F2214DF22B60FDF726F8022121
:103680004DF22C60FDF721F8FE214DF22D60FDF783
:103690001CF803214DF22E60FDF717F810214DF2B2
:1036A0002F60FDF712F803214DF23060FDF70DF8A1
:1036B00033214DF23160FDF708F803214DF23260FD
:1036C000FDF703F86D214DF23360FCF7FEFF552145
:1036D0004FF47040FCF7F9FFAA214FF20100FCF70C
:1036E000F4FF52214FF20200FCF7EFFF08214FF2E6
:1036F0000300FCF7EAFF00214FF20400FCF7E5FFAE
:10370000CC214FF43140FCF7E0FF00214BF20110D7
:10371000FCF7DBFF05214FF43640FCF7D6FF7021A4
:103720004FF43740FCF7D1FF70214BF20170FCF7EA
:10373000CCFF01214FF43840FCF7C7FF03214BF6C3
:103740000100FCF7C2FF03214BF60200FCF7BDFFAE
:1037500003214BF60300FCF7B8FF02214FF43C4075
:10376000FCF7B3FF00214BF60140FCF7AEFF002150
:103770004BF60240FCF7A9FFD0214FF44940FCF77B
:10378000A4FF02214CF60110FCF79FFF50214CF6DC
:103790000210FCF79AFF50214CF60310FCF795FF3E
:1037A00050214CF60410FCF790FF00214FF45450C8
:1037B000FCF78BFF55214FF46850FCF786FF4FF460
:1037C0008850FCF767FF782002F0CCF94FF42450C2
:1037D000FCF760FF01F09DB8FE48808849F2253172
:1037E00088427DD147F6F001E520FCF76EFF4FF4EB
:1037F00080710120FCF769FF4FF4E0610220FCF7C3
:1038000064FF41F230010320FCF75FFF0021042038
:10381000FCF75BFF40F202210820FCF756FF002175
:103820000920FCF752FF00210A20FCF74EFF00217F
:103830000C20FCF74AFF00210D20FCF746FF002179
:103840000F20FCF742FF00211020FCF73EFF07216C
:103850001120FCF73AFF00211220FCF736FF00216F
:103860001320FCF732FF00210720FCF72EFF41F266
:1038700090611020FCF729FF40F227211120FCF76E
:1038800024FF9D211220FCF720FF4FF4C851132084
:10389000FCF71BFF25212920FCF717FF0D212B200A
:1038A000FCF713FF07213020FCF70FFF40F2033134
:1038B0003120FCF70AFF03213220FCF706FF40F21B
:1038C00006213520FCF701FF08213620FCF7FDFE1C
:1038D00040F206413720FCF7F8FE4FF4417100E05A
:1038E00058E03820FCF7F1FE07213920FCF7EDFE07
:1038F00040F202613C20FCF7E8FE08213D20FCF785
:10390000E4FE00215020FCF7E0FEEF215120FCF7FF
:10391000DCFE00215220FCF7D8FE40F23F1153207C
:10392000FCF7D3FE4FF427416020FCF7CEFE0121C7
:103930006120FCF7CAFE00216A20FCF7C6FE0021C8
:103940008020FCF7C2FE00218120FCF7BEFE002192
:103950008220FCF7BAFE00218320FCF7B6FE00218E
:103960008420FCF7B2FE00218520FCF7AEFE10217A
:103970009020FCF7AAFE4FF4C0619220FCF7A5FE50
:1039800040F233110720FCF7A0FE22210020FCF7B3
:103990009CFE1FE78F48808849F2283188427DD1FC
:1039A00041F28F01EC20FCF790FE41F23421EF2030
:1039B000FCF78BFE4FF480710120FCF786FE4FF47C
:1039C000E0610220FCF781FE41F230010320FCF7A8
:1039D0007CFE00210420FCF778FE40F20221082042
:1039E000FCF773FE00210920FCF76FFE00210A207E
:1039F000FCF76BFE01210C20FCF767FE00210D2077
:103A0000FCF763FE00210F20FCF75FFE0021102071
:103A1000FCF75BFE07211120FCF757FE0021122066
:103A2000FCF753FE00211320FCF74FFE0121072075
:103A3000FCF74BFE322002F0DDF841F290411020FD
:103A4000FCF743FE40F227211120FCF73EFE322016
:103A500002F0D0F88A211220FCF737FE322002F063
:103A6000C9F84FF4D0511320FCF72FFE062129206E
:103A7000FCF72BFE0D212B20FCF727FE322002F055
:103A8000B9F800212020FCF720FE00212120FCF7BE
:103A90001CFE322002F0AEF8002100E075E030207C
:103AA000FCF713FE40F204613120FCF70EFE40F2F9
:103AB00005313220FCF709FE00213520FCF705FE18
:103AC00040F609413620FCF700FE4FF40171372023
:103AD000FCF7FBFD40F201313820FCF7F6FD40F227
:103AE00007713920FCF7F1FD00213C20FCF7EDFDCA
:103AF00040F60A213D20FCF7E8FD322002F07AF87A
:103B000000215020FCF7E1FDEF215120FCF7DDFD05
:103B100000215220FCF7D9FD40F23F115320FCF761
:103B2000D4FD4FF427416020FCF7CFFD0121612037
:103B3000FCF7CBFD00216A20FCF7C7FD00218020A7
:103B4000FCF7C3FD00218120FCF7BFFD002182208E
:103B5000FCF7BBFD00218320FCF7B7FD002184208A
:103B6000FCF7B3FD00218520FCF7AFFD102190206C
:103B7000FCF7ABFD4FF4C0619220FCF7A6FD40F2CC
:103B800033110720FCF7A1FD24E61248808849F292
:103B9000203188427ED100210846FCF796FD4FF483
:103BA00080710120FCF791FD4FF4E0610220FCF7E9
:103BB0008CFD41F230010320FCF787FD0021042039
:103BC000FCF783FD40F202210820FCF77EFD002176
:103BD000092001E048000020FCF777FD00210A20C1
:103BE000FCF773FD01210C20FCF76FFD00210D2077
:103BF000FCF76BFD00210F20FCF767FD322001F080
:103C0000F9FF40F201110720FCF75FFD322001F0BF
:103C1000F1FF4FF486511020FCF757FD07211120CA
:103C2000FCF753FD4FF488711220FCF74EFD4FF462
:103C300030611320FCF749FD00212920FCF745FDE8
:103C400044F210012B20FCF740FD00215020FCF72E
:103C50003CFDEF215120FCF738FD00215220FCF7FC
:103C600034FD40F23F115320FCF72FFD4FF41C515F
:103C70006020FCF72AFD01216120FCF726FD0021D0
:103C80006A20FCF722FD00218020FCF71EFD0021A8
:103C9000812000E030E0FCF718FD00218220FCF7D5
:103CA00014FD00218320FCF710FD00218420FCF787
:103CB0000CFD00218520FCF708FD10219020FCF769
:103CC00004FD00219220FCF700FD01219320FCF768
:103CD000FCFC4FF488719520FCF7F7FC002197203D
:103CE000FCF7F3FC00219820FCF7EFFC40F2731185
:103CF0000720FCF7EAFC6DE5FE48808849F2313187
:103D000088427DD141F21401E720FCF7DEFC4FF43C
:103D100080710120FCF7D9FC4FF400710220FCF700
:103D2000D4FC41F238010320FCF7CFFC40F2022121
:103D30000820FCF7CAFC00210920FCF7C6FC002182
:103D40000A20FCF7C2FC00210C20FCF7BEFC00217D
:103D50000D20FCF7BAFC00210F20FCF7B6FC002177
:103D60001020FCF7B2FC07211120FCF7AEFC00216B
:103D70001220FCF7AAFC00211320FCF7A6FCC820A7
:103D800001F038FF41F290611020FCF79EFC40F2F8
:103D900027211120FCF799FC322001F02BFF0C2188
:103DA0001220FCF792FC322001F024FF4FF4006156
:103DB0001320FCF78AFC11212920FCF786FC0B213B
:103DC0002B20FCF782FC322001F014FF0021202080
:103DD000FCF77BFC40F23F112120FCF776FC002130
:103DE0003020FCF772FC4FF483713120FCF76DFC3E
:103DF00000213220FCF769FC4FF40171352000E00E
:103E000064E0FCF762FC41F20A613620FCF75DFCDD
:103E100040F207713720FCF758FC4FF483713820CB
:103E2000FCF753FC40F207713920FCF74EFC40F2DE
:103E300002413C20FCF749FC40F60F413D20FCF7D5
:103E400044FC00215020FCF740FCEF215120FCF7FE
:103E50003CFC00215220FCF738FC40F23F1153207B
:103E6000FCF733FC4FF41C516020FCF72EFC0121C1
:103E70006120FCF72AFC00216A20FCF726FC0021C7
:103E80008020FCF722FC00218120FCF71EFC002191
:103E90008220FCF71AFC00218320FCF716FC00218D
:103EA0008420FCF712FC00218520FCF70EFC102179
:103EB0009020FCF70AFC4FF4C0619220FCF705FC4F
:103EC00040F233110720FCF700FC83E48948808826
:103ED00045F2084188427DD14FF480710120FCF702
:103EE000F4FB4FF4E0610220FCF7EFFB41F23001FC
:103EF0000320FCF7EAFB00210420FCF7E6FB40F27C
:103F000007210820FCF7E1FB00210920FCF7DDFB7D
:103F100000210A20FCF7D9FB00210C20FCF7D5FB7F
:103F200000210D20FCF7D1FB00210F20FCF7CDFB79
:103F3000142001F05FFE41F2B0611020FCF7C5FBD8
:103F400001211120FCF7C1FB01211720FCF7BDFB6B
:103F50004FF49C711220FCF7B8FB4FF40061132062
:103F6000FCF7B3FB09212920FCF7AFFB09212A202C
:103F7000FCF7ABFB0021A420FCF7A7FB002150209D
:103F8000FCF7A3FBEF215120FCF79FFB00215220FF
:103F9000FCF79BFB40F23F115320FCF796FB4FF4DC
:103FA0001C516020FCF791FB01216120FCF78DFB87
:103FB00000216A20FCF789FB00218020FCF785FBAB
:103FC00000218120FCF781FB00218220FCF77DFB92
:103FD000002100E024E08320FCF777FB002184200F
:103FE000FCF773FB00218520FCF76FFB1321902069
:103FF000FCF76BFB00219220FCF767FB0321932069
:10400000FCF763FB4FF488719520FCF75EFB40F2F0
:1040100073110720FCF759FB322001F0EBFDB8E4E7
:104020003448808841F2055188427DD10021072023
:10403000FCF74BFB322001F0DDFD4FF48E711220B6
:10404000FCF743FB0121A420FCF73FFB0F210820D4
:10405000FCF73BFB08210A20FCF737FB08210D2069
:10406000FCF733FB40F207713020FCF72EFB0721F1
:104070003120FCF72AFB40F203613220FCF725FBDC
:104080004FF4E0613320FCF720FB40F202213420A2
:10409000FCF71BFB02213520FCF717FB41F60F71E3
:1040A0003620FCF712FB40F207713720FCF70DFBBE
:1040B00000213820FCF709FB00213920FCF705FB23
:1040C00040F207713A20FCF700FB00213B20FCF78F
:1040D000FCFA07213C20FCF7F8FA00213D20FCF710
:1040E000F4FA322001F086FD01210720FCF7EDFAF9
:1040F000012101E0480000201720FCF7E6FA3220F9
:1041000001F078FD4FF4BD511020FCF7DEFA40F2CB
:1041100017211120FCF7D9FA4FF48F711220FCF708
:10412000D4FA4FF4706100E098E01320FCF7CDFA68
:1041300000212A20FCF7C9FA0A212920FCF7C5FA38
:104140004FF49F711220FCF7C0FA00215020FCF7B9
:10415000BCFAEF215120FCF7B8FA00215220FCF7FD
:10416000B4FA40F23F115320FCF7AFFA4FF41C5160
:104170006020FCF7AAFA01216120FCF7A6FA0021D1
:104180006A20FCF7A2FA00218020FCF79EFA0021A9
:104190008120FCF79AFA00218220FCF796FA002190
:1041A0008320FCF792FA00218420FCF78EFA00218C
:1041B0008520FCF78AFA13219020FCF786FA4FF449
:1041C00040719220FCF781FA05219320FCF77DFADB
:1041D00000219520FCF779FA00219720FCF775FA69
:1041E00000219820FCF771FA4FF480710120FCF750
:1041F0006CFA4FF4E0610220FCF767FA41F23801F3
:104200000320FCF762FA00210420FCF75EFA00218B
:104210000C20FCF75AFA00210F20FCF756FA002177
:104220002020FCF752FA00212120FCF74EFA212130
:104230000720FCF74AFA142001F0DCFC612107207A
:10424000FCF743FA142001F0D5FC40F2731107206B
:10425000FCF73BFA142001F0CDFC5AE3FE488088BD
:104260004BF2055188427CD100210846FCF72DFA1B
:1042700000210846FCF729FA00210846FCF725FA38
:1042800000210846FCF721FA0121A420FCF71DFAC1
:10429000142001F0AFFC4FF41C516020FCF715FA1C
:1042A00040F202210820FCF710FA4FF4057130208B
:1042B000FCF70BFA43F215713120FCF706FA40F2D5
:1042C00004613220FCF701FA40F616613320FCF756
:1042D000FCF942F211213420FCF7F7F94FF4A85110
:1042E0003520FCF7F2F948F207513620FCF7EDF9DA
:1042F00041F207413720FCF7E8F941F20341382049
:10430000FCF7E3F920213920FCF7DFF91A2190208E
:10431000FCF7DBF900211020FCF7D7F90721112069
:10432000FCF7D3F900211220FCF7CFF9002113206C
:10433000FCF7CBF9142001F05DFC4FF4E66110208E
:10434000FCF7C3F940F237111120FCF7BEF9142035
:1043500001F050FC4FF4DC711220FCF7B6F9142088
:1043600000E085E001F046FC4FF470611320FCF79B
:10437000ACF980212A20FCF7A8F948212920FCF774
:10438000A4F9142001F036FC4FF480710120FCF7F1
:104390009CF94FF4E0610220FCF797F941F23801F3
:1043A0000320FCF792F940F202210820FCF78DF976
:1043B00000210A20FCF789F900210C20FCF785F97F
:1043C00000210D20FCF781F930210E20FCF77DF94A
:1043D00000215020FCF779F9EF215120FCF775F905
:1043E00000215220FCF771F940F23F115320FCF7F5
:1043F0006CF94FF41C516020FCF767F90121612032
:10440000FCF763F900216A20FCF75FF91121902085
:10441000FCF75BF94FF4C0619220FCF756F940F2CB
:1044200002419320FCF751F902219420FCF74DF949
:10443000142001F0DFFB01210720FCF746F91420CE
:1044400001F0D8FB61210720FCF73FF940F273111E
:104450000720FCF73AF900212020FCF736F900216B
:104460002120FCF732F922210020FCF72EF950E23E
:10447000794880884CF2055188427CD10021084659
:10448000FCF723F900210846FCF71FF9142001F07E
:10449000B1FB00210846FCF718F900210846FCF79B
:1044A00014F900210846FCF710F900210846FCF732
:1044B0000CF90121A420FCF708F9142001F09AFB63
:1044C0004FF41C516020FCF700F940F6060108206B
:1044D000FCF7FBF840F203713020FCF7F6F80121FD
:1044E0003120FCF7F2F804213220FCF7EEF84FF40B
:1044F00081713320FCF7E9F84FF440713420FCF768
:10450000E4F840F203113520FCF7DFF81F213620D4
:10451000FCF7DBF840F203713720FCF7D6F80121F5
:104520003820FCF7D2F804213920FCF7CEF8152109
:104530009020FCF7CAF84FF482611020FCF7C5F810
:1045400040F247211120FCF7C0F84FF4DE71122031
:10455000FCF7BBF84FF460611320FCF7B6F8782045
:1045600001F048FB4FF480710120FCF7AEF84FF4E6
:104570000071022000E052E0FCF7A7F841F23001A0
:104580000320FCF7A2F808210A20FCF79EF800217E
:104590000C20FCF79AF820210E20FCF796F8002159
:1045A0000F20FCF792F800212020FCF78EF8002164
:1045B0002120FCF78AF83D212A20FCF786F81420F8
:1045C00001F018FB2D212920FCF77FF80021502055
:1045D000FCF77BF84DF2EF015120FCF776F8002153
:1045E0005220FCF772F840F23F115320FCF76DF8AF
:1045F00000216120FCF769F800216A20FCF765F8CA
:104600004FF440719220FCF760F805219320FCF7ED
:104610005CF84FF480710720FCF757F879E10E48F9
:10462000808844F2315188427ED101210020FCF77C
:104630004CF80A2001F0DEFA41F228611020FCF764
:1046400044F80E211220FCF740F840F639211320DF
:10465000FCF73BF80A2001E04800002001F0CAFA0C
:1046600040211120FCF731F850211520FCF72DF8DE
:104670000A2001F0BFFA1E211220FCF726F80A20BA
:1046800001F0B8FA4FF4B1511020FCF71EF842F6D1
:1046900039211320FCF719F80A2001F0ABFA4FF486
:1046A00080710120FCF711F84FF440710220FCF7F3
:1046B0000CF841F238010320FCF707F840F2022120
:1046C0000820FCF702F808210A20FBF7FEFF002172
:1046D0003020FBF7FAFF40F202413120FBF7F5FFF3
:1046E0004FF483713220FBF7F0FF40F20351332087
:1046F000FBF7EBFF4FF482713420FBF7E6FF40F24B
:1047000001313520FBF7E1FF40F207713620FBF75E
:10471000DCFF40F205313720FBF7D7FF4FF4027181
:104720003820FBF7D2FF00E03EE040F60B71392065
:10473000FBF7CBFF02214120FBF7C7FF4FF41C51D1
:104740006020FBF7C2FF01216120FBF7BEFF4FF4A1
:1047500004719020FBF7B9FF4FF485719220FBF7AD
:10476000B4FF04219320FBF7B0FF4FF48071A02029
:10477000FBF7ABFF01210720FBF7A7FF2121072053
:10478000FBF7A3FF23210720FBF79FFF332107201F
:10479000FBF79BFF40F233110720FBF796FF002148
:1047A000A020FBF792FFB4E0FE48808844F2355128
:1047B0008842F8D130211520FBF787FF10219A207D
:1047C000FBF783FF20211120FBF77FFF43F22841F5
:1047D0001020FBF77AFF02211220FBF776FF41F24F
:1047E00038011320FBF771FF282001F003FA122192
:1047F0000846FBF76AFF282001F0FCF943F220414C
:104800001020FBF762FF43F238011320FBF75DFF36
:10481000462001F0EFF900213020FBF756FF40F26F
:1048200002413120FBF751FF40F207313220FBF704
:104830004CFF4FF441713320FBF747FF0421342034
:10484000FBF743FF40F201413520FBF73EFF40F20A
:1048500007713620FBF739FF40F205313720FBF7AF
:1048600034FF4FF4C2613820FBF72FFF4FF4C261D1
:104870003920FBF72AFF4FF480710120FBF725FF59
:104880004FF440710220FBF720FF41F2300103207A
:10489000FBF71BFF40F608010820FBF716FF082175
:1048A0000A20FBF712FF4FF41C516020FBF70DFFAD
:1048B00001216120FBF709FF4FF49F719020FBF766
:1048C00004FF4FF480719220FBF7FFFE4FF48071DC
:1048D0009320FBF7FAFE4FF44051A020FBF7F5FEC2
:1048E0001021A320FBF7F1FE01210720FBF7EDFECD
:1048F00021210720FBF7E9FE23210720FBF7E5FE36
:1049000033210720FBF7E1FE40F233110720FBF7CC
:10491000DCFE0020FCF79BFA0120A34908604FF65B
:10492000FF70FCF710FC21B000BD2DE9FC4F0546DF
:104930000E4617469846DDF82C90002001909948C5
:10494000808846F60401884229D19648807901285A
:1049500025D1AB46354693480088C01B401E86B221
:10496000474690480088A0EB0B00401E1FFA80F8D5
:1049700000208C4988712A2048812B208881434659
:104980003A4631462846CDF80090FFF7CEFF012089
:10499000844988712B2048812A2088811DE0781B5A
:1049A000401C80B20190344615E021462846FBF7B2
:1049B000C0FEFBF7A1FE4FF0000A07E04FF0D84021
:1049C000A0F880900AF101001FFA80FA0198824550
:1049D000F4DB601C84B24445E7DDBDE8FC8F2DE9C3
:1049E000F84F07460D4690469946DDF828B0A8EBEB
:1049F0000700401C1FFA80FAA9EB0500401C80B29A
:104A00000090002414E0281981B23846FBF791FE8B
:104A1000FBF772FE002607E004FB0A603BF810007B
:104A200062490880701C86B25645F5DB601C84B272
:104A300000988442E7DBBDE8F88F2DE9FF4F84B092
:104A400081468A460020039002900698A0EB090553
:104A50000798A0EB0A06CDF80490CDF800A0002D31
:104A600001DD012705E00DB9002702E04FF0FF3717
:104A70006D42002E02DD4FF0010806E016B94FF03E
:104A8000000802E04FF0FF387642B54201DD2C46C7
:104A900000E034464FF0000B21E0009A91B2019AF9
:104AA00090B2FCF739F903982844039002983044F7
:104AB00002900398A04205DD0398001B0390019823
:104AC000384401900298A04205DD0298001B029034
:104AD0000098404400900BF101001FFA80FB601C1D
:104AE0008345DADD08B0BDE8F08FF0B504460D4629
:104AF00016461F462B46324629462046FFF79DFFA5
:104B00003B46224629462046FFF797FF3B46324662
:104B100039462046FFF791FF3B463246294630464C
:104B2000FFF78BFFF0BD2DE9F04306460F46904698
:104B3000002445460320A0EB480943E07A1B91B2CC
:104B4000321990B2FCF7E8F83A1B91B2721990B2A0
:104B5000FCF7E2F83A1991B2721990B2FCF7DCF85E
:104B60007A1991B2321990B2FCF7D6F87A1991B24B
:104B7000321B90B2FCF7D0F83A1991B2721B90B286
:104B8000FCF7CAF87A1B91B2321B90B2FCF7C4F85A
:104B90003A1B91B2721B90B2FCF7BEF8641CB9F1DB
:104BA000000F05E048000020BC8240428000006CFD
:104BB00003DAA000801D814404E0601B80000A30FD
:104BC00081446D1EAC42B9DDBDE8F0832DE9F84F9C
:104BD00080460E4617461C46B3462046E31704EBB4
:104BE0005373DB1021464FEAE47C04EB5C7C4FEA14
:104BF000EC0CA4EBCC0CBCF1000F02D04FF0010C7C
:104C000001E04FF0000C6344224604EBD27C4FEAF3
:104C10006C0C03FB0CF3DBB20093A7F12000C7B2CE
:104C2000002556E00C2C07D107EB47009F4901EB0C
:104C3000800010F8059013E0102C05D19C4800EB83
:104C4000071010F805900BE0182C07D107EBC700F0
:104C5000984901EB800010F8059001E0BDE8F88F5D
:104C60004FF0000A2FE009F0800030B1924802882E
:104C700031464046FCF75EF807E00A9828B98F48AD
:104C8000028831464046FCF755F84FEA49604FEA42
:104C90001069701C86B28A484088B04200DCDDE7AB
:104CA000A6EB0B00A0420AD15E4608F101001FFAF4
:104CB00080F883480088404500DCCFE706E00AF131
:104CC000010000F0FF0ABAF1080FCCDB00BF681C3E
:104CD000C5B200988542A5DB00BFBFE710B502460C
:104CE000012000E050430B1EA1F10104E1B2F9D113
:104CF00010BD2DE9FF4F81B0074691461E460E9D1F
:104D00004FF0000A002439E0301B401EC1B20A20D7
:104D1000FFF7E4FFB9FBF0F00A21B0FBF1F201FB71
:104D20001208BAF1000F16D1701EA04213DDB8F1BF
:104D3000000F0ED10020AB4605EBDB71491001FBE3
:104D40000471009088B22B4620220299FFF73EFFA3
:104D500012E04FF0010A0020AB4605EBDB71491071
:104D600001FB0471009088B208F13001CAB22B46F1
:104D70000299FFF72BFF00BF601CC4B2B442C3DB33
:104D800005B0BDE8F08F2DE9FF4F82B00646924690
:104D90001F46DDE90F480020019000254DE0781BFB
:104DA000401EC1B20A20FFF799FFBAFBF0F00A21BA
:104DB000B0FBF1F201FB1209019850BB781EA8422A
:104DC00027DDB9F1000F22D108F0800078B108F09A
:104DD0000100A34604EBDB71491001FB0561009063
:104DE00088B2234630220399FFF7F0FE0EE008F068
:104DF0000100A34604EBDB71491001FB0561009043
:104E000088B2234620220399FFF7E0FE13E0012039
:104E1000019008F00100A34604EBDB71491001FB8F
:104E20000561009088B209F13001CAB223460399A6
:104E3000FFF7CCFE00BF681CC5B2BD42AFDB06B0B9
:104E4000BDE8F08F2DE9F84704460D469046994697
:104E5000DDE9096704F0FF0A08EB04001FFA80F897
:104E600009EB05001FFA80F916E0444502DB5446C1
:104E7000A81985B24D4500DB14E0002000903A7877
:104E8000334629462046FFF7A1FE304606EBD07197
:104E900004EB61018CB27F1C38787E2802DC387804
:104EA0002028E2DA00BFBDE8F8870000D69C0008A1
:104EB0004AA100083AA70008180000201A000020A4
:104EC000480000201CB50121032001F0D5FB4FF460
:104ED0004070009000208DF8040003208DF805003C
:104EE00001208DF807006946594801F027F9012093
:104EF000009002208DF807006946564801F01EF91F
:104F00001CBD10B55448008800280CDD53480088AB
:104F1000401C5249088008460088642803DD0020B0
:104F200008804D4908804C48408800280CDD4B48DB
:104F30004088401C4949488008464088642803DD71
:104F400000204880444948804348808800280CDD80
:104F500042488088401C41498880084680886428EF
:104F600003DD002088803C4988804FF40071384878
:104F700001F046F958B14FF48071354801F040F91D
:104F800028B10121334801F03BF901284AD1002022
:104F90003349087001212F4801F032F9012811D15D
:104FA0002D480088401C2C490880084600880528A8
:104FB0004DDB002029490880274908800120294924
:104FC000087044E04FF40071214801F019F988B9E4
:104FD00021484088401C20494880084640880528D0
:104FE00035DB00201D4948801B49488002201D49AF
:104FF00008702CE04FF48071154801F001F930BBC6
:1050000015488088401C14498880084680880528F7
:105010001DDB0020114988800F4988800320114939
:10502000087014E04FF40071094801F0E9F8012814
:105030000DD10102064801F0E3F8012807D1012152
:10504000044801F0DDF810B901200549087010BDD1
:1050500000040240000002401E0000202400002046
:105060001D0000201C00002010B5012000F0CFFF23
:1050700001280ED100F0D7FFA748006808B9012029
:1050800000E00020A4490860A4480078401CA3491F
:10509000087010BDF0B58FB004460D4616461F4689
:1050A0000121880501F0E8FA9D4802F0B5FC00BF37
:1050B0009B4802F0DAFD0028FAD14FF00070009012
:1050C000984801900294002003900495059006975B
:1050D0004FF48050079008960011099040020A9002
:1050E00000200D900E9069468D4802F037FD0FB0FC
:1050F000F0BD0EB50121172001F0BEFA01210846CE
:1051000001F0CBFA5020019002208DF80800002019
:105110008DF80A0003208DF8090001208DF80B009E
:1051200001A9814801F00AF8C020019001A97F4837
:1051300001F004F84FF43C60019001A97C4800F0B4
:10514000FDFF6020019001A97A4800F0F7FF0D22D1
:105150000421754801F07DF80D220621724801F006
:1051600078F80D220721714801F073F80D2206210D
:105170006F4801F06EF80D2207216D4801F069F8C3
:105180000D2208216A4801F064F80D2209216848BF
:1051900001F05FF80D220B21654801F05AF80D224D
:1051A0000621624801F055F80D220521614801F001
:1051B00050F80D2206215F4801F04BF800F072FE16
:1051C00000205D4908804881888108818880488066
:1051D0008020C880084600F071FE0121084600F0DA
:1051E000EDFE012000F0C9FE4E208DF800000220E7
:1051F0008DF8010003208DF8020001208DF80300D6
:10520000684600F0E4FD0EBD10B5002000F0C4FEBD
:1052100000BF44482838006800F001000028F8D199
:1052200000213F4802F0D4FC10BD2DE9F0410446B6
:105230000D4616461F46DDF81880FFF7E5FF40468D
:10524000FBF705FE3B46324629462046FBF7BCFEEF
:1052500029462046FBF76DFAFBF74EFA012130484C
:1052600002F0B6FC012000F097FEBDE8F0812DE9C8
:10527000F04104460D4616461F46FFF7C5FF4FF6A0
:10528000FF70FBF760FF3B46324629462046FBF79E
:105290009BFE3B4632460021042000F0F2F92946ED
:1052A0002046FBF746FAFBF727FA01211C4802F0DB
:1052B0008FFC012000F070FEBDE8F08108B50646C5
:1052C0000D4614464FF6FF70FBF73DFF4FF4784054
:1052D0001A490880FFF70DFF00234FF400520A21FE
:1052E0001748FFF7D7FE0120F0234FF4A0720021EA
:1052F00000900846FFF799FF0CE00A20A8472078A5
:10530000012807D1054801780EA0B04700200349C5
:1053100008702070F1E70000A88242422A000020B5
:1053200028640240280005500000024000040240AA
:105330000008024000100240560000201800002023
:105340008000006C6672616D653A25646670730D4D
:105350000A0000007FB504460D460121022001F03D
:10536000D4F9ADF804500020ADF806000294ADF871
:105370000C0001A91E4801F080FB012211461C48C7
:1053800002F01CF801211A4801F000FC1D208DF8E4
:10539000000001208DF8010003208DF8020001209B
:1053A0008DF80300684600F012FD7FBD10B50121A5
:1053B0000F4802F01AF8012815D10E480078401C59
:1053C0000C4908700846007864280CDB002008703F
:1053D0000948006808B9012000E00020064908607B
:1053E0000120064908700121014802F00FF810BDA4
:1053F000000400402B000020A48242420000002054
:105400007CB500250121042001F036F93020009000
:1054100001208DF8040000208DF8060002208DF890
:10542000050001208DF807006946F84800F086FE67
:105430000020F7490860642000F0DCFB0020F549FB
:10544000C1F89402642000F0D5FB0120F049091D49
:10545000086000F0EFF98021122000F01AFB3220E2
:1054600000F0C8FB1C2000F033FB04464FF6FF7031
:1054700000EA04241D2000F02BFB044347F6A27031
:10548000844205D02146E4A002F08CFF01207CBDBF
:105490000A2000F01DFB04464FF6FF7000EA0424CA
:1054A0000B2000F015FB044347F27360844205D0E3
:1054B0002146DCA002F076FF0220E8E700250AE0A2
:1054C000DB4A02EB45025178D94A12F8150000F088
:1054D000E0FA681C85B2A82DF2D30020D7E72DE9A9
:1054E000F0410446E72500260027012C06D0022CB7
:1054F00008D0032C0AD0042C10D10BE0E5255A2645
:105500005C270BE0E5255826602707E0E525842683
:105510004C2703E0E5259626402700BF00BF29461B
:10552000132000F0B6FA3146012000F0B2FA3946F5
:10553000022000F0AEFABDE8F0812DE9F04104460A
:10554000802522265E2734B1012C08D0032C0AD0F6
:10555000042C10D10BE0402511262F270BE06625E7
:105560001B264B2707E099252826712703E0C02535
:1055700033268D2700BF00BF29464F2000F089FA4F
:105580002946502000F085FA0021512000F081FAD0
:105590003146522000F07DFA3946532000F079FA66
:1055A0002946542000F075FA9E21582000F071FA27
:1055B000BDE8F08170B50446002534B1012C06D059
:1055C000032C06D0042C08D105E0B02505E0982571
:1055D00003E0182501E0302500BF00BF2946552013
:1055E00000F057FA70BD70B50446402534B1012C67
:1055F00006D0032C06D0042C08D105E0302505E0A8
:10560000382503E0502501E0602500BF00BF294692
:10561000562000F03EFA70BD2DE9F0410446042505
:10562000C0268027072C1DD2DFE804F01C04080CDC
:105630001014180024258026802713E014258026C6
:1056400080270FE01425C02680270BE01425402674
:10565000402707E014258026C02703E01425A02654
:10566000402700BF00BF29463A2000F012FA314619
:10567000682000F00EFA3946672000F00AFABDE80B
:10568000F0812DE9F04705460E469046994605EB18
:1056900048001FFA80FA06EB490087B2B7F5447F4D
:1056A00002DDA7F5447087B2032000F011FA04462A
:1056B00004F0F0040AF00301284661F39F0004435C
:1056C0002146032000F0E5F9C5F38701192000F019
:1056D000E0F9CAF387011A2000F0DBF9322000F06C
:1056E000F7F9044604F0C00407F00701304661F3FF
:1056F000DF0004432146322000F0CBF9C6F3C70196
:10570000172000F0C6F9C7F3C701182000F0C1F94F
:10571000BDE8F0872DE9F84F04460D4690469946BE
:1057200004EB480086B205EB490087B2B6F5447F2A
:1057300006DD4FF4447096FBF0F100FB116086B279
:10574000B7F5447F06DD4FF4447097FBF0F100FBA2
:10575000117087B2322000F0BBF982460AF0C00A0D
:10576000032000F0B5F983460BF0F00B06F00700BC
:105770004AEAC00004F00701084300903220009973
:1057800000F087F9C4F3C70000901720009900F0DB
:1057900080F9C6F3C70000901820009900F079F94D
:1057A00007F003004BEA800005F003010843009076
:1057B0000320009900F06DF9C5F3870000901920CF
:1057C000009900F066F9C7F3870000901A2000994D
:1057D00000F05FF9BDE8F88F10B58021322000F0AD
:1057E00058F91721084600F054F90521182000F057
:1057F00050F90A21032000F04CF90221192000F091
:1058000048F97B211A2000F044F910BD000802403D
:1058100090024142000041424D49443A30582558D7
:105820000D0A00004849443A305825580D0A000036
:10583000E2B500081CB50121022000F01DFF012186
:10584000084600F019FF4FF48070009002208DF898
:10585000040000208DF8060002208DF8050069463E
:10586000AF4800F06BFC4FF0C061002000F0E8FD95
:105870004FF44050009001208DF8040000208DF876
:10588000060002208DF8050001208DF8070069460A
:10589000A44800F053FC4FF44051A24800F0CAFC69
:1058A000A048006820F040709E49086008460068E3
:1058B00040F0807008601CBD10B59A48006820F068
:1058C0004070984908600846006840F080700860A1
:1058D000012095490860022000F044F90120934915
:1058E000C1F8B402022000F03DF900208E490860A2
:1058F000022000F037F900208C49C1F8B40210BD35
:1059000010B58848006820F0407086490860084655
:10591000006840F080700860002083490860022021
:1059200000F020F901208149C1F8B402022000F002
:1059300019F901207C490860022000F013F910BD1C
:1059400010B57848006820F0407076490860084635
:10595000006840F0807008600120734908600220F0
:1059600000F000F901207149C1F8B402022000F0F2
:10597000F9F800206C49091D0860022000F0F2F8D7
:1059800000206A49C1F8B002022000F0EBF810BD17
:1059900070B5044600261BE004F0800018B1012019
:1059A0006149086002E000205F4908606006040E5B
:1059B000022000F0D7F801205B49091D0860022091
:1059C00000F0D0F800205949C1F8B402701CC6B2EA
:1059D000082EE1DB5348006820F040705149086010
:1059E000084600680860022000F0BCF801204E491B
:1059F000091D0860022000F0B5F84C48D0F83002CC
:105A000008B1012500E0002500204749091D086074
:105A10004448006820F04070424908600846006829
:105A200040F080700860284670BD70B500243D4885
:105A3000006820F040703B49086008460068086034
:105A4000082517E0022000F08DF801203649091DD5
:105A500008606006040E3548D0F8300208B1601CBA
:105A6000C4B2022000F07EF800202F49091D086012
:105A7000681EC5B2002DE5DC2A48006820F04070A1
:105A8000284908600846006840F080700860204699
:105A900070BD70B505460C460026FFF70DFF42208D
:105AA000FFF776FF00B10126642000F05BF828467E
:105AB000FFF76EFF00B10126642000F053F8204686
:105AC000FFF766FF00B10126FFF71AFF304670BDF1
:105AD00070B504460025FFF7EFFE4220FFF758FFA0
